{"abi":[{"type":"constructor","inputs":[{"name":"_fundAsset","type":"address","internalType":"address"},{"name":"_targetSizeBps","type":"uint256","internalType":"uint256"},{"name":"_drawdownTriggerBps","type":"uint256","internalType":"uint256"},{"name":"_initialPeakNAV","type":"uint256","internalType":"uint256"},{"name":"_owner","type":"address","internalType":"address"}],"stateMutability":"nonpayable"},{"type":"function","name":"BPS","inputs":[],"outputs":[{"name":"","type":"uint256","internalType":"uint256"}],"stateMutability":"view"},{"type":"function","name":"authorizeCaller","inputs":[{"name":"caller","type":"address","internalType":"address"},{"name":"authorized","type":"bool","internalType":"bool"}],"outputs":[],"stateMutability":"nonpayable"},{"type":"function","name":"authorizedCallers","inputs":[{"name":"","type":"address","internalType":"address"}],"outputs":[{"name":"","type":"bool","internalType":"bool"}],"stateMutability":"view"},{"type":"function","name":"checkAndCoverDrawdown","inputs":[{"name":"currentNAV","type":"uint256","internalType":"uint256"},{"name":"vaultAddress","type":"address","internalType":"address"}],"outputs":[{"name":"payoutAmount","type":"uint256","internalType":"uint256"}],"stateMutability":"nonpayable"},{"type":"function","name":"checkRefillNeeded","inputs":[],"outputs":[{"name":"_needsRefill","type":"bool","internalType":"bool"},{"name":"_deficit","type":"uint256","internalType":"uint256"}],"stateMutability":"view"},{"type":"function","name":"claimCount","inputs":[],"outputs":[{"name":"","type":"uint256","internalType":"uint256"}],"stateMutability":"view"},{"type":"function","name":"claims","inputs":[{"name":"","type":"uint256","internalType":"uint256"}],"outputs":[{"name":"claimType","type":"uint8","internalType":"enum InsuranceFund.ClaimType"},{"name":"amount","type":"uint256","internalType":"uint256"},{"name":"reason","type":"string","internalType":"string"},{"name":"navAtClaim","type":"uint256","internalType":"uint256"},{"name":"peakNAV","type":"uint256","internalType":"uint256"},{"name":"drawdownBps","type":"uint256","internalType":"uint256"},{"name":"timestamp","type":"uint256","internalType":"uint256"}],"stateMutability":"view"},{"type":"function","name":"deposit","inputs":[{"name":"amount","type":"uint256","internalType":"uint256"}],"outputs":[],"stateMutability":"nonpayable"},{"type":"function","name":"drawdownTriggerBps","inputs":[],"outputs":[{"name":"","type":"uint256","internalType":"uint256"}],"stateMutability":"view"},{"type":"function","name":"emergencyPayout","inputs":[{"name":"amount","type":"uint256","internalType":"uint256"},{"name":"to","type":"address","internalType":"address"},{"name":"reason","type":"string","internalType":"string"}],"outputs":[],"stateMutability":"nonpayable"},{"type":"function","name":"fundAsset","inputs":[],"outputs":[{"name":"","type":"address","internalType":"contract IERC20"}],"stateMutability":"view"},{"type":"function","name":"fundBalance","inputs":[],"outputs":[{"name":"","type":"uint256","internalType":"uint256"}],"stateMutability":"view"},{"type":"function","name":"fundSummary","inputs":[],"outputs":[{"name":"_balance","type":"uint256","internalType":"uint256"},{"name":"_totalDeposited","type":"uint256","internalType":"uint256"},{"name":"_totalPaidOut","type":"uint256","internalType":"uint256"},{"name":"_totalDrawdownClaims","type":"uint256","internalType":"uint256"},{"name":"_totalEmergencyClaims","type":"uint256","internalType":"uint256"},{"name":"_peakNAV","type":"uint256","internalType":"uint256"},{"name":"_targetSizeBps","type":"uint256","internalType":"uint256"},{"name":"_drawdownTriggerBps","type":"uint256","internalType":"uint256"},{"name":"_needsRefill","type":"bool","internalType":"bool"},{"name":"_refillDeficit","type":"uint256","internalType":"uint256"}],"stateMutability":"view"},{"type":"function","name":"fundingStatus","inputs":[{"name":"currentAUM","type":"uint256","internalType":"uint256"}],"outputs":[{"name":"targetSize","type":"uint256","internalType":"uint256"},{"name":"currentSize","type":"uint256","internalType":"uint256"},{"name":"funded","type":"bool","internalType":"bool"}],"stateMutability":"view"},{"type":"function","name":"getClaim","inputs":[{"name":"index","type":"uint256","internalType":"uint256"}],"outputs":[{"name":"","type":"tuple","internalType":"struct InsuranceFund.Claim","components":[{"name":"claimType","type":"uint8","internalType":"enum InsuranceFund.ClaimType"},{"name":"amount","type":"uint256","internalType":"uint256"},{"name":"reason","type":"string","internalType":"string"},{"name":"navAtClaim","type":"uint256","internalType":"uint256"},{"name":"peakNAV","type":"uint256","internalType":"uint256"},{"name":"drawdownBps","type":"uint256","internalType":"uint256"},{"name":"timestamp","type":"uint256","internalType":"uint256"}]}],"stateMutability":"view"},{"type":"function","name":"needsRefill","inputs":[],"outputs":[{"name":"","type":"bool","internalType":"bool"}],"stateMutability":"view"},{"type":"function","name":"owner","inputs":[],"outputs":[{"name":"","type":"address","internalType":"address"}],"stateMutability":"view"},{"type":"function","name":"peakNAV","inputs":[],"outputs":[{"name":"","type":"uint256","internalType":"uint256"}],"stateMutability":"view"},{"type":"function","name":"refillDeficit","inputs":[],"outputs":[{"name":"","type":"uint256","internalType":"uint256"}],"stateMutability":"view"},{"type":"function","name":"renounceOwnership","inputs":[],"outputs":[],"stateMutability":"nonpayable"},{"type":"function","name":"setDrawdownTrigger","inputs":[{"name":"_bps","type":"uint256","internalType":"uint256"}],"outputs":[],"stateMutability":"nonpayable"},{"type":"function","name":"setPeakNAV","inputs":[{"name":"_peak","type":"uint256","internalType":"uint256"}],"outputs":[],"stateMutability":"nonpayable"},{"type":"function","name":"setTargetSize","inputs":[{"name":"_bps","type":"uint256","internalType":"uint256"}],"outputs":[],"stateMutability":"nonpayable"},{"type":"function","name":"targetSizeBps","inputs":[],"outputs":[{"name":"","type":"uint256","internalType":"uint256"}],"stateMutability":"view"},{"type":"function","name":"totalDeposited","inputs":[],"outputs":[{"name":"","type":"uint256","internalType":"uint256"}],"stateMutability":"view"},{"type":"function","name":"totalDrawdownClaims","inputs":[],"outputs":[{"name":"","type":"uint256","internalType":"uint256"}],"stateMutability":"view"},{"type":"function","name":"totalEmergencyClaims","inputs":[],"outputs":[{"name":"","type":"uint256","internalType":"uint256"}],"stateMutability":"view"},{"type":"function","name":"totalPaidOut","inputs":[],"outputs":[{"name":"","type":"uint256","internalType":"uint256"}],"stateMutability":"view"},{"type":"function","name":"transferOwnership","inputs":[{"name":"newOwner","type":"address","internalType":"address"}],"outputs":[],"stateMutability":"nonpayable"},{"type":"event","name":"DrawdownTriggerUpdated","inputs":[{"name":"oldBps","type":"uint256","indexed":false,"internalType":"uint256"},{"name":"newBps","type":"uint256","indexed":false,"internalType":"uint256"}],"anonymous":false},{"type":"event","name":"DrawdownTriggered","inputs":[{"name":"navCurrent","type":"uint256","indexed":false,"internalType":"uint256"},{"name":"navPeak","type":"uint256","indexed":false,"internalType":"uint256"},{"name":"drawdownBps","type":"uint256","indexed":false,"internalType":"uint256"},{"name":"payoutAmount","type":"uint256","indexed":false,"internalType":"uint256"},{"name":"timestamp","type":"uint256","indexed":false,"internalType":"uint256"}],"anonymous":false},{"type":"event","name":"EmergencyPayout","inputs":[{"name":"to","type":"address","indexed":true,"internalType":"address"},{"name":"amount","type":"uint256","indexed":false,"internalType":"uint256"},{"name":"reason","type":"string","indexed":false,"internalType":"string"},{"name":"timestamp","type":"uint256","indexed":false,"internalType":"uint256"}],"anonymous":false},{"type":"event","name":"FundDeposited","inputs":[{"name":"from","type":"address","indexed":true,"internalType":"address"},{"name":"amount","type":"uint256","indexed":false,"internalType":"uint256"},{"name":"newBalance","type":"uint256","indexed":false,"internalType":"uint256"},{"name":"timestamp","type":"uint256","indexed":false,"internalType":"uint256"}],"anonymous":false},{"type":"event","name":"OwnershipTransferred","inputs":[{"name":"previousOwner","type":"address","indexed":true,"internalType":"address"},{"name":"newOwner","type":"address","indexed":true,"internalType":"address"}],"anonymous":false},{"type":"event","name":"PeakNAVUpdated","inputs":[{"name":"oldPeak","type":"uint256","indexed":false,"internalType":"uint256"},{"name":"newPeak","type":"uint256","indexed":false,"internalType":"uint256"},{"name":"timestamp","type":"uint256","indexed":false,"internalType":"uint256"}],"anonymous":false},{"type":"event","name":"RefillCompleted","inputs":[{"name":"amount","type":"uint256","indexed":false,"internalType":"uint256"},{"name":"timestamp","type":"uint256","indexed":false,"internalType":"uint256"}],"anonymous":false},{"type":"event","name":"RefillRequired","inputs":[{"name":"deficit","type":"uint256","indexed":false,"internalType":"uint256"},{"name":"timestamp","type":"uint256","indexed":false,"internalType":"uint256"}],"anonymous":false},{"type":"event","name":"TargetSizeUpdated","inputs":[{"name":"oldBps","type":"uint256","indexed":false,"internalType":"uint256"},{"name":"newBps","type":"uint256","indexed":false,"internalType":"uint256"}],"anonymous":false},{"type":"error","name":"OwnableInvalidOwner","inputs":[{"name":"owner","type":"address","internalType":"address"}]},{"type":"error","name":"OwnableUnauthorizedAccount","inputs":[{"name":"account","type":"address","internalType":"address"}]},{"type":"error","name":"ReentrancyGuardReentrantCall","inputs":[]},{"type":"error","name":"SafeERC20FailedOperation","inputs":[{"name":"token","type":"address","internalType":"address"}]}],"bytecode":{"object":"0x60a060405234801561000f575f5ffd5b50604051611ebe380380611ebe83398101604081905261002e9161020b565b806001600160a01b03811661005d57604051631e4fbdf760e01b81525f60048201526024015b60405180910390fd5b610066816101a1565b5060017f9b779b17422d0df92223018b32b4d1fa46e071723d6817e2486d003becc55f00556001600160a01b0385166100d25760405162461bcd60e51b815260206004820152600e60248201526d12518e881e995c9bc8185cdcd95d60921b6044820152606401610054565b5f841180156100e357506107d08411155b6101245760405162461bcd60e51b815260206004820152601260248201527112518e881a5b9d985b1a59081d185c99d95d60721b6044820152606401610054565b5f8311801561013557506113888311155b6101815760405162461bcd60e51b815260206004820152601360248201527f49463a20696e76616c69642074726967676572000000000000000000000000006044820152606401610054565b506001600160a01b03909316608052600191909155600255600355610259565b5f80546001600160a01b038381166001600160a01b0319831681178455604051919092169283917f8be0079c531659141344cd1fd0a4f28419497f9722a3daafe3b4186f6b6457e09190a35050565b80516001600160a01b0381168114610206575f5ffd5b919050565b5f5f5f5f5f60a0868803121561021f575f5ffd5b610228866101f0565b6020870151604088015160608901519297509095509350915061024d608087016101f0565b90509295509295909350565b608051611c0e6102b05f395f81816101cf0152818161056501528181610611015281816108a70152818161096c01528181610d4301528181610e47015281816110ac0152818161114201526113c80152611c0e5ff3fe608060405234801561000f575f5ffd5b50600436106101c6575f3560e01c8063715018a6116100fe578063b6b55f251161009e578063f2fde38b1161006e578063f2fde38b146103dd578063f42e6976146103f0578063fcc55e5814610444578063ff50abdc14610457575f5ffd5b8063b6b55f25146103a1578063ba4a96aa146103b4578063c449c7eb146103bd578063d77f08d1146103ca575f5ffd5b80638da5cb5b116100d95780638da5cb5b1461033a5780638e80cbe81461034a5780639b268e3e14610372578063a888c2cd1461037b575f5ffd5b8063715018a61461031757806372a25fcd1461031f5780638da4d3c914610332575f5ffd5b80632df7c48e11610169578063465c41c711610144578063465c41c714610282578063536fff6c146102b25780635aef2447146102e45780636a13ba9014610304575f5ffd5b80632df7c48e1461025e5780633b80b82a146102675780633c0679451461027a575f5ffd5b806313a9dce8116101a457806313a9dce81461022e57806313c262cb14610243578063249d39e91461024c5780632bea187114610255575f5ffd5b806301e6bc91146101ca57806306a3260e1461020e5780631357e1dc14610225575b5f5ffd5b6101f17f000000000000000000000000000000000000000000000000000000000000000081565b6040516001600160a01b0390911681526020015b60405180910390f35b610217600b5481565b604051908152602001610205565b61021760095481565b61024161023c366004611725565b610460565b005b61021760055481565b61021761271081565b61021760015481565b61021760035481565b610241610275366004611725565b6104fe565b61021761054e565b610295610290366004611725565b6105db565b604080519384526020840192909252151590820152606001610205565b6102d46102c0366004611757565b60066020525f908152604090205460ff1681565b6040519015158152602001610205565b6102f76102f2366004611725565b610690565b60405161020591906117d9565b610241610312366004611844565b610833565b610241610b72565b61024161032d366004611725565b610b85565b600754610217565b5f546001600160a01b03166101f1565b61035b60045460055460ff90911691565b604080519215158352602083019190915201610205565b61021760025481565b61038e610389366004611725565b610c16565b60405161020597969594939291906118c7565b6102416103af366004611725565b610ced565b610217600a5481565b6004546102d49060ff1681565b6102176103d8366004611912565b610ee8565b6102416103eb366004611757565b611382565b6103f86113bc565b604080519a8b5260208b0199909952978901969096526060880194909452608087019290925260a086015260c085015260e0840152151561010083015261012082015261014001610205565b61024161045236600461193c565b6114a7565b61021760085481565b610468611521565b5f8111801561047957506107d08111155b6104b85760405162461bcd60e51b815260206004820152600b60248201526a12518e881a5b9d985b1a5960aa1b60448201526064015b60405180910390fd5b600180549082905560408051828152602081018490527f2f5aedaca79dc4edb8a2d997fde1052117933aeb351df48985eeb3063c2cccc791015b60405180910390a15050565b610506611521565b6003805490829055604080518281526020810184905242918101919091527f16dc3ef028e2d0793e8c69b661cbcc78e2e12a4960f5e42384d5fa021b672c6f906060016104f2565b6040516370a0823160e01b81523060048201525f907f00000000000000000000000000000000000000000000000000000000000000006001600160a01b0316906370a0823190602401602060405180830381865afa1580156105b2573d5f5f3e3d5ffd5b505050506040513d601f19601f820116820180604052508101906105d69190611975565b905090565b5f5f5f612710600154856105ef91906119a0565b6105f991906119b7565b6040516370a0823160e01b81523060048201529093507f00000000000000000000000000000000000000000000000000000000000000006001600160a01b0316906370a0823190602401602060405180830381865afa15801561065e573d5f5f3e3d5ffd5b505050506040513d601f19601f820116820180604052508101906106829190611975565b929492935050508282101590565b6106cb6040805160e08101909152805f81526020015f8152602001606081526020015f81526020015f81526020015f81526020015f81525090565b60075482106107105760405162461bcd60e51b81526020600482015260116024820152700928c7440d2dcecc2d8d2c840d2dcc8caf607b1b60448201526064016104af565b60078281548110610723576107236119d6565b5f91825260209091206040805160e081019091526007909202018054829060ff16600181111561075557610755611777565b600181111561076657610766611777565b815260200160018201548152602001600282018054610784906119ea565b80601f01602080910402602001604051908101604052809291908181526020018280546107b0906119ea565b80156107fb5780601f106107d2576101008083540402835291602001916107fb565b820191905f5260205f20905b8154815290600101906020018083116107de57829003601f168201915b505050505081526020016003820154815260200160048201548152602001600582015481526020016006820154815250509050919050565b61083b611521565b61084361154d565b6001600160a01b0383166108905760405162461bcd60e51b815260206004820152601460248201527324a31d103d32b937903232b9ba34b730ba34b7b760611b60448201526064016104af565b6040516370a0823160e01b815230600482015284907f00000000000000000000000000000000000000000000000000000000000000006001600160a01b0316906370a0823190602401602060405180830381865afa1580156108f4573d5f5f3e3d5ffd5b505050506040513d601f19601f820116820180604052508101906109189190611975565b101561095f5760405162461bcd60e51b815260206004820152601660248201527549463a20696e73756666696369656e742066756e647360501b60448201526064016104af565b6109936001600160a01b037f0000000000000000000000000000000000000000000000000000000000000000168486611568565b8360095f8282546109a49190611a22565b9091555050600b8054905f6109b883611a35565b90915550506004805460ff19166001179055600580548591905f906109de908490611a22565b90915550506040805160e0810182526001815260208082018790528251601f8501829004820281018201845284815260079383019186908690819084018382808284375f9201829052509385525050506020808301829052600354604084015260608301829052426080909301929092528354600181810186559482529190208251600790920201805492939092839160ff19909116908381811115610a8657610a86611777565b02179055506020820151600182015560408201516002820190610aa99082611aac565b50606082015181600301556080820151816004015560a0820151816005015560c082015181600601555050826001600160a01b03167fe2a80337b3e9f0dceea0320546f72b39371eeb34e3c663935fa008e738dae8c785848442604051610b139493929190611b67565b60405180910390a2600554604080519182524260208301527f2206559a0f6e92c7a41d8ee8fe20b391452e4201242ef72f9ca93b36e8dab632910160405180910390a1610b6c60015f516020611bb95f395f51905f5255565b50505050565b610b7a611521565b610b835f6115a2565b565b610b8d611521565b5f81118015610b9e57506113888111155b610bd85760405162461bcd60e51b815260206004820152600b60248201526a12518e881a5b9d985b1a5960aa1b60448201526064016104af565b600280549082905560408051828152602081018490527fb25904d230577c96154258cb290c18701e6de4cf79b6233bd98cc432c0dc35e391016104f2565b60078181548110610c25575f80fd5b5f91825260209091206007909102018054600182015460028301805460ff9093169450909291610c54906119ea565b80601f0160208091040260200160405190810160405280929190818152602001828054610c80906119ea565b8015610ccb5780601f10610ca257610100808354040283529160200191610ccb565b820191905f5260205f20905b815481529060010190602001808311610cae57829003601f168201915b5050505050908060030154908060040154908060050154908060060154905087565b610cf561154d565b5f8111610d365760405162461bcd60e51b815260206004820152600f60248201526e12518e881e995c9bc8185b5bdd5b9d608a1b60448201526064016104af565b610d6b6001600160a01b037f0000000000000000000000000000000000000000000000000000000000000000163330846115f1565b8060085f828254610d7c9190611a22565b909155505060045460ff168015610d9457505f600554115b15610e04576005548110610ded575f6005556004805460ff19169055604080518281524260208201527f643e1d7adaa239cca0c600768ff73447d078f716c062a765e38cd16b6b4379a4910160405180910390a1610e04565b8060055f828254610dfe9190611ba5565b90915550505b6040516370a0823160e01b815230600482015233907fb5200f40f504c8a3ef6751facc02d182607b38948416ff588467bfb8f6fccb539083906001600160a01b037f000000000000000000000000000000000000000000000000000000000000000016906370a0823190602401602060405180830381865afa158015610e8c573d5f5f3e3d5ffd5b505050506040513d601f19601f82011682018060405250810190610eb09190611975565b604080519283526020830191909152429082015260600160405180910390a2610ee560015f516020611bb95f395f51905f5255565b50565b5f610ef161154d565b335f9081526006602052604090205460ff1680610f1757505f546001600160a01b031633145b610f565760405162461bcd60e51b815260206004820152601060248201526f12518e881d5b985d5d1a1bdc9a5e995960821b60448201526064016104af565b6001600160a01b038216610f9d5760405162461bcd60e51b815260206004820152600e60248201526d12518e881e995c9bc81d985d5b1d60921b60448201526064016104af565b600354831115610ff75760038054908490556040805182815260208101869052428183015290517f16dc3ef028e2d0793e8c69b661cbcc78e2e12a4960f5e42384d5fa021b672c6f9181900360600190a15f915050611366565b6003545f0361100757505f611366565b6003545f906127106110198683611ba5565b61102391906119a0565b61102d91906119b7565b9050600254811015611042575f915050611366565b5f6127106002546127106110569190611ba5565b60035461106391906119a0565b61106d91906119b7565b9050808510611080575f92505050611366565b61108a8582611ba5565b6040516370a0823160e01b81523060048201529093505f906001600160a01b037f000000000000000000000000000000000000000000000000000000000000000016906370a0823190602401602060405180830381865afa1580156110f1573d5f5f3e3d5ffd5b505050506040513d601f19601f820116820180604052508101906111159190611975565b905080841115611123578093505b835f03611135575f9350505050611366565b6111696001600160a01b037f0000000000000000000000000000000000000000000000000000000000000000168686611568565b8360095f82825461117a9190611a22565b9091555050600a8054905f61118e83611a35565b90915550506004805460ff19166001179055600580548591905f906111b4908490611a22565b90915550506040805160e0810182525f808252602080830188905283518085018552601b81527f4175746f6d617469632064726177646f776e20636f7665726167650000000000918101919091529282019290925260608101889052600354608082015260a081018590524260c0820152600780546001808201835593829052825191027fa66cc928b5edb82af9bd49922954155ab7b0942694bea4ce44661d9a8736c68801805492939092839160ff1990911690838181111561127a5761127a611777565b0217905550602082015160018201556040820151600282019061129d9082611aac565b50606082015181600301556080820151816004015560a0820151816005015560c0820151816006015550507f4f8cc7f10bbe623a8d9e78e3dbd2c5025da3978a043cba9893ef54cf9ca1ffef8660035485874260405161131f959493929190948552602085019390935260408401919091526060830152608082015260a00190565b60405180910390a1600554604080519182524260208301527f2206559a0f6e92c7a41d8ee8fe20b391452e4201242ef72f9ca93b36e8dab632910160405180910390a15050505b61137c60015f516020611bb95f395f51905f5255565b92915050565b61138a611521565b6001600160a01b0381166113b357604051631e4fbdf760e01b81525f60048201526024016104af565b610ee5816115a2565b5f5f5f5f5f5f5f5f5f5f7f00000000000000000000000000000000000000000000000000000000000000006001600160a01b03166370a08231306040518263ffffffff1660e01b815260040161142191906001600160a01b0391909116815260200190565b602060405180830381865afa15801561143c573d5f5f3e3d5ffd5b505050506040513d601f19601f820116820180604052508101906114609190611975565b600854600954600a54600b5460035460015460025460045f9054906101000a900460ff16600554995099509950995099509950995099509950995090919293949596979899565b6114af611521565b6001600160a01b0382166114f75760405162461bcd60e51b815260206004820152600f60248201526e24a31d103d32b9379031b0b63632b960891b60448201526064016104af565b6001600160a01b03919091165f908152600660205260409020805460ff1916911515919091179055565b5f546001600160a01b03163314610b835760405163118cdaa760e01b81523360048201526024016104af565b611555611627565b60025f516020611bb95f395f51905f5255565b6115758383836001611656565b61159d57604051635274afe760e01b81526001600160a01b03841660048201526024016104af565b505050565b5f80546001600160a01b038381166001600160a01b0319831681178455604051919092169283917f8be0079c531659141344cd1fd0a4f28419497f9722a3daafe3b4186f6b6457e09190a35050565b6115ff8484848460016116b8565b610b6c57604051635274afe760e01b81526001600160a01b03851660048201526024016104af565b5f516020611bb95f395f51905f5254600203610b8357604051633ee5aeb560e01b815260040160405180910390fd5b60405163a9059cbb60e01b5f8181526001600160a01b038616600452602485905291602083604481808b5af1925060015f511483166116ac5783831516156116a0573d5f823e3d81fd5b5f873b113d1516831692505b60405250949350505050565b6040516323b872dd60e01b5f8181526001600160a01b038781166004528616602452604485905291602083606481808c5af1925060015f51148316611714578383151615611708573d5f823e3d81fd5b5f883b113d1516831692505b604052505f60605295945050505050565b5f60208284031215611735575f5ffd5b5035919050565b80356001600160a01b0381168114611752575f5ffd5b919050565b5f60208284031215611767575f5ffd5b6117708261173c565b9392505050565b634e487b7160e01b5f52602160045260245ffd5b600281106117a757634e487b7160e01b5f52602160045260245ffd5b9052565b5f81518084528060208401602086015e5f602082860101526020601f19601f83011685010191505092915050565b602081526117eb60208201835161178b565b602082015160408201525f604083015160e060608401526118106101008401826117ab565b905060608401516080840152608084015160a084015260a084015160c084015260c084015160e08401528091505092915050565b5f5f5f5f60608587031215611857575f5ffd5b843593506118676020860161173c565b9250604085013567ffffffffffffffff811115611882575f5ffd5b8501601f81018713611892575f5ffd5b803567ffffffffffffffff8111156118a8575f5ffd5b8760208284010111156118b9575f5ffd5b949793965060200194505050565b6118d1818961178b565b86602082015260e060408201525f6118ec60e08301886117ab565b90508560608301528460808301528360a08301528260c083015298975050505050505050565b5f5f60408385031215611923575f5ffd5b823591506119336020840161173c565b90509250929050565b5f5f6040838503121561194d575f5ffd5b6119568361173c565b91506020830135801515811461196a575f5ffd5b809150509250929050565b5f60208284031215611985575f5ffd5b5051919050565b634e487b7160e01b5f52601160045260245ffd5b808202811582820484141761137c5761137c61198c565b5f826119d157634e487b7160e01b5f52601260045260245ffd5b500490565b634e487b7160e01b5f52603260045260245ffd5b600181811c908216806119fe57607f821691505b602082108103611a1c57634e487b7160e01b5f52602260045260245ffd5b50919050565b8082018082111561137c5761137c61198c565b5f60018201611a4657611a4661198c565b5060010190565b634e487b7160e01b5f52604160045260245ffd5b601f82111561159d57805f5260205f20601f840160051c81016020851015611a865750805b601f840160051c820191505b81811015611aa5575f8155600101611a92565b5050505050565b815167ffffffffffffffff811115611ac657611ac6611a4d565b611ada81611ad484546119ea565b84611a61565b6020601f821160018114611b0c575f8315611af55750848201515b5f19600385901b1c1916600184901b178455611aa5565b5f84815260208120601f198516915b82811015611b3b5787850151825560209485019460019092019101611b1b565b5084821015611b5857868401515f19600387901b60f8161c191681555b50505050600190811b01905550565b84815260606020820152826060820152828460808301375f608084830101525f6080601f19601f860116830101905082604083015295945050505050565b8181038181111561137c5761137c61198c56fe9b779b17422d0df92223018b32b4d1fa46e071723d6817e2486d003becc55f00a2646970667358221220f7e94955b68d176cb30cced79489cc65fa4f09c2965ec20c5ece61b07b4c502564736f6c634300081c0033","linkReferences":{}},"methodIdentifiers":{"BPS()":"249d39e9","authorizeCaller(address,bool)":"fcc55e58","authorizedCallers(address)":"536fff6c","checkAndCoverDrawdown(uint256,address)":"d77f08d1","checkRefillNeeded()":"8e80cbe8","claimCount()":"8da4d3c9","claims(uint256)":"a888c2cd","deposit(uint256)":"b6b55f25","drawdownTriggerBps()":"9b268e3e","emergencyPayout(uint256,address,string)":"6a13ba90","fundAsset()":"01e6bc91","fundBalance()":"3c067945","fundSummary()":"f42e6976","fundingStatus(uint256)":"465c41c7","getClaim(uint256)":"5aef2447","needsRefill()":"c449c7eb","owner()":"8da5cb5b","peakNAV()":"2df7c48e","refillDeficit()":"13c262cb","renounceOwnership()":"715018a6","setDrawdownTrigger(uint256)":"72a25fcd","setPeakNAV(uint256)":"3b80b82a","setTargetSize(uint256)":"13a9dce8","targetSizeBps()":"2bea1871","totalDeposited()":"ff50abdc","totalDrawdownClaims()":"ba4a96aa","totalEmergencyClaims()":"06a3260e","totalPaidOut()":"1357e1dc","transferOwnership(address)":"f2fde38b"},"id":60}