{"abi":[{"type":"constructor","inputs":[{"name":"proposers","type":"address[]","internalType":"address[]"},{"name":"executors","type":"address[]","internalType":"address[]"},{"name":"admin","type":"address","internalType":"address"}],"stateMutability":"nonpayable"},{"type":"receive","stateMutability":"payable"},{"type":"function","name":"CANCELLER_ROLE","inputs":[],"outputs":[{"name":"","type":"bytes32","internalType":"bytes32"}],"stateMutability":"view"},{"type":"function","name":"DEFAULT_ADMIN_ROLE","inputs":[],"outputs":[{"name":"","type":"bytes32","internalType":"bytes32"}],"stateMutability":"view"},{"type":"function","name":"DEFAULT_MIN_DELAY","inputs":[],"outputs":[{"name":"","type":"uint256","internalType":"uint256"}],"stateMutability":"view"},{"type":"function","name":"EXECUTOR_ROLE","inputs":[],"outputs":[{"name":"","type":"bytes32","internalType":"bytes32"}],"stateMutability":"view"},{"type":"function","name":"PROPOSER_ROLE","inputs":[],"outputs":[{"name":"","type":"bytes32","internalType":"bytes32"}],"stateMutability":"view"},{"type":"function","name":"cancel","inputs":[{"name":"id","type":"bytes32","internalType":"bytes32"}],"outputs":[],"stateMutability":"nonpayable"},{"type":"function","name":"execute","inputs":[{"name":"target","type":"address","internalType":"address"},{"name":"value","type":"uint256","internalType":"uint256"},{"name":"payload","type":"bytes","internalType":"bytes"},{"name":"predecessor","type":"bytes32","internalType":"bytes32"},{"name":"salt","type":"bytes32","internalType":"bytes32"}],"outputs":[],"stateMutability":"payable"},{"type":"function","name":"executeBatch","inputs":[{"name":"targets","type":"address[]","internalType":"address[]"},{"name":"values","type":"uint256[]","internalType":"uint256[]"},{"name":"payloads","type":"bytes[]","internalType":"bytes[]"},{"name":"predecessor","type":"bytes32","internalType":"bytes32"},{"name":"salt","type":"bytes32","internalType":"bytes32"}],"outputs":[],"stateMutability":"payable"},{"type":"function","name":"getMinDelay","inputs":[],"outputs":[{"name":"","type":"uint256","internalType":"uint256"}],"stateMutability":"view"},{"type":"function","name":"getOperationState","inputs":[{"name":"id","type":"bytes32","internalType":"bytes32"}],"outputs":[{"name":"","type":"uint8","internalType":"enum TimelockController.OperationState"}],"stateMutability":"view"},{"type":"function","name":"getRoleAdmin","inputs":[{"name":"role","type":"bytes32","internalType":"bytes32"}],"outputs":[{"name":"","type":"bytes32","internalType":"bytes32"}],"stateMutability":"view"},{"type":"function","name":"getTimestamp","inputs":[{"name":"id","type":"bytes32","internalType":"bytes32"}],"outputs":[{"name":"","type":"uint256","internalType":"uint256"}],"stateMutability":"view"},{"type":"function","name":"grantRole","inputs":[{"name":"role","type":"bytes32","internalType":"bytes32"},{"name":"account","type":"address","internalType":"address"}],"outputs":[],"stateMutability":"nonpayable"},{"type":"function","name":"hasRole","inputs":[{"name":"role","type":"bytes32","internalType":"bytes32"},{"name":"account","type":"address","internalType":"address"}],"outputs":[{"name":"","type":"bool","internalType":"bool"}],"stateMutability":"view"},{"type":"function","name":"hashOperation","inputs":[{"name":"target","type":"address","internalType":"address"},{"name":"value","type":"uint256","internalType":"uint256"},{"name":"data","type":"bytes","internalType":"bytes"},{"name":"predecessor","type":"bytes32","internalType":"bytes32"},{"name":"salt","type":"bytes32","internalType":"bytes32"}],"outputs":[{"name":"","type":"bytes32","internalType":"bytes32"}],"stateMutability":"pure"},{"type":"function","name":"hashOperationBatch","inputs":[{"name":"targets","type":"address[]","internalType":"address[]"},{"name":"values","type":"uint256[]","internalType":"uint256[]"},{"name":"payloads","type":"bytes[]","internalType":"bytes[]"},{"name":"predecessor","type":"bytes32","internalType":"bytes32"},{"name":"salt","type":"bytes32","internalType":"bytes32"}],"outputs":[{"name":"","type":"bytes32","internalType":"bytes32"}],"stateMutability":"pure"},{"type":"function","name":"isOperation","inputs":[{"name":"id","type":"bytes32","internalType":"bytes32"}],"outputs":[{"name":"","type":"bool","internalType":"bool"}],"stateMutability":"view"},{"type":"function","name":"isOperationDone","inputs":[{"name":"id","type":"bytes32","internalType":"bytes32"}],"outputs":[{"name":"","type":"bool","internalType":"bool"}],"stateMutability":"view"},{"type":"function","name":"isOperationPending","inputs":[{"name":"id","type":"bytes32","internalType":"bytes32"}],"outputs":[{"name":"","type":"bool","internalType":"bool"}],"stateMutability":"view"},{"type":"function","name":"isOperationReady","inputs":[{"name":"id","type":"bytes32","internalType":"bytes32"}],"outputs":[{"name":"","type":"bool","internalType":"bool"}],"stateMutability":"view"},{"type":"function","name":"onERC1155BatchReceived","inputs":[{"name":"","type":"address","internalType":"address"},{"name":"","type":"address","internalType":"address"},{"name":"","type":"uint256[]","internalType":"uint256[]"},{"name":"","type":"uint256[]","internalType":"uint256[]"},{"name":"","type":"bytes","internalType":"bytes"}],"outputs":[{"name":"","type":"bytes4","internalType":"bytes4"}],"stateMutability":"nonpayable"},{"type":"function","name":"onERC1155Received","inputs":[{"name":"","type":"address","internalType":"address"},{"name":"","type":"address","internalType":"address"},{"name":"","type":"uint256","internalType":"uint256"},{"name":"","type":"uint256","internalType":"uint256"},{"name":"","type":"bytes","internalType":"bytes"}],"outputs":[{"name":"","type":"bytes4","internalType":"bytes4"}],"stateMutability":"nonpayable"},{"type":"function","name":"onERC721Received","inputs":[{"name":"","type":"address","internalType":"address"},{"name":"","type":"address","internalType":"address"},{"name":"","type":"uint256","internalType":"uint256"},{"name":"","type":"bytes","internalType":"bytes"}],"outputs":[{"name":"","type":"bytes4","internalType":"bytes4"}],"stateMutability":"nonpayable"},{"type":"function","name":"renounceRole","inputs":[{"name":"role","type":"bytes32","internalType":"bytes32"},{"name":"callerConfirmation","type":"address","internalType":"address"}],"outputs":[],"stateMutability":"nonpayable"},{"type":"function","name":"revokeRole","inputs":[{"name":"role","type":"bytes32","internalType":"bytes32"},{"name":"account","type":"address","internalType":"address"}],"outputs":[],"stateMutability":"nonpayable"},{"type":"function","name":"schedule","inputs":[{"name":"target","type":"address","internalType":"address"},{"name":"value","type":"uint256","internalType":"uint256"},{"name":"data","type":"bytes","internalType":"bytes"},{"name":"predecessor","type":"bytes32","internalType":"bytes32"},{"name":"salt","type":"bytes32","internalType":"bytes32"},{"name":"delay","type":"uint256","internalType":"uint256"}],"outputs":[],"stateMutability":"nonpayable"},{"type":"function","name":"scheduleBatch","inputs":[{"name":"targets","type":"address[]","internalType":"address[]"},{"name":"values","type":"uint256[]","internalType":"uint256[]"},{"name":"payloads","type":"bytes[]","internalType":"bytes[]"},{"name":"predecessor","type":"bytes32","internalType":"bytes32"},{"name":"salt","type":"bytes32","internalType":"bytes32"},{"name":"delay","type":"uint256","internalType":"uint256"}],"outputs":[],"stateMutability":"nonpayable"},{"type":"function","name":"supportsInterface","inputs":[{"name":"interfaceId","type":"bytes4","internalType":"bytes4"}],"outputs":[{"name":"","type":"bool","internalType":"bool"}],"stateMutability":"view"},{"type":"function","name":"updateDelay","inputs":[{"name":"newDelay","type":"uint256","internalType":"uint256"}],"outputs":[],"stateMutability":"nonpayable"},{"type":"event","name":"CallExecuted","inputs":[{"name":"id","type":"bytes32","indexed":true,"internalType":"bytes32"},{"name":"index","type":"uint256","indexed":true,"internalType":"uint256"},{"name":"target","type":"address","indexed":false,"internalType":"address"},{"name":"value","type":"uint256","indexed":false,"internalType":"uint256"},{"name":"data","type":"bytes","indexed":false,"internalType":"bytes"}],"anonymous":false},{"type":"event","name":"CallSalt","inputs":[{"name":"id","type":"bytes32","indexed":true,"internalType":"bytes32"},{"name":"salt","type":"bytes32","indexed":false,"internalType":"bytes32"}],"anonymous":false},{"type":"event","name":"CallScheduled","inputs":[{"name":"id","type":"bytes32","indexed":true,"internalType":"bytes32"},{"name":"index","type":"uint256","indexed":true,"internalType":"uint256"},{"name":"target","type":"address","indexed":false,"internalType":"address"},{"name":"value","type":"uint256","indexed":false,"internalType":"uint256"},{"name":"data","type":"bytes","indexed":false,"internalType":"bytes"},{"name":"predecessor","type":"bytes32","indexed":false,"internalType":"bytes32"},{"name":"delay","type":"uint256","indexed":false,"internalType":"uint256"}],"anonymous":false},{"type":"event","name":"Cancelled","inputs":[{"name":"id","type":"bytes32","indexed":true,"internalType":"bytes32"}],"anonymous":false},{"type":"event","name":"MinDelayChange","inputs":[{"name":"oldDuration","type":"uint256","indexed":false,"internalType":"uint256"},{"name":"newDuration","type":"uint256","indexed":false,"internalType":"uint256"}],"anonymous":false},{"type":"event","name":"RoleAdminChanged","inputs":[{"name":"role","type":"bytes32","indexed":true,"internalType":"bytes32"},{"name":"previousAdminRole","type":"bytes32","indexed":true,"internalType":"bytes32"},{"name":"newAdminRole","type":"bytes32","indexed":true,"internalType":"bytes32"}],"anonymous":false},{"type":"event","name":"RoleGranted","inputs":[{"name":"role","type":"bytes32","indexed":true,"internalType":"bytes32"},{"name":"account","type":"address","indexed":true,"internalType":"address"},{"name":"sender","type":"address","indexed":true,"internalType":"address"}],"anonymous":false},{"type":"event","name":"RoleRevoked","inputs":[{"name":"role","type":"bytes32","indexed":true,"internalType":"bytes32"},{"name":"account","type":"address","indexed":true,"internalType":"address"},{"name":"sender","type":"address","indexed":true,"internalType":"address"}],"anonymous":false},{"type":"error","name":"AccessControlBadConfirmation","inputs":[]},{"type":"error","name":"AccessControlUnauthorizedAccount","inputs":[{"name":"account","type":"address","internalType":"address"},{"name":"neededRole","type":"bytes32","internalType":"bytes32"}]},{"type":"error","name":"FailedCall","inputs":[]},{"type":"error","name":"TimelockInsufficientDelay","inputs":[{"name":"delay","type":"uint256","internalType":"uint256"},{"name":"minDelay","type":"uint256","internalType":"uint256"}]},{"type":"error","name":"TimelockInvalidOperationLength","inputs":[{"name":"targets","type":"uint256","internalType":"uint256"},{"name":"payloads","type":"uint256","internalType":"uint256"},{"name":"values","type":"uint256","internalType":"uint256"}]},{"type":"error","name":"TimelockUnauthorizedCaller","inputs":[{"name":"caller","type":"address","internalType":"address"}]},{"type":"error","name":"TimelockUnexecutedPredecessor","inputs":[{"name":"predecessorId","type":"bytes32","internalType":"bytes32"}]},{"type":"error","name":"TimelockUnexpectedOperationState","inputs":[{"name":"operationId","type":"bytes32","internalType":"bytes32"},{"name":"expectedStates","type":"bytes32","internalType":"bytes32"}]}],"bytecode":{"object":"0x608060405234801561000f575f5ffd5b50604051611d4c380380611d4c83398101604081905261002e91610300565b6201518083838361003f5f30610185565b506001600160a01b0381161561005b576100595f82610185565b505b5f5b83518110156100ef576100af7fb09aa5aeb3702cfd50b6b62bc4532604938f21248a27a1d5ca736082b6819cc185838151811061009c5761009c610374565b602002602001015161018560201b60201c565b506100e67ffd643c72710c63c0180259aba6b2d05451e3591a24e58b62239378085726f78385838151811061009c5761009c610374565b5060010161005d565b505f5b825181101561013a576101317fd8aa0f3194971a2a116679f7c2090f6939c8d4e01a2a8d7e41d55e5351469e6384838151811061009c5761009c610374565b506001016100f2565b506002849055604080515f8152602081018690527f11c24f4ead16507c69ac467fbd5e4eed5fb5c699626d2cc6d66421df253886d5910160405180910390a150505050505050610388565b5f828152602081815260408083206001600160a01b038516845290915281205460ff16610225575f838152602081815260408083206001600160a01b03861684529091529020805460ff191660011790556101dd3390565b6001600160a01b0316826001600160a01b0316847f2f8788117e7eff1d82e926ec794901d17c78024a50270940304540a733656f0d60405160405180910390a4506001610228565b505f5b92915050565b634e487b7160e01b5f52604160045260245ffd5b80516001600160a01b0381168114610258575f5ffd5b919050565b5f82601f83011261026c575f5ffd5b81516001600160401b038111156102855761028561022e565b604051600582901b90603f8201601f191681016001600160401b03811182821017156102b3576102b361022e565b6040529182526020818501810192908101868411156102d0575f5ffd5b6020860192505b838310156102f6576102e883610242565b8152602092830192016102d7565b5095945050505050565b5f5f5f60608486031215610312575f5ffd5b83516001600160401b03811115610327575f5ffd5b6103338682870161025d565b602086015190945090506001600160401b03811115610350575f5ffd5b61035c8682870161025d565b92505061036b60408501610242565b90509250925092565b634e487b7160e01b5f52603260045260245ffd5b6119b7806103955f395ff3fe6080604052600436106101bd575f3560e01c80637958004c116100f2578063b1c5f42711610092578063d547741f11610062578063d547741f14610567578063e38335e514610586578063f23a6e6114610599578063f27a0c92146105c4575f5ffd5b8063b1c5f427146104d3578063bc197c81146104f2578063c4d252f51461051d578063d45c44351461053c575f5ffd5b80638f61f4f5116100cd5780638f61f4f51461043b57806391d148541461046e578063a217fddf1461048d578063b08e51c0146104a0575f5ffd5b80637958004c146103d15780638065657f146103fd5780638f2a0bb01461041c575f5ffd5b80632ab0f5291161015d57806336568abe1161013857806336568abe1461035e578063457348801461037d578063584b153e1461039357806364d62353146103b2575f5ffd5b80632ab0f529146103015780632f2ff15d1461032057806331d507501461033f575f5ffd5b8063134008d311610198578063134008d31461025e57806313bc9f2014610271578063150b7a0214610290578063248a9ca3146102d3575f5ffd5b806301d5062a146101c857806301ffc9a7146101e957806307bd02651461021d575f5ffd5b366101c457005b5f5ffd5b3480156101d3575f5ffd5b506101e76101e2366004611184565b6105d8565b005b3480156101f4575f5ffd5b506102086102033660046111f2565b6106ac565b60405190151581526020015b60405180910390f35b348015610228575f5ffd5b506102507fd8aa0f3194971a2a116679f7c2090f6939c8d4e01a2a8d7e41d55e5351469e6381565b604051908152602001610214565b6101e761026c366004611219565b6106bc565b34801561027c575f5ffd5b5061020861028b36600461127f565b61076e565b34801561029b575f5ffd5b506102ba6102aa366004611345565b630a85bd0160e11b949350505050565b6040516001600160e01b03199091168152602001610214565b3480156102de575f5ffd5b506102506102ed36600461127f565b5f9081526020819052604090206001015490565b34801561030c575f5ffd5b5061020861031b36600461127f565b610793565b34801561032b575f5ffd5b506101e761033a3660046113a8565b61079b565b34801561034a575f5ffd5b5061020861035936600461127f565b6107c5565b348015610369575f5ffd5b506101e76103783660046113a8565b6107e9565b348015610388575f5ffd5b506102506201518081565b34801561039e575f5ffd5b506102086103ad36600461127f565b610821565b3480156103bd575f5ffd5b506101e76103cc36600461127f565b610866565b3480156103dc575f5ffd5b506103f06103eb36600461127f565b6108d9565b60405161021491906113e6565b348015610408575f5ffd5b50610250610417366004611219565b610921565b348015610427575f5ffd5b506101e761043636600461144c565b61095f565b348015610446575f5ffd5b506102507fb09aa5aeb3702cfd50b6b62bc4532604938f21248a27a1d5ca736082b6819cc181565b348015610479575f5ffd5b506102086104883660046113a8565b610aeb565b348015610498575f5ffd5b506102505f81565b3480156104ab575f5ffd5b506102507ffd643c72710c63c0180259aba6b2d05451e3591a24e58b62239378085726f78381565b3480156104de575f5ffd5b506102506104ed3660046114fe565b610b13565b3480156104fd575f5ffd5b506102ba61050c366004611627565b63bc197c8160e01b95945050505050565b348015610528575f5ffd5b506101e761053736600461127f565b610b57565b348015610547575f5ffd5b5061025061055636600461127f565b5f9081526001602052604090205490565b348015610572575f5ffd5b506101e76105813660046113a8565b610c01565b6101e76105943660046114fe565b610c25565b3480156105a4575f5ffd5b506102ba6105b33660046116d3565b63f23a6e6160e01b95945050505050565b3480156105cf575f5ffd5b50600254610250565b7fb09aa5aeb3702cfd50b6b62bc4532604938f21248a27a1d5ca736082b6819cc161060281610da6565b5f610611898989898989610921565b905061061d8184610db3565b5f817f4cf4410cc57040e44862ef0f45f3dd5a5e02db8eb8add648d4b0e236f1d07dca8b8b8b8b8b8a6040516106589695949392919061174e565b60405180910390a383156106a157807f20fda5fd27a1ea7bf5b9567f143ac5470bb059374a27e8f67cb44f946f6d03878560405161069891815260200190565b60405180910390a25b505050505050505050565b5f6106b682610e44565b92915050565b7fd8aa0f3194971a2a116679f7c2090f6939c8d4e01a2a8d7e41d55e5351469e636106e7815f610aeb565b6106f5576106f58133610e68565b5f610704888888888888610921565b90506107108185610ea5565b61071c88888888610ef3565b5f817fc2617efa69bab66782fa219543714338489c4e9e178271560a91b82c3f612b588a8a8a8a604051610753949392919061178a565b60405180910390a361076481610f67565b5050505050505050565b5f60025b61077b836108d9565b600381111561078c5761078c6113d2565b1492915050565b5f6003610772565b5f828152602081905260409020600101546107b581610da6565b6107bf8383610f92565b50505050565b5f806107d0836108d9565b60038111156107e1576107e16113d2565b141592915050565b6001600160a01b03811633146108125760405163334bd91960e11b815260040160405180910390fd5b61081c8282611021565b505050565b5f5f61082c836108d9565b90506001816003811115610842576108426113d2565b148061085f5750600281600381111561085d5761085d6113d2565b145b9392505050565b333081146108975760405163e2850c5960e01b81526001600160a01b03821660048201526024015b60405180910390fd5b60025460408051918252602082018490527f11c24f4ead16507c69ac467fbd5e4eed5fb5c699626d2cc6d66421df253886d5910160405180910390a150600255565b5f81815260016020526040812054805f036108f657505f92915050565b600181036109075750600392915050565b428111156109185750600192915050565b50600292915050565b5f86868686868660405160200161093d9695949392919061174e565b6040516020818303038152906040528051906020012090509695505050505050565b7fb09aa5aeb3702cfd50b6b62bc4532604938f21248a27a1d5ca736082b6819cc161098981610da6565b88871415806109985750888514155b156109ca576040516001624fcdef60e01b03198152600481018a9052602481018690526044810188905260640161088e565b5f6109db8b8b8b8b8b8b8b8b610b13565b90506109e78184610db3565b5f5b8a811015610a9c5780827f4cf4410cc57040e44862ef0f45f3dd5a5e02db8eb8add648d4b0e236f1d07dca8e8e85818110610a2657610a266117b1565b9050602002016020810190610a3b91906117c5565b8d8d86818110610a4d57610a4d6117b1565b905060200201358c8c87818110610a6657610a666117b1565b9050602002810190610a7891906117de565b8c8b604051610a8c9695949392919061174e565b60405180910390a36001016109e9565b508315610ade57807f20fda5fd27a1ea7bf5b9567f143ac5470bb059374a27e8f67cb44f946f6d038785604051610ad591815260200190565b60405180910390a25b5050505050505050505050565b5f918252602082815260408084206001600160a01b0393909316845291905290205460ff1690565b5f8888888888888888604051602001610b339897969594939291906118b4565b60405160208183030381529060405280519060200120905098975050505050505050565b7ffd643c72710c63c0180259aba6b2d05451e3591a24e58b62239378085726f783610b8181610da6565b610b8a82610821565b610bc65781610b99600261108a565b610ba3600161108a565b604051635ead8eb560e01b8152600481019390935217602482015260440161088e565b5f828152600160205260408082208290555183917fbaa1eb22f2a492ba1a5fea61b8df4d27c6c8b5f3971e63bb58fa14ff72eedb7091a25050565b5f82815260208190526040902060010154610c1b81610da6565b6107bf8383611021565b7fd8aa0f3194971a2a116679f7c2090f6939c8d4e01a2a8d7e41d55e5351469e63610c50815f610aeb565b610c5e57610c5e8133610e68565b8786141580610c6d5750878414155b15610c9f576040516001624fcdef60e01b0319815260048101899052602481018590526044810187905260640161088e565b5f610cb08a8a8a8a8a8a8a8a610b13565b9050610cbc8185610ea5565b5f5b89811015610d90575f8b8b83818110610cd957610cd96117b1565b9050602002016020810190610cee91906117c5565b90505f8a8a84818110610d0357610d036117b1565b905060200201359050365f8a8a86818110610d2057610d206117b1565b9050602002810190610d3291906117de565b91509150610d4284848484610ef3565b84867fc2617efa69bab66782fa219543714338489c4e9e178271560a91b82c3f612b5886868686604051610d79949392919061178a565b60405180910390a350505050806001019050610cbe565b50610d9a81610f67565b50505050505050505050565b610db08133610e68565b50565b610dbc826107c5565b15610ded5781610dcb5f61108a565b604051635ead8eb560e01b81526004810192909252602482015260440161088e565b5f610df760025490565b905080821015610e2457604051635433660960e01b8152600481018390526024810182905260440161088e565b610e2e8242611953565b5f93845260016020526040909320929092555050565b5f6001600160e01b03198216630271189760e51b14806106b657506106b6826110ac565b610e728282610aeb565b610ea15760405163e2517d3f60e01b81526001600160a01b03821660048201526024810183905260440161088e565b5050565b610eae8261076e565b610ebd5781610dcb600261108a565b8015801590610ed25750610ed081610793565b155b15610ea15760405163121534c360e31b81526004810182905260240161088e565b5f5f856001600160a01b0316858585604051610f10929190611972565b5f6040518083038185875af1925050503d805f8114610f4a576040519150601f19603f3d011682016040523d82523d5f602084013e610f4f565b606091505b5091509150610f5e82826110e0565b50505050505050565b610f708161076e565b610f7f5780610dcb600261108a565b5f90815260016020819052604090912055565b5f610f9d8383610aeb565b61101a575f838152602081815260408083206001600160a01b03861684529091529020805460ff19166001179055610fd23390565b6001600160a01b0316826001600160a01b0316847f2f8788117e7eff1d82e926ec794901d17c78024a50270940304540a733656f0d60405160405180910390a45060016106b6565b505f6106b6565b5f61102c8383610aeb565b1561101a575f838152602081815260408083206001600160a01b0386168085529252808320805460ff1916905551339286917ff6391f5c32d9c69d2a47ea670b442974b53935d1edc7fd64eb21e047a839171b9190a45060016106b6565b5f81600381111561109d5761109d6113d2565b600160ff919091161b92915050565b5f6001600160e01b03198216637965db0b60e01b14806106b657506301ffc9a760e01b6001600160e01b03198316146106b6565b606082156110ef5750806106b6565b815115611104576110ff8261111d565b6106b6565b60405163d6bda27560e01b815260040160405180910390fd5b805160208201fd5b80356001600160a01b038116811461113b575f5ffd5b919050565b5f5f83601f840112611150575f5ffd5b5081356001600160401b03811115611166575f5ffd5b60208301915083602082850101111561117d575f5ffd5b9250929050565b5f5f5f5f5f5f5f60c0888a03121561119a575f5ffd5b6111a388611125565b96506020880135955060408801356001600160401b038111156111c4575f5ffd5b6111d08a828b01611140565b989b979a50986060810135976080820135975060a09091013595509350505050565b5f60208284031215611202575f5ffd5b81356001600160e01b03198116811461085f575f5ffd5b5f5f5f5f5f5f60a0878903121561122e575f5ffd5b61123787611125565b95506020870135945060408701356001600160401b03811115611258575f5ffd5b61126489828a01611140565b979a9699509760608101359660809091013595509350505050565b5f6020828403121561128f575f5ffd5b5035919050565b634e487b7160e01b5f52604160045260245ffd5b604051601f8201601f191681016001600160401b03811182821017156112d2576112d2611296565b604052919050565b5f82601f8301126112e9575f5ffd5b81356001600160401b0381111561130257611302611296565b611315601f8201601f19166020016112aa565b818152846020838601011115611329575f5ffd5b816020850160208301375f918101602001919091529392505050565b5f5f5f5f60808587031215611358575f5ffd5b61136185611125565b935061136f60208601611125565b92506040850135915060608501356001600160401b03811115611390575f5ffd5b61139c878288016112da565b91505092959194509250565b5f5f604083850312156113b9575f5ffd5b823591506113c960208401611125565b90509250929050565b634e487b7160e01b5f52602160045260245ffd5b602081016004831061140657634e487b7160e01b5f52602160045260245ffd5b91905290565b5f5f83601f84011261141c575f5ffd5b5081356001600160401b03811115611432575f5ffd5b6020830191508360208260051b850101111561117d575f5ffd5b5f5f5f5f5f5f5f5f5f60c08a8c031215611464575f5ffd5b89356001600160401b03811115611479575f5ffd5b6114858c828d0161140c565b909a5098505060208a01356001600160401b038111156114a3575f5ffd5b6114af8c828d0161140c565b90985096505060408a01356001600160401b038111156114cd575f5ffd5b6114d98c828d0161140c565b9a9d999c50979a969997986060880135976080810135975060a0013595509350505050565b5f5f5f5f5f5f5f5f60a0898b031215611515575f5ffd5b88356001600160401b0381111561152a575f5ffd5b6115368b828c0161140c565b90995097505060208901356001600160401b03811115611554575f5ffd5b6115608b828c0161140c565b90975095505060408901356001600160401b0381111561157e575f5ffd5b61158a8b828c0161140c565b999c989b509699959896976060870135966080013595509350505050565b5f82601f8301126115b7575f5ffd5b81356001600160401b038111156115d0576115d0611296565b8060051b6115e0602082016112aa565b918252602081850181019290810190868411156115fb575f5ffd5b6020860192505b8383101561161d578235825260209283019290910190611602565b9695505050505050565b5f5f5f5f5f60a0868803121561163b575f5ffd5b61164486611125565b945061165260208701611125565b935060408601356001600160401b0381111561166c575f5ffd5b611678888289016115a8565b93505060608601356001600160401b03811115611693575f5ffd5b61169f888289016115a8565b92505060808601356001600160401b038111156116ba575f5ffd5b6116c6888289016112da565b9150509295509295909350565b5f5f5f5f5f60a086880312156116e7575f5ffd5b6116f086611125565b94506116fe60208701611125565b9350604086013592506060860135915060808601356001600160401b038111156116ba575f5ffd5b81835281816020850137505f828201602090810191909152601f909101601f19169091010190565b60018060a01b038716815285602082015260a060408201525f61177560a083018688611726565b60608301949094525060800152949350505050565b60018060a01b0385168152836020820152606060408201525f61161d606083018486611726565b634e487b7160e01b5f52603260045260245ffd5b5f602082840312156117d5575f5ffd5b61085f82611125565b5f5f8335601e198436030181126117f3575f5ffd5b8301803591506001600160401b0382111561180c575f5ffd5b60200191503681900382131561117d575f5ffd5b5f8383855260208501945060208460051b820101835f5b868110156118a857838303601f19018852813536879003601e1901811261185c575f5ffd5b86016020810190356001600160401b03811115611877575f5ffd5b803603821315611885575f5ffd5b611890858284611726565b60209a8b019a90955093909301925050600101611837565b50909695505050505050565b60a080825281018890525f8960c08301825b8b8110156118f4576001600160a01b036118df84611125565b168252602092830192909101906001016118c6565b5083810360208501528881526001600160fb1b03891115611913575f5ffd5b8860051b9150818a6020830137018281036020908101604085015261193b9082018789611820565b60608401959095525050608001529695505050505050565b808201808211156106b657634e487b7160e01b5f52601160045260245ffd5b818382375f910190815291905056fea264697066735822122048aaf92ffd83afa0712a4961713ecdf841d98f3dc15f799d483108c552e786e864736f6c634300081c0033","linkReferences":{}},"methodIdentifiers":{"CANCELLER_ROLE()":"b08e51c0","DEFAULT_ADMIN_ROLE()":"a217fddf","DEFAULT_MIN_DELAY()":"45734880","EXECUTOR_ROLE()":"07bd0265","PROPOSER_ROLE()":"8f61f4f5","cancel(bytes32)":"c4d252f5","execute(address,uint256,bytes,bytes32,bytes32)":"134008d3","executeBatch(address[],uint256[],bytes[],bytes32,bytes32)":"e38335e5","getMinDelay()":"f27a0c92","getOperationState(bytes32)":"7958004c","getRoleAdmin(bytes32)":"248a9ca3","getTimestamp(bytes32)":"d45c4435","grantRole(bytes32,address)":"2f2ff15d","hasRole(bytes32,address)":"91d14854","hashOperation(address,uint256,bytes,bytes32,bytes32)":"8065657f","hashOperationBatch(address[],uint256[],bytes[],bytes32,bytes32)":"b1c5f427","isOperation(bytes32)":"31d50750","isOperationDone(bytes32)":"2ab0f529","isOperationPending(bytes32)":"584b153e","isOperationReady(bytes32)":"13bc9f20","onERC1155BatchReceived(address,address,uint256[],uint256[],bytes)":"bc197c81","onERC1155Received(address,address,uint256,uint256,bytes)":"f23a6e61","onERC721Received(address,address,uint256,bytes)":"150b7a02","renounceRole(bytes32,address)":"36568abe","revokeRole(bytes32,address)":"d547741f","schedule(address,uint256,bytes,bytes32,bytes32,uint256)":"01d5062a","scheduleBatch(address[],uint256[],bytes[],bytes32,bytes32,uint256)":"8f2a0bb0","supportsInterface(bytes4)":"01ffc9a7","updateDelay(uint256)":"64d62353"},"id":64}