{"abi":[{"type":"constructor","inputs":[{"name":"_token","type":"address","internalType":"address"},{"name":"_beneficiary","type":"address","internalType":"address"},{"name":"_totalAllocation","type":"uint256","internalType":"uint256"},{"name":"_startTime","type":"uint256","internalType":"uint256"},{"name":"_cliffDuration","type":"uint256","internalType":"uint256"},{"name":"_vestingDuration","type":"uint256","internalType":"uint256"},{"name":"_owner","type":"address","internalType":"address"}],"stateMutability":"nonpayable"},{"type":"function","name":"beneficiary","inputs":[],"outputs":[{"name":"","type":"address","internalType":"address"}],"stateMutability":"view"},{"type":"function","name":"claim","inputs":[],"outputs":[],"stateMutability":"nonpayable"},{"type":"function","name":"claimable","inputs":[],"outputs":[{"name":"","type":"uint256","internalType":"uint256"}],"stateMutability":"view"},{"type":"function","name":"claimed","inputs":[],"outputs":[{"name":"","type":"uint256","internalType":"uint256"}],"stateMutability":"view"},{"type":"function","name":"cliffDuration","inputs":[],"outputs":[{"name":"","type":"uint256","internalType":"uint256"}],"stateMutability":"view"},{"type":"function","name":"owner","inputs":[],"outputs":[{"name":"","type":"address","internalType":"address"}],"stateMutability":"view"},{"type":"function","name":"renounceOwnership","inputs":[],"outputs":[],"stateMutability":"nonpayable"},{"type":"function","name":"revoke","inputs":[],"outputs":[],"stateMutability":"nonpayable"},{"type":"function","name":"revoked","inputs":[],"outputs":[{"name":"","type":"bool","internalType":"bool"}],"stateMutability":"view"},{"type":"function","name":"scheduleInfo","inputs":[],"outputs":[{"name":"_beneficiary","type":"address","internalType":"address"},{"name":"_totalAllocation","type":"uint256","internalType":"uint256"},{"name":"_claimed","type":"uint256","internalType":"uint256"},{"name":"_claimable","type":"uint256","internalType":"uint256"},{"name":"_unvested","type":"uint256","internalType":"uint256"},{"name":"_startTime","type":"uint256","internalType":"uint256"},{"name":"_cliffEnd","type":"uint256","internalType":"uint256"},{"name":"_vestingEnd","type":"uint256","internalType":"uint256"},{"name":"_revoked","type":"bool","internalType":"bool"}],"stateMutability":"view"},{"type":"function","name":"startTime","inputs":[],"outputs":[{"name":"","type":"uint256","internalType":"uint256"}],"stateMutability":"view"},{"type":"function","name":"token","inputs":[],"outputs":[{"name":"","type":"address","internalType":"contract IERC20"}],"stateMutability":"view"},{"type":"function","name":"totalAllocation","inputs":[],"outputs":[{"name":"","type":"uint256","internalType":"uint256"}],"stateMutability":"view"},{"type":"function","name":"transferOwnership","inputs":[{"name":"newOwner","type":"address","internalType":"address"}],"outputs":[],"stateMutability":"nonpayable"},{"type":"function","name":"unvested","inputs":[],"outputs":[{"name":"","type":"uint256","internalType":"uint256"}],"stateMutability":"view"},{"type":"function","name":"vestedAmount","inputs":[],"outputs":[{"name":"","type":"uint256","internalType":"uint256"}],"stateMutability":"view"},{"type":"function","name":"vestedAtRevoke","inputs":[],"outputs":[{"name":"","type":"uint256","internalType":"uint256"}],"stateMutability":"view"},{"type":"function","name":"vestingDuration","inputs":[],"outputs":[{"name":"","type":"uint256","internalType":"uint256"}],"stateMutability":"view"},{"type":"event","name":"OwnershipTransferred","inputs":[{"name":"previousOwner","type":"address","indexed":true,"internalType":"address"},{"name":"newOwner","type":"address","indexed":true,"internalType":"address"}],"anonymous":false},{"type":"event","name":"TokensClaimed","inputs":[{"name":"beneficiary","type":"address","indexed":true,"internalType":"address"},{"name":"amount","type":"uint256","indexed":false,"internalType":"uint256"},{"name":"timestamp","type":"uint256","indexed":false,"internalType":"uint256"}],"anonymous":false},{"type":"event","name":"VestingRevoked","inputs":[{"name":"beneficiary","type":"address","indexed":true,"internalType":"address"},{"name":"unvestedReturned","type":"uint256","indexed":false,"internalType":"uint256"},{"name":"timestamp","type":"uint256","indexed":false,"internalType":"uint256"}],"anonymous":false},{"type":"error","name":"OwnableInvalidOwner","inputs":[{"name":"owner","type":"address","internalType":"address"}]},{"type":"error","name":"OwnableUnauthorizedAccount","inputs":[{"name":"account","type":"address","internalType":"address"}]},{"type":"error","name":"SafeERC20FailedOperation","inputs":[{"name":"token","type":"address","internalType":"address"}]}],"bytecode":{"object":"0x60a060405234801561000f575f5ffd5b50604051610b92380380610b9283398101604081905261002e916102a9565b806001600160a01b03811661005d57604051631e4fbdf760e01b81525f60048201526024015b60405180910390fd5b6100668161023f565b506001600160a01b0387166100bd5760405162461bcd60e51b815260206004820152601360248201527f56657374696e673a207a65726f20746f6b656e000000000000000000000000006044820152606401610054565b6001600160a01b0386166101135760405162461bcd60e51b815260206004820152601960248201527f56657374696e673a207a65726f2062656e6566696369617279000000000000006044820152606401610054565b5f85116101625760405162461bcd60e51b815260206004820152601860248201527f56657374696e673a207a65726f20616c6c6f636174696f6e00000000000000006044820152606401610054565b8282116101b15760405162461bcd60e51b815260206004820152601a60248201527f56657374696e673a20636c696666203e3d206475726174696f6e0000000000006044820152606401610054565b5f84116102005760405162461bcd60e51b815260206004820152601360248201527f56657374696e673a207a65726f207374617274000000000000000000000000006044820152606401610054565b506001600160a01b03958616608052600180546001600160a01b0319169590961694909417909455600291909155600455600591909155600655610310565b5f80546001600160a01b038381166001600160a01b0319831681178455604051919092169283917f8be0079c531659141344cd1fd0a4f28419497f9722a3daafe3b4186f6b6457e09190a35050565b80516001600160a01b03811681146102a4575f5ffd5b919050565b5f5f5f5f5f5f5f60e0888a0312156102bf575f5ffd5b6102c88861028e565b96506102d66020890161028e565b604089015160608a015160808b015160a08c015193995091975095509350915061030260c0890161028e565b905092959891949750929550565b60805161085c6103365f395f8181610258015281816103d901526105a7015261085c5ff3fe608060405234801561000f575f5ffd5b5060043610610111575f3560e01c80638da5cb5b1161009e578063d85349f71161006e578063d85349f714610226578063da919faa1461022f578063e834a83414610237578063f2fde38b14610240578063fc0c546a14610253575f5ffd5b80638da5cb5b146101fd578063af38d7571461020d578063b6549f7514610215578063c8815f091461021d575f5ffd5b806363d256ce116100e457806363d256ce1461016e5780636aa580ec1461018b578063715018a6146101e357806378e97925146101eb57806379203dc4146101f4575f5ffd5b80631514617e1461011557806338af3eed1461013157806344b1231f1461015c5780634e71d92d14610164575b5f5ffd5b61011e60065481565b6040519081526020015b60405180910390f35b600154610144906001600160a01b031681565b6040516001600160a01b039091168152602001610128565b61011e61027a565b61016c6102f9565b005b60075461017b9060ff1681565b6040519015158152602001610128565b61019361044c565b604080516001600160a01b03909a168a5260208a0198909852968801959095526060870193909352608086019190915260a085015260c084015260e0830152151561010082015261012001610128565b61016c6104cc565b61011e60045481565b61011e60025481565b5f546001600160a01b0316610144565b61011e6104df565b61016c6104fa565b61011e60085481565b61011e60055481565b61011e610619565b61011e60035481565b61016c61024e366004610783565b61062f565b6101447f000000000000000000000000000000000000000000000000000000000000000081565b6007545f9060ff161561028e575060085490565b60055460045461029e91906107c4565b4210156102aa57505f90565b6006546004546102ba91906107c4565b42106102c7575060025490565b5f600454426102d691906107dd565b9050600654816002546102e991906107f0565b6102f39190610807565b91505090565b6001546001600160a01b031633146103585760405162461bcd60e51b815260206004820152601860248201527f56657374696e673a206e6f742062656e6566696369617279000000000000000060448201526064015b60405180910390fd5b5f6103616104df565b90505f81116103b25760405162461bcd60e51b815260206004820152601960248201527f56657374696e673a206e6f7468696e6720746f20636c61696d00000000000000604482015260640161034f565b8060035f8282546103c391906107c4565b9091555050600154610402906001600160a01b037f0000000000000000000000000000000000000000000000000000000000000000811691168361066c565b600154604080518381524260208201526001600160a01b03909216917f9923b4306c6c030f2bdfbf156517d5983b87e15b96176da122cd4f2effa4ba7b910160405180910390a250565b5f5f5f5f5f5f5f5f5f60015f9054906101000a90046001600160a01b03166002546003546104786104df565b610480610619565b60045460055461049090826107c4565b6006546004546104a091906107c4565b60075f9054906101000a900460ff16985098509850985098509850985098509850909192939495969798565b6104d46106a6565b6104dd5f6106d2565b565b5f6003546104eb61027a565b6104f591906107dd565b905090565b6105026106a6565b60075460ff16156105555760405162461bcd60e51b815260206004820152601860248201527f56657374696e673a20616c7265616479207265766f6b65640000000000000000604482015260640161034f565b5f61055e61027a565b90505f8160025461056f91906107dd565b60088390556007805460ff19166001179055905080156105ce576105ce61059d5f546001600160a01b031690565b6001600160a01b037f000000000000000000000000000000000000000000000000000000000000000016908361066c565b600154604080518381524260208201526001600160a01b03909216917febe4c59724de32494ac2dc26d066e582e9737a6abe9f796bfb8a43f9fde516f7910160405180910390a25050565b5f61062261027a565b6002546104f591906107dd565b6106376106a6565b6001600160a01b03811661066057604051631e4fbdf760e01b81525f600482015260240161034f565b610669816106d2565b50565b6106798383836001610721565b6106a157604051635274afe760e01b81526001600160a01b038416600482015260240161034f565b505050565b5f546001600160a01b031633146104dd5760405163118cdaa760e01b815233600482015260240161034f565b5f80546001600160a01b038381166001600160a01b0319831681178455604051919092169283917f8be0079c531659141344cd1fd0a4f28419497f9722a3daafe3b4186f6b6457e09190a35050565b60405163a9059cbb60e01b5f8181526001600160a01b038616600452602485905291602083604481808b5af1925060015f5114831661077757838315161561076b573d5f823e3d81fd5b5f873b113d1516831692505b60405250949350505050565b5f60208284031215610793575f5ffd5b81356001600160a01b03811681146107a9575f5ffd5b9392505050565b634e487b7160e01b5f52601160045260245ffd5b808201808211156107d7576107d76107b0565b92915050565b818103818111156107d7576107d76107b0565b80820281158282048414176107d7576107d76107b0565b5f8261082157634e487b7160e01b5f52601260045260245ffd5b50049056fea2646970667358221220cebb3000f4f69bf9740b41bd46aa8475331db16f8fc7e10a3ead85a48633da9864736f6c634300081c0033","linkReferences":{}},"methodIdentifiers":{"beneficiary()":"38af3eed","claim()":"4e71d92d","claimable()":"af38d757","claimed()":"e834a834","cliffDuration()":"d85349f7","owner()":"8da5cb5b","renounceOwnership()":"715018a6","revoke()":"b6549f75","revoked()":"63d256ce","scheduleInfo()":"6aa580ec","startTime()":"78e97925","token()":"fc0c546a","totalAllocation()":"79203dc4","transferOwnership(address)":"f2fde38b","unvested()":"da919faa","vestedAmount()":"44b1231f","vestedAtRevoke()":"c8815f09","vestingDuration()":"1514617e"},"id":66}