{"abi":[{"type":"constructor","inputs":[{"name":"_asset","type":"address","internalType":"address"},{"name":"_owner","type":"address","internalType":"address"},{"name":"_operator","type":"address","internalType":"address"},{"name":"_feeCollector","type":"address","internalType":"address"},{"name":"_lockUpDays","type":"uint256","internalType":"uint256"}],"stateMutability":"nonpayable"},{"type":"function","name":"BPS_DENOMINATOR","inputs":[],"outputs":[{"name":"","type":"uint256","internalType":"uint256"}],"stateMutability":"view"},{"type":"function","name":"INITIAL_SHARE_PRICE","inputs":[],"outputs":[{"name":"","type":"uint256","internalType":"uint256"}],"stateMutability":"view"},{"type":"function","name":"PRECISION","inputs":[],"outputs":[{"name":"","type":"uint256","internalType":"uint256"}],"stateMutability":"view"},{"type":"function","name":"allowance","inputs":[{"name":"owner","type":"address","internalType":"address"},{"name":"spender","type":"address","internalType":"address"}],"outputs":[{"name":"","type":"uint256","internalType":"uint256"}],"stateMutability":"view"},{"type":"function","name":"approve","inputs":[{"name":"spender","type":"address","internalType":"address"},{"name":"value","type":"uint256","internalType":"uint256"}],"outputs":[{"name":"","type":"bool","internalType":"bool"}],"stateMutability":"nonpayable"},{"type":"function","name":"asset","inputs":[],"outputs":[{"name":"","type":"address","internalType":"contract IERC20"}],"stateMutability":"view"},{"type":"function","name":"balanceOf","inputs":[{"name":"account","type":"address","internalType":"address"}],"outputs":[{"name":"","type":"uint256","internalType":"uint256"}],"stateMutability":"view"},{"type":"function","name":"cancelWithdrawal","inputs":[{"name":"queueId","type":"uint256","internalType":"uint256"}],"outputs":[],"stateMutability":"nonpayable"},{"type":"function","name":"currentNAV","inputs":[],"outputs":[{"name":"","type":"uint256","internalType":"uint256"}],"stateMutability":"view"},{"type":"function","name":"decimals","inputs":[],"outputs":[{"name":"","type":"uint8","internalType":"uint8"}],"stateMutability":"pure"},{"type":"function","name":"deposit","inputs":[{"name":"usdcAmount","type":"uint256","internalType":"uint256"}],"outputs":[],"stateMutability":"nonpayable"},{"type":"function","name":"depositsPaused","inputs":[],"outputs":[{"name":"","type":"bool","internalType":"bool"}],"stateMutability":"view"},{"type":"function","name":"emergencyTimelockDays","inputs":[],"outputs":[{"name":"","type":"uint256","internalType":"uint256"}],"stateMutability":"view"},{"type":"function","name":"emergencyWithdraw","inputs":[],"outputs":[],"stateMutability":"nonpayable"},{"type":"function","name":"feeCollector","inputs":[],"outputs":[{"name":"","type":"address","internalType":"address"}],"stateMutability":"view"},{"type":"function","name":"getUserPendingWithdrawals","inputs":[{"name":"user","type":"address","internalType":"address"}],"outputs":[{"name":"","type":"uint256[]","internalType":"uint256[]"}],"stateMutability":"view"},{"type":"function","name":"lastDepositTime","inputs":[{"name":"","type":"address","internalType":"address"}],"outputs":[{"name":"","type":"uint256","internalType":"uint256"}],"stateMutability":"view"},{"type":"function","name":"lastNAVUpdateTime","inputs":[],"outputs":[{"name":"","type":"uint256","internalType":"uint256"}],"stateMutability":"view"},{"type":"function","name":"lockUpPeriod","inputs":[],"outputs":[{"name":"","type":"uint256","internalType":"uint256"}],"stateMutability":"view"},{"type":"function","name":"maxDeposit","inputs":[],"outputs":[{"name":"","type":"uint256","internalType":"uint256"}],"stateMutability":"view"},{"type":"function","name":"maxUserDeposit","inputs":[],"outputs":[{"name":"","type":"uint256","internalType":"uint256"}],"stateMutability":"view"},{"type":"function","name":"minDeposit","inputs":[],"outputs":[{"name":"","type":"uint256","internalType":"uint256"}],"stateMutability":"view"},{"type":"function","name":"name","inputs":[],"outputs":[{"name":"","type":"string","internalType":"string"}],"stateMutability":"view"},{"type":"function","name":"navUpdateCount","inputs":[],"outputs":[{"name":"","type":"uint256","internalType":"uint256"}],"stateMutability":"view"},{"type":"function","name":"nextQueueId","inputs":[],"outputs":[{"name":"","type":"uint256","internalType":"uint256"}],"stateMutability":"view"},{"type":"function","name":"operator","inputs":[],"outputs":[{"name":"","type":"address","internalType":"address"}],"stateMutability":"view"},{"type":"function","name":"owner","inputs":[],"outputs":[{"name":"","type":"address","internalType":"address"}],"stateMutability":"view"},{"type":"function","name":"pause","inputs":[],"outputs":[],"stateMutability":"nonpayable"},{"type":"function","name":"pauseDeposits","inputs":[],"outputs":[],"stateMutability":"nonpayable"},{"type":"function","name":"pauseWithdrawals","inputs":[],"outputs":[],"stateMutability":"nonpayable"},{"type":"function","name":"paused","inputs":[],"outputs":[{"name":"","type":"bool","internalType":"bool"}],"stateMutability":"view"},{"type":"function","name":"pricePerShare","inputs":[],"outputs":[{"name":"","type":"uint256","internalType":"uint256"}],"stateMutability":"view"},{"type":"function","name":"processQueuedWithdrawal","inputs":[{"name":"queueId","type":"uint256","internalType":"uint256"}],"outputs":[],"stateMutability":"nonpayable"},{"type":"function","name":"renounceOwnership","inputs":[],"outputs":[],"stateMutability":"nonpayable"},{"type":"function","name":"setDepositLimits","inputs":[{"name":"_min","type":"uint256","internalType":"uint256"},{"name":"_max","type":"uint256","internalType":"uint256"},{"name":"_maxUser","type":"uint256","internalType":"uint256"}],"outputs":[],"stateMutability":"nonpayable"},{"type":"function","name":"setEmergencyTimelockDays","inputs":[{"name":"_days","type":"uint256","internalType":"uint256"}],"outputs":[],"stateMutability":"nonpayable"},{"type":"function","name":"setFeeCollector","inputs":[{"name":"_feeCollector","type":"address","internalType":"address"}],"outputs":[],"stateMutability":"nonpayable"},{"type":"function","name":"setLockUpPeriod","inputs":[{"name":"_days","type":"uint256","internalType":"uint256"}],"outputs":[],"stateMutability":"nonpayable"},{"type":"function","name":"setOperator","inputs":[{"name":"_operator","type":"address","internalType":"address"}],"outputs":[],"stateMutability":"nonpayable"},{"type":"function","name":"symbol","inputs":[],"outputs":[{"name":"","type":"string","internalType":"string"}],"stateMutability":"view"},{"type":"function","name":"totalAssets","inputs":[],"outputs":[{"name":"","type":"uint256","internalType":"uint256"}],"stateMutability":"view"},{"type":"function","name":"totalDeployedCapital","inputs":[],"outputs":[{"name":"","type":"uint256","internalType":"uint256"}],"stateMutability":"view"},{"type":"function","name":"totalDeposited","inputs":[],"outputs":[{"name":"","type":"uint256","internalType":"uint256"}],"stateMutability":"view"},{"type":"function","name":"totalSupply","inputs":[],"outputs":[{"name":"","type":"uint256","internalType":"uint256"}],"stateMutability":"view"},{"type":"function","name":"totalValueLocked","inputs":[],"outputs":[{"name":"","type":"uint256","internalType":"uint256"}],"stateMutability":"view"},{"type":"function","name":"totalWithdrawn","inputs":[],"outputs":[{"name":"","type":"uint256","internalType":"uint256"}],"stateMutability":"view"},{"type":"function","name":"transfer","inputs":[{"name":"to","type":"address","internalType":"address"},{"name":"value","type":"uint256","internalType":"uint256"}],"outputs":[{"name":"","type":"bool","internalType":"bool"}],"stateMutability":"nonpayable"},{"type":"function","name":"transferFrom","inputs":[{"name":"from","type":"address","internalType":"address"},{"name":"to","type":"address","internalType":"address"},{"name":"value","type":"uint256","internalType":"uint256"}],"outputs":[{"name":"","type":"bool","internalType":"bool"}],"stateMutability":"nonpayable"},{"type":"function","name":"transferOwnership","inputs":[{"name":"newOwner","type":"address","internalType":"address"}],"outputs":[],"stateMutability":"nonpayable"},{"type":"function","name":"unpause","inputs":[],"outputs":[],"stateMutability":"nonpayable"},{"type":"function","name":"unpauseDeposits","inputs":[],"outputs":[],"stateMutability":"nonpayable"},{"type":"function","name":"unpauseWithdrawals","inputs":[],"outputs":[],"stateMutability":"nonpayable"},{"type":"function","name":"updateNAV","inputs":[{"name":"newNAV","type":"uint256","internalType":"uint256"}],"outputs":[],"stateMutability":"nonpayable"},{"type":"function","name":"userDeposited","inputs":[{"name":"","type":"address","internalType":"address"}],"outputs":[{"name":"","type":"uint256","internalType":"uint256"}],"stateMutability":"view"},{"type":"function","name":"userPendingWithdrawals","inputs":[{"name":"","type":"address","internalType":"address"},{"name":"","type":"uint256","internalType":"uint256"}],"outputs":[{"name":"","type":"uint256","internalType":"uint256"}],"stateMutability":"view"},{"type":"function","name":"userValue","inputs":[{"name":"user","type":"address","internalType":"address"}],"outputs":[{"name":"","type":"uint256","internalType":"uint256"}],"stateMutability":"view"},{"type":"function","name":"vaultStatus","inputs":[],"outputs":[{"name":"_nav","type":"uint256","internalType":"uint256"},{"name":"_pricePerShare","type":"uint256","internalType":"uint256"},{"name":"_totalShares","type":"uint256","internalType":"uint256"},{"name":"_vaultBalance","type":"uint256","internalType":"uint256"},{"name":"_deployedCapital","type":"uint256","internalType":"uint256"},{"name":"_totalDeposited","type":"uint256","internalType":"uint256"},{"name":"_totalWithdrawn","type":"uint256","internalType":"uint256"},{"name":"_lastNAVUpdate","type":"uint256","internalType":"uint256"},{"name":"_navUpdateCount","type":"uint256","internalType":"uint256"},{"name":"_depositsPaused","type":"bool","internalType":"bool"},{"name":"_withdrawalsPaused","type":"bool","internalType":"bool"}],"stateMutability":"view"},{"type":"function","name":"withdraw","inputs":[{"name":"shares","type":"uint256","internalType":"uint256"}],"outputs":[],"stateMutability":"nonpayable"},{"type":"function","name":"withdrawalPauseTimelock","inputs":[],"outputs":[{"name":"","type":"uint256","internalType":"uint256"}],"stateMutability":"view"},{"type":"function","name":"withdrawalPauseTimestamp","inputs":[],"outputs":[{"name":"","type":"uint256","internalType":"uint256"}],"stateMutability":"view"},{"type":"function","name":"withdrawalQueue","inputs":[{"name":"","type":"uint256","internalType":"uint256"}],"outputs":[{"name":"user","type":"address","internalType":"address"},{"name":"shares","type":"uint256","internalType":"uint256"},{"name":"usdcAmount","type":"uint256","internalType":"uint256"},{"name":"requestedAt","type":"uint256","internalType":"uint256"},{"name":"processed","type":"bool","internalType":"bool"},{"name":"cancelled","type":"bool","internalType":"bool"}],"stateMutability":"view"},{"type":"function","name":"withdrawalsPaused","inputs":[],"outputs":[{"name":"","type":"bool","internalType":"bool"}],"stateMutability":"view"},{"type":"event","name":"Approval","inputs":[{"name":"owner","type":"address","indexed":true,"internalType":"address"},{"name":"spender","type":"address","indexed":true,"internalType":"address"},{"name":"value","type":"uint256","indexed":false,"internalType":"uint256"}],"anonymous":false},{"type":"event","name":"DepositLimitsUpdated","inputs":[{"name":"minDeposit","type":"uint256","indexed":false,"internalType":"uint256"},{"name":"maxDeposit","type":"uint256","indexed":false,"internalType":"uint256"},{"name":"maxUserDeposit","type":"uint256","indexed":false,"internalType":"uint256"}],"anonymous":false},{"type":"event","name":"Deposited","inputs":[{"name":"user","type":"address","indexed":true,"internalType":"address"},{"name":"usdcAmount","type":"uint256","indexed":false,"internalType":"uint256"},{"name":"sharesMinted","type":"uint256","indexed":false,"internalType":"uint256"},{"name":"pricePerShare","type":"uint256","indexed":false,"internalType":"uint256"},{"name":"nav","type":"uint256","indexed":false,"internalType":"uint256"},{"name":"timestamp","type":"uint256","indexed":false,"internalType":"uint256"}],"anonymous":false},{"type":"event","name":"DepositsPaused","inputs":[{"name":"timestamp","type":"uint256","indexed":false,"internalType":"uint256"}],"anonymous":false},{"type":"event","name":"DepositsUnpaused","inputs":[{"name":"timestamp","type":"uint256","indexed":false,"internalType":"uint256"}],"anonymous":false},{"type":"event","name":"EmergencyWithdrawal","inputs":[{"name":"user","type":"address","indexed":true,"internalType":"address"},{"name":"amount","type":"uint256","indexed":false,"internalType":"uint256"},{"name":"timestamp","type":"uint256","indexed":false,"internalType":"uint256"}],"anonymous":false},{"type":"event","name":"FeeCollectorUpdated","inputs":[{"name":"oldCollector","type":"address","indexed":false,"internalType":"address"},{"name":"newCollector","type":"address","indexed":false,"internalType":"address"}],"anonymous":false},{"type":"event","name":"LockUpPeriodUpdated","inputs":[{"name":"oldPeriod","type":"uint256","indexed":false,"internalType":"uint256"},{"name":"newPeriod","type":"uint256","indexed":false,"internalType":"uint256"}],"anonymous":false},{"type":"event","name":"NAVUpdated","inputs":[{"name":"updateNumber","type":"uint256","indexed":true,"internalType":"uint256"},{"name":"oldNAV","type":"uint256","indexed":false,"internalType":"uint256"},{"name":"newNAV","type":"uint256","indexed":false,"internalType":"uint256"},{"name":"pricePerShare","type":"uint256","indexed":false,"internalType":"uint256"},{"name":"operator","type":"address","indexed":false,"internalType":"address"},{"name":"timestamp","type":"uint256","indexed":false,"internalType":"uint256"}],"anonymous":false},{"type":"event","name":"OperatorUpdated","inputs":[{"name":"oldOperator","type":"address","indexed":false,"internalType":"address"},{"name":"newOperator","type":"address","indexed":false,"internalType":"address"}],"anonymous":false},{"type":"event","name":"OwnershipTransferred","inputs":[{"name":"previousOwner","type":"address","indexed":true,"internalType":"address"},{"name":"newOwner","type":"address","indexed":true,"internalType":"address"}],"anonymous":false},{"type":"event","name":"Paused","inputs":[{"name":"account","type":"address","indexed":false,"internalType":"address"}],"anonymous":false},{"type":"event","name":"Transfer","inputs":[{"name":"from","type":"address","indexed":true,"internalType":"address"},{"name":"to","type":"address","indexed":true,"internalType":"address"},{"name":"value","type":"uint256","indexed":false,"internalType":"uint256"}],"anonymous":false},{"type":"event","name":"Unpaused","inputs":[{"name":"account","type":"address","indexed":false,"internalType":"address"}],"anonymous":false},{"type":"event","name":"WithdrawalCancelled","inputs":[{"name":"queueId","type":"uint256","indexed":true,"internalType":"uint256"},{"name":"user","type":"address","indexed":true,"internalType":"address"},{"name":"timestamp","type":"uint256","indexed":false,"internalType":"uint256"}],"anonymous":false},{"type":"event","name":"WithdrawalProcessed","inputs":[{"name":"queueId","type":"uint256","indexed":true,"internalType":"uint256"},{"name":"user","type":"address","indexed":true,"internalType":"address"},{"name":"usdcAmount","type":"uint256","indexed":false,"internalType":"uint256"},{"name":"timestamp","type":"uint256","indexed":false,"internalType":"uint256"}],"anonymous":false},{"type":"event","name":"WithdrawalQueued","inputs":[{"name":"queueId","type":"uint256","indexed":true,"internalType":"uint256"},{"name":"user","type":"address","indexed":true,"internalType":"address"},{"name":"shares","type":"uint256","indexed":false,"internalType":"uint256"},{"name":"usdcAmount","type":"uint256","indexed":false,"internalType":"uint256"},{"name":"timestamp","type":"uint256","indexed":false,"internalType":"uint256"}],"anonymous":false},{"type":"event","name":"WithdrawalsPaused","inputs":[{"name":"timestamp","type":"uint256","indexed":false,"internalType":"uint256"}],"anonymous":false},{"type":"event","name":"WithdrawalsUnpaused","inputs":[{"name":"timestamp","type":"uint256","indexed":false,"internalType":"uint256"}],"anonymous":false},{"type":"event","name":"Withdrawn","inputs":[{"name":"user","type":"address","indexed":true,"internalType":"address"},{"name":"usdcAmount","type":"uint256","indexed":false,"internalType":"uint256"},{"name":"sharesBurned","type":"uint256","indexed":false,"internalType":"uint256"},{"name":"pricePerShare","type":"uint256","indexed":false,"internalType":"uint256"},{"name":"nav","type":"uint256","indexed":false,"internalType":"uint256"},{"name":"timestamp","type":"uint256","indexed":false,"internalType":"uint256"}],"anonymous":false},{"type":"error","name":"ERC20InsufficientAllowance","inputs":[{"name":"spender","type":"address","internalType":"address"},{"name":"allowance","type":"uint256","internalType":"uint256"},{"name":"needed","type":"uint256","internalType":"uint256"}]},{"type":"error","name":"ERC20InsufficientBalance","inputs":[{"name":"sender","type":"address","internalType":"address"},{"name":"balance","type":"uint256","internalType":"uint256"},{"name":"needed","type":"uint256","internalType":"uint256"}]},{"type":"error","name":"ERC20InvalidApprover","inputs":[{"name":"approver","type":"address","internalType":"address"}]},{"type":"error","name":"ERC20InvalidReceiver","inputs":[{"name":"receiver","type":"address","internalType":"address"}]},{"type":"error","name":"ERC20InvalidSender","inputs":[{"name":"sender","type":"address","internalType":"address"}]},{"type":"error","name":"ERC20InvalidSpender","inputs":[{"name":"spender","type":"address","internalType":"address"}]},{"type":"error","name":"EnforcedPause","inputs":[]},{"type":"error","name":"ExpectedPause","inputs":[]},{"type":"error","name":"OwnableInvalidOwner","inputs":[{"name":"owner","type":"address","internalType":"address"}]},{"type":"error","name":"OwnableUnauthorizedAccount","inputs":[{"name":"account","type":"address","internalType":"address"}]},{"type":"error","name":"ReentrancyGuardReentrantCall","inputs":[]},{"type":"error","name":"SafeERC20FailedOperation","inputs":[{"name":"token","type":"address","internalType":"address"}]}],"bytecode":{"object":"0x60a060405234801561000f575f5ffd5b50604051612c20380380612c2083398101604081905261002e916102da565b836040518060400160405280601481526020017f536f7665726569676e205661756c7420555344430000000000000000000000008152506040518060400160405280600681526020016573765553444360d01b815250816003908161009391906103cc565b5060046100a082826103cc565b5050506001600160a01b0381166100d157604051631e4fbdf760e01b81525f60048201526024015b60405180910390fd5b6100da8161026e565b5060017f9b779b17422d0df92223018b32b4d1fa46e071723d6817e2486d003becc55f00556001600160a01b0385166101495760405162461bcd60e51b815260206004820152601160248201527015985d5b1d0e881e995c9bc8185cdcd95d607a1b60448201526064016100c8565b6001600160a01b03831661019f5760405162461bcd60e51b815260206004820152601460248201527f5661756c743a207a65726f206f70657261746f7200000000000000000000000060448201526064016100c8565b6001600160a01b0382166101f55760405162461bcd60e51b815260206004820152601960248201527f5661756c743a207a65726f2066656520636f6c6c6563746f720000000000000060448201526064016100c8565b6001600160a01b03858116608052600680546001600160a01b0319908116868416179091556007805490911691841691909117905562989680600b5564e8d4a51000600c556509184e72a000600d556102518162015180610486565b600e90815560105550506202a300601355505042600955506104af565b600580546001600160a01b038381166001600160a01b0319831681179093556040519116919082907f8be0079c531659141344cd1fd0a4f28419497f9722a3daafe3b4186f6b6457e0905f90a35050565b80516001600160a01b03811681146102d5575f5ffd5b919050565b5f5f5f5f5f60a086880312156102ee575f5ffd5b6102f7866102bf565b9450610305602087016102bf565b9350610313604087016102bf565b9250610321606087016102bf565b9150608086015190509295509295909350565b634e487b7160e01b5f52604160045260245ffd5b600181811c9082168061035c57607f821691505b60208210810361037a57634e487b7160e01b5f52602260045260245ffd5b50919050565b601f8211156103c757805f5260205f20601f840160051c810160208510156103a55750805b601f840160051c820191505b818110156103c4575f81556001016103b1565b50505b505050565b81516001600160401b038111156103e5576103e5610334565b6103f9816103f38454610348565b84610380565b6020601f82116001811461042b575f83156104145750848201515b5f19600385901b1c1916600184901b1784556103c4565b5f84815260208120601f198516915b8281101561045a578785015182556020948501946001909201910161043a565b508482101561047757868401515f19600387901b60f8161c191681555b50505050600190811b01905550565b80820281158282048414176104a957634e487b7160e01b5f52601160045260245ffd5b92915050565b6080516127286104f85f395f818161054301528181610ab901528181610dbb015281816112b9015281816118b9015281816119dc01528181611b600152611eef01526127285ff3fe608060405234801561000f575f5ffd5b50600436106103a9575f3560e01c80636c6925f9116101ea578063b6b55f2511610114578063e1a45218116100a9578063ec18154e11610079578063ec18154e146103ad578063f2fde38b1461084d578063f7da1f8714610860578063ff50abdc14610869575f5ffd5b8063e1a4521814610820578063e4c4be5814610829578063e7ab124714610831578063e9f2838e1461083b575f5ffd5b8063d63f4c07116100e4578063d63f4c07146107c5578063db2e21bc146107cd578063dd62ed3e146107d5578063e03cda311461080d575f5ffd5b8063b6b55f2514610709578063c415b95c1461071c578063c822adda1461072f578063cb6356de146107bc575f5ffd5b806390a821121161018a578063a9059cbb1161015a578063a9059cbb146106cb578063aa9c5fc4146106de578063aaf5eb68146106e7578063b3ab15fb146106f6575f5ffd5b806390a821121461069557806395d89b41146106a857806399530b06146106b0578063a42dce80146106b8575f5ffd5b806371fab9f1116101c557806371fab9f1146106545780638092be4a1461065d5780638456cb591461067c5780638da5cb5b14610684575f5ffd5b80636c6925f91461061b57806370a0823114610624578063715018a61461064c575f5ffd5b80632e1a7d4d116102d65780634b3197131161026b5780635c975abb1161023b5780635c975abb146105eb5780636083e59a146105fd57806360da3e831461060657806363d8882a14610613575f5ffd5b80634b319713146105b457806356bb54a7146105bd578063570ca735146105c55780635b02b729146105d8575f5ffd5b80633efcfda4116102a65780633efcfda41461057d5780633f4ba83a1461059057806341b3d18514610598578063460b49ee146105a1575f5ffd5b80632e1a7d4d14610509578063313ce5671461051c578063371d86461461052b57806338d52e0f1461053e575f5ffd5b80630fbd6a5a1161034c57806323b872dd1161031c57806323b872dd1461046e57806324a8166e1461048157806325e642e4146104e05780632cbf3da014610500575f5ffd5b80630fbd6a5a1461044157806310f680ff1461045457806318160ddd1461045d5780631ea09eae14610465575f5ffd5b806306fdde031161038757806306fdde03146103ed57806309201db014610402578063095ea7b31461040b5780630cb1982b1461042e575f5ffd5b806301e1d114146103ad57806302191980146103c457806302527753146103ce575b5f5ffd5b6008545b6040519081526020015b60405180910390f35b6103cc610872565b005b6103b16103dc366004612498565b600f6020525f908152604090205481565b6103f56108c3565b6040516103bb91906124b1565b6103b160095481565b61041e6104193660046124e6565b610953565b60405190151581526020016103bb565b6103cc61043c36600461250e565b61096c565b6103b161044f3660046124e6565b610a3d565b6103b160105481565b6002546103b1565b6103b160145481565b61041e61047c366004612525565b610a68565b610489610a8b565b604080519b8c5260208c019a909a52988a01979097526060890195909552608088019390935260a087019190915260c086015260e085015261010084015215156101208301521515610140820152610160016103bb565b6104f36104ee366004612498565b610b80565b6040516103bb919061255f565b6103b160085481565b6103cc61051736600461250e565b610be9565b604051600681526020016103bb565b6103cc6105393660046125a1565b610f78565b6105657f000000000000000000000000000000000000000000000000000000000000000081565b6040516001600160a01b0390911681526020016103bb565b6103cc61058b36600461250e565b61101c565b6103cc61117f565b6103b1600b5481565b6103cc6105af36600461250e565b611191565b6103b160195481565b6103cc611404565b600654610565906001600160a01b031681565b6103cc6105e636600461250e565b611453565b600554600160a01b900460ff1661041e565b6103b1600c5481565b60115461041e9060ff1681565b6103cc6114af565b6103b1600e5481565b6103b1610632366004612498565b6001600160a01b03165f9081526020819052604090205490565b6103cc6114f1565b6103b160125481565b6103b161066b366004612498565b60176020525f908152604090205481565b6103cc611502565b6005546001600160a01b0316610565565b6103b16106a3366004612498565b611512565b6103f5611533565b6103b1611542565b6103cc6106c6366004612498565b611587565b61041e6106d93660046124e6565b611635565b6103b1600d5481565b6103b1670de0b6b3a764000081565b6103cc610704366004612498565b611642565b6103cc61071736600461250e565b6116f1565b600754610565906001600160a01b031681565b61078161073d36600461250e565b60156020525f9081526040902080546001820154600283015460038401546004909401546001600160a01b0390931693919290919060ff8082169161010090041686565b604080516001600160a01b039097168752602087019590955293850192909252606084015215156080830152151560a082015260c0016103bb565b6103b160135481565b6103b16119bb565b6103cc611a65565b6103b16107e33660046125ca565b6001600160a01b039182165f90815260016020908152604080832093909416825291909152205490565b6103cc61081b36600461250e565b611c85565b6103b161271081565b6103cc611c92565b6103b1620f424081565b60115461041e90610100900460ff1681565b6103cc61085b366004612498565b611cd5565b6103b1600a5481565b6103b160185481565b61087a611d0f565b6011805460ff191660011790556040517feb4282fc35325d117b940a2840254b76ff0b0bde2fff395e93acd0aaca9c6cf6906108b99042815260200190565b60405180910390a1565b6060600380546108d2906125fb565b80601f01602080910402602001604051908101604052809291908181526020018280546108fe906125fb565b80156109495780601f1061092057610100808354040283529160200191610949565b820191905f5260205f20905b81548152906001019060200180831161092c57829003601f168201915b5050505050905090565b5f33610960818585611d3c565b60019150505b92915050565b6006546001600160a01b031633146109c15760405162461bcd60e51b81526020600482015260136024820152722b30bab63a1d103737ba1037b832b930ba37b960691b60448201526064015b60405180910390fd5b600880549082905542600955600a8054905f6109dc83612647565b9190505550600a547f6bd5a48e22d0c528fbe6db88c3dbe610694e380ee6578b86af74972429c650c98284610a0f611542565b6040805193845260208401929092529082015233606082015242608082015260a00160405180910390a25050565b6016602052815f5260405f208181548110610a56575f80fd5b905f5260205f20015f91509150505481565b5f33610a75858285611d4e565b610a80858585611dca565b506001949350505050565b5f5f5f5f5f5f5f5f5f5f5f600854610aa1611542565b6002546040516370a0823160e01b81523060048201527f00000000000000000000000000000000000000000000000000000000000000006001600160a01b0316906370a0823190602401602060405180830381865afa158015610b06573d5f5f3e3d5ffd5b505050506040513d601f19601f82011682018060405250810190610b2a919061265f565b610b326119bb565b601854601954600954600a5460115f9054906101000a900460ff16601160019054906101000a900460ff169a509a509a509a509a509a509a509a509a509a509a50909192939495969798999a565b6001600160a01b0381165f90815260166020908152604091829020805483518184028101840190945280845260609392830182828015610bdd57602002820191905f5260205f20905b815481526020019060010190808311610bc9575b50505050509050919050565b610bf1611e27565b610bf9611e42565b601154610100900460ff1615610c515760405162461bcd60e51b815260206004820152601960248201527f5661756c743a207769746864726177616c73207061757365640000000000000060448201526064016109b8565b5f8111610c955760405162461bcd60e51b81526020600482015260126024820152715661756c743a207a65726f2073686172657360701b60448201526064016109b8565b335f90815260208190526040902054811115610cf35760405162461bcd60e51b815260206004820152601a60248201527f5661756c743a20696e73756666696369656e742073686172657300000000000060448201526064016109b8565b600e54335f908152600f6020526040902054610d0f9190612676565b421015610d565760405162461bcd60e51b81526020600482015260156024820152745661756c743a206c6f636b2d75702061637469766560581b60448201526064016109b8565b5f610d6082611e6d565b90505f8111610da45760405162461bcd60e51b815260206004820152601060248201526f5661756c743a207a65726f205553444360801b60448201526064016109b8565b6040516370a0823160e01b81523060048201525f907f00000000000000000000000000000000000000000000000000000000000000006001600160a01b0316906370a0823190602401602060405180830381865afa158015610e08573d5f5f3e3d5ffd5b505050506040513d601f19601f82011682018060405250810190610e2c919061265f565b905080821115610f5157601480545f9182610e4683612647565b909155506040805160c0810182523380825260208083018981528385018981524260608087018281525f6080890181815260a08a018281528c8352601589528b83209a518b546001600160a01b0319166001600160a01b03909116178b5596516001808c0191909155955160028b0155915160038a0155905160049098018054955161ffff1990961698151561ff00191698909817610100951515959095029490941790965584835260168452868320805492830181558352918390200186905584518a81529182018990529381019390935292935083917f303e206423354d1b684563fe13a4dc15469665cebd160dcfee461b7af63fe21a910160405180910390a3505050610f5f565b610f5c338484611ea9565b50505b610f7560015f5160206126d35f395f51905f5255565b50565b610f80611d0f565b818310610fc75760405162461bcd60e51b81526020600482015260156024820152745661756c743a20696e76616c6964206c696d69747360581b60448201526064016109b8565b600b839055600c829055600d81905560408051848152602081018490529081018290527fa749cb7617d49429c02d5eac1160aa687470bab76159e9047cf78e55a12e952b9060600160405180910390a1505050565b5f81815260156020526040902080546001600160a01b031633146110825760405162461bcd60e51b815260206004820152601a60248201527f5661756c743a206e6f7420796f7572207769746864726177616c00000000000060448201526064016109b8565b600481015460ff16156110d25760405162461bcd60e51b815260206004820152601860248201527715985d5b1d0e88185b1c9958591e481c1c9bd8d95cdcd95960421b60448201526064016109b8565b6004810154610100900460ff161561112c5760405162461bcd60e51b815260206004820152601860248201527f5661756c743a20616c72656164792063616e63656c6c6564000000000000000060448201526064016109b8565b60048101805461ff001916610100179055604051339083907f1827a0ec328915df70a21d3ac58a86f06973898dbc2eaee0aa91be7563f136eb906111739042815260200190565b60405180910390a35050565b611187611d0f565b61118f611f7c565b565b6006546001600160a01b03163314806111b457506005546001600160a01b031633145b6111f85760405162461bcd60e51b815260206004820152601560248201527415985d5b1d0e881b9bdd08185d5d1a1bdc9a5e9959605a1b60448201526064016109b8565b5f818152601560205260409020600481015460ff16156112555760405162461bcd60e51b815260206004820152601860248201527715985d5b1d0e88185b1c9958591e481c1c9bd8d95cdcd95960421b60448201526064016109b8565b6004810154610100900460ff16156112a25760405162461bcd60e51b815260206004820152601060248201526f15985d5b1d0e8818d85b98d95b1b195960821b60448201526064016109b8565b6040516370a0823160e01b81523060048201525f907f00000000000000000000000000000000000000000000000000000000000000006001600160a01b0316906370a0823190602401602060405180830381865afa158015611306573d5f5f3e3d5ffd5b505050506040513d601f19601f8201168201806040525081019061132a919061265f565b905081600201548110156113805760405162461bcd60e51b815260206004820152601d60248201527f5661756c743a20696e73756666696369656e74206c697175696469747900000060448201526064016109b8565b60048201805460ff1916600190811790915582549083015460028401546113b1926001600160a01b03169190611ea9565b81546002830154604080519182524260208301526001600160a01b039092169185917f2ede3fcb42c1b809c32ca232199de6e1f9452f0971a0f34f90a4f37198099ab191015b60405180910390a3505050565b61140c611d0f565b6011805461ff0019166101001790554260128190556040517ff4f3231af9b3395333147b242229c61347b92aadd25f9760b503d04e50b5cd90916108b99190815260200190565b61145b611d0f565b600e5461146b8262015180612689565b600e8190556040805183815260208101929092527f048c70126ab7f5ee72ed299473383133c5645255b6ca7243cb2514b85cad2ae391015b60405180910390a15050565b6114b7611d0f565b6011805460ff191690556040514281527fc60a09282147c879caecd0e606e1282d6c85bb33f3296a45ac82d43cd49c6e24906020016108b9565b6114f9611d0f565b61118f5f611fcc565b61150a611d0f565b61118f61201d565b6001600160a01b0381165f9081526020819052604081205461096690611e6d565b6060600480546108d2906125fb565b5f5f61154d60025490565b9050805f0361156057620f424091505090565b80670de0b6b3a76400006008546115779190612689565b61158191906126a0565b91505090565b61158f611d0f565b6001600160a01b0381166115db5760405162461bcd60e51b81526020600482015260136024820152725661756c743a207a65726f206164647265737360681b60448201526064016109b8565b600780546001600160a01b038381166001600160a01b031983168117909355604080519190921680825260208201939093527f5d16ad41baeb009cd23eb8f6c7cde5c2e0cd5acf4a33926ab488875c37c37f3891016114a3565b5f33610960818585611dca565b61164a611d0f565b6001600160a01b0381166116975760405162461bcd60e51b81526020600482015260146024820152732b30bab63a1d103d32b9379037b832b930ba37b960611b60448201526064016109b8565b600680546001600160a01b038381166001600160a01b031983168117909355604080519190921680825260208201939093527ffbe5b6cbafb274f445d7fed869dc77a838d8243a22c460de156560e8857cad0391016114a3565b6116f9611e27565b611701611e42565b60115460ff161561174d5760405162461bcd60e51b815260206004820152601660248201527515985d5b1d0e8819195c1bdcda5d1cc81c185d5cd95960521b60448201526064016109b8565b600b5481101561179f5760405162461bcd60e51b815260206004820152601c60248201527f5661756c743a2062656c6f77206d696e696d756d206465706f7369740000000060448201526064016109b8565b600c548111156117f15760405162461bcd60e51b815260206004820152601c60248201527f5661756c743a2061626f7665206d6178696d756d206465706f7369740000000060448201526064016109b8565b600d54335f9081526017602052604090205461180e908390612676565b111561185c5760405162461bcd60e51b815260206004820152601760248201527f5661756c743a20657863656564732075736572206d617800000000000000000060448201526064016109b8565b5f61186682612060565b90505f81116118ac5760405162461bcd60e51b81526020600482015260126024820152715661756c743a207a65726f2073686172657360701b60448201526064016109b8565b6118e16001600160a01b037f000000000000000000000000000000000000000000000000000000000000000016333085612093565b6118eb33826120c9565b8160085f8282546118fc9190612676565b9091555050335f908152601760205260408120805484929061191f908490612676565b925050819055508160185f8282546119379190612676565b9091555050335f818152600f602052604090204290557f0a5c854539f6e93fcd4a8397bfae8bdb751b4e819840f1c8681e6ad7ff19c5b58383611978611542565b60085460408051948552602085019390935291830152606082015242608082015260a00160405180910390a250610f7560015f5160206126d35f395f51905f5255565b6040516370a0823160e01b81523060048201525f9081906001600160a01b037f000000000000000000000000000000000000000000000000000000000000000016906370a0823190602401602060405180830381865afa158015611a21573d5f5f3e3d5ffd5b505050506040513d601f19601f82011682018060405250810190611a45919061265f565b90508060085411611a57575f91505090565b8060085461158191906126bf565b611a6d611e27565b335f9081526020819052604090205480611abc5760405162461bcd60e51b815260206004820152601060248201526f5661756c743a206e6f2073686172657360801b60448201526064016109b8565b601054611acc9062015180612689565b335f908152600f6020526040902054611ae59190612676565b421015611b345760405162461bcd60e51b815260206004820181905260248201527f5661756c743a20656d657267656e63792074696d656c6f636b2061637469766560448201526064016109b8565b5f611b3e82611e6d565b6040516370a0823160e01b81523060048201529091505f906001600160a01b037f000000000000000000000000000000000000000000000000000000000000000016906370a0823190602401602060405180830381865afa158015611ba5573d5f5f3e3d5ffd5b505050506040513d601f19601f82011682018060405250810190611bc9919061265f565b905080821115611be257809150611bdf82612060565b92505b5f8211611c275760405162461bcd60e51b81526020600482015260136024820152725661756c743a206e6f206c697175696469747960681b60448201526064016109b8565b611c32338484611ea9565b6040805183815242602082015233917f56da9a5ae0bcf6e7c3fdd78a10550e7d0458de1c39bfb7f6e96a3e92dd344a68910160405180910390a250505061118f60015f5160206126d35f395f51905f5255565b611c8d611d0f565b601055565b611c9a611d0f565b6011805461ff00191690556040514281527f74378e75f2db3bab5ba1310a68ffa807e4bf8308abfe6352fd9503d5e34f52fc906020016108b9565b611cdd611d0f565b6001600160a01b038116611d0657604051631e4fbdf760e01b81525f60048201526024016109b8565b610f7581611fcc565b6005546001600160a01b0316331461118f5760405163118cdaa760e01b81523360048201526024016109b8565b611d498383836001612101565b505050565b6001600160a01b038381165f908152600160209081526040808320938616835292905220545f19811015611dc45781811015611db657604051637dc7a0d960e11b81526001600160a01b038416600482015260248101829052604481018390526064016109b8565b611dc484848484035f612101565b50505050565b6001600160a01b038316611df357604051634b637e8f60e11b81525f60048201526024016109b8565b6001600160a01b038216611e1c5760405163ec442f0560e01b81525f60048201526024016109b8565b611d498383836121d3565b611e2f6122ec565b60025f5160206126d35f395f51905f5255565b600554600160a01b900460ff161561118f5760405163d93c066560e01b815260040160405180910390fd5b5f5f611e7860025490565b9050805f03611e8957505f92915050565b8060085484611e989190612689565b611ea291906126a0565b9392505050565b611eb3838361231b565b8060085f828254611ec491906126bf565b925050819055508060195f828254611edc9190612676565b90915550611f1690506001600160a01b037f000000000000000000000000000000000000000000000000000000000000000016848361234f565b826001600160a01b03167fc1df1e8d1517a1d530e03dd0b5abd27970c523aa08e4dab690b68af40b925d968284611f4b611542565b60085460408051948552602085019390935291830152606082015242608082015260a00160405180910390a2505050565b611f84612384565b6005805460ff60a01b191690557f5db9ee0a495bf2e6ff9c91a7834c1ba4fdd244a5e8aa4e537bd38aeae4b073aa335b6040516001600160a01b0390911681526020016108b9565b600580546001600160a01b038381166001600160a01b0319831681179093556040519116919082907f8be0079c531659141344cd1fd0a4f28419497f9722a3daafe3b4186f6b6457e0905f90a35050565b612025611e42565b6005805460ff60a01b1916600160a01b1790557f62e78cea01bee320cd4e420270b5ea74000d11b0c9f74754ebdbfc544b05a258611fb43390565b5f5f61206b60025490565b905080158061207a5750600854155b15612086575090919050565b600854611e988285612689565b6120a18484848460016123ae565b611dc457604051635274afe760e01b81526001600160a01b03851660048201526024016109b8565b6001600160a01b0382166120f25760405163ec442f0560e01b81525f60048201526024016109b8565b6120fd5f83836121d3565b5050565b6001600160a01b03841661212a5760405163e602df0560e01b81525f60048201526024016109b8565b6001600160a01b03831661215357604051634a1406b160e11b81525f60048201526024016109b8565b6001600160a01b038085165f9081526001602090815260408083209387168352929052208290558015611dc457826001600160a01b0316846001600160a01b03167f8c5be1e5ebec7d5bd14f71427d1e84f3dd0314c0f7b2291e5b200ac8c7c3b925846040516121c591815260200190565b60405180910390a350505050565b6001600160a01b0383166121fd578060025f8282546121f29190612676565b9091555061226d9050565b6001600160a01b0383165f908152602081905260409020548181101561224f5760405163391434e360e21b81526001600160a01b038516600482015260248101829052604481018390526064016109b8565b6001600160a01b0384165f9081526020819052604090209082900390555b6001600160a01b038216612289576002805482900390556122a7565b6001600160a01b0382165f9081526020819052604090208054820190555b816001600160a01b0316836001600160a01b03167fddf252ad1be2c89b69c2b068fc378daa952ba7f163c4a11628f55a4df523b3ef836040516113f791815260200190565b5f5160206126d35f395f51905f525460020361118f57604051633ee5aeb560e01b815260040160405180910390fd5b6001600160a01b03821661234457604051634b637e8f60e11b81525f60048201526024016109b8565b6120fd825f836121d3565b61235c838383600161241b565b611d4957604051635274afe760e01b81526001600160a01b03841660048201526024016109b8565b600554600160a01b900460ff1661118f57604051638dfc202b60e01b815260040160405180910390fd5b6040516323b872dd60e01b5f8181526001600160a01b038781166004528616602452604485905291602083606481808c5af1925060015f5114831661240a5783831516156123fe573d5f823e3d81fd5b5f883b113d1516831692505b604052505f60605295945050505050565b60405163a9059cbb60e01b5f8181526001600160a01b038616600452602485905291602083604481808b5af1925060015f51148316612471578383151615612465573d5f823e3d81fd5b5f873b113d1516831692505b60405250949350505050565b80356001600160a01b0381168114612493575f5ffd5b919050565b5f602082840312156124a8575f5ffd5b611ea28261247d565b602081525f82518060208401528060208501604085015e5f604082850101526040601f19601f83011684010191505092915050565b5f5f604083850312156124f7575f5ffd5b6125008361247d565b946020939093013593505050565b5f6020828403121561251e575f5ffd5b5035919050565b5f5f5f60608486031215612537575f5ffd5b6125408461247d565b925061254e6020850161247d565b929592945050506040919091013590565b602080825282518282018190525f918401906040840190835b81811015612596578351835260209384019390920191600101612578565b509095945050505050565b5f5f5f606084860312156125b3575f5ffd5b505081359360208301359350604090920135919050565b5f5f604083850312156125db575f5ffd5b6125e48361247d565b91506125f26020840161247d565b90509250929050565b600181811c9082168061260f57607f821691505b60208210810361262d57634e487b7160e01b5f52602260045260245ffd5b50919050565b634e487b7160e01b5f52601160045260245ffd5b5f6001820161265857612658612633565b5060010190565b5f6020828403121561266f575f5ffd5b5051919050565b8082018082111561096657610966612633565b808202811582820484141761096657610966612633565b5f826126ba57634e487b7160e01b5f52601260045260245ffd5b500490565b818103818111156109665761096661263356fe9b779b17422d0df92223018b32b4d1fa46e071723d6817e2486d003becc55f00a2646970667358221220c41b6b22f65110fc6f1535a6a61758378885fd90584d60d26083bec40a07d79c64736f6c634300081c0033","linkReferences":{}},"methodIdentifiers":{"BPS_DENOMINATOR()":"e1a45218","INITIAL_SHARE_PRICE()":"e7ab1247","PRECISION()":"aaf5eb68","allowance(address,address)":"dd62ed3e","approve(address,uint256)":"095ea7b3","asset()":"38d52e0f","balanceOf(address)":"70a08231","cancelWithdrawal(uint256)":"3efcfda4","currentNAV()":"2cbf3da0","decimals()":"313ce567","deposit(uint256)":"b6b55f25","depositsPaused()":"60da3e83","emergencyTimelockDays()":"10f680ff","emergencyWithdraw()":"db2e21bc","feeCollector()":"c415b95c","getUserPendingWithdrawals(address)":"25e642e4","lastDepositTime(address)":"02527753","lastNAVUpdateTime()":"09201db0","lockUpPeriod()":"6c6925f9","maxDeposit()":"6083e59a","maxUserDeposit()":"aa9c5fc4","minDeposit()":"41b3d185","name()":"06fdde03","navUpdateCount()":"f7da1f87","nextQueueId()":"1ea09eae","operator()":"570ca735","owner()":"8da5cb5b","pause()":"8456cb59","pauseDeposits()":"02191980","pauseWithdrawals()":"56bb54a7","paused()":"5c975abb","pricePerShare()":"99530b06","processQueuedWithdrawal(uint256)":"460b49ee","renounceOwnership()":"715018a6","setDepositLimits(uint256,uint256,uint256)":"371d8646","setEmergencyTimelockDays(uint256)":"e03cda31","setFeeCollector(address)":"a42dce80","setLockUpPeriod(uint256)":"5b02b729","setOperator(address)":"b3ab15fb","symbol()":"95d89b41","totalAssets()":"01e1d114","totalDeployedCapital()":"d63f4c07","totalDeposited()":"ff50abdc","totalSupply()":"18160ddd","totalValueLocked()":"ec18154e","totalWithdrawn()":"4b319713","transfer(address,uint256)":"a9059cbb","transferFrom(address,address,uint256)":"23b872dd","transferOwnership(address)":"f2fde38b","unpause()":"3f4ba83a","unpauseDeposits()":"63d8882a","unpauseWithdrawals()":"e4c4be58","updateNAV(uint256)":"0cb1982b","userDeposited(address)":"8092be4a","userPendingWithdrawals(address,uint256)":"0fbd6a5a","userValue(address)":"90a82112","vaultStatus()":"24a8166e","withdraw(uint256)":"2e1a7d4d","withdrawalPauseTimelock()":"cb6356de","withdrawalPauseTimestamp()":"71fab9f1","withdrawalQueue(uint256)":"c822adda","withdrawalsPaused()":"e9f2838e"},"id":67}