{"abi":[{"type":"constructor","inputs":[{"name":"_token","type":"address","internalType":"contract IVotes"},{"name":"_timelock","type":"address","internalType":"contract TimelockController"}],"stateMutability":"nonpayable"},{"type":"receive","stateMutability":"payable"},{"type":"function","name":"BALLOT_TYPEHASH","inputs":[],"outputs":[{"name":"","type":"bytes32","internalType":"bytes32"}],"stateMutability":"view"},{"type":"function","name":"CLOCK_MODE","inputs":[],"outputs":[{"name":"","type":"string","internalType":"string"}],"stateMutability":"view"},{"type":"function","name":"COUNTING_MODE","inputs":[],"outputs":[{"name":"","type":"string","internalType":"string"}],"stateMutability":"pure"},{"type":"function","name":"EXTENDED_BALLOT_TYPEHASH","inputs":[],"outputs":[{"name":"","type":"bytes32","internalType":"bytes32"}],"stateMutability":"view"},{"type":"function","name":"cancel","inputs":[{"name":"targets","type":"address[]","internalType":"address[]"},{"name":"values","type":"uint256[]","internalType":"uint256[]"},{"name":"calldatas","type":"bytes[]","internalType":"bytes[]"},{"name":"descriptionHash","type":"bytes32","internalType":"bytes32"}],"outputs":[{"name":"","type":"uint256","internalType":"uint256"}],"stateMutability":"nonpayable"},{"type":"function","name":"castVote","inputs":[{"name":"proposalId","type":"uint256","internalType":"uint256"},{"name":"support","type":"uint8","internalType":"uint8"}],"outputs":[{"name":"","type":"uint256","internalType":"uint256"}],"stateMutability":"nonpayable"},{"type":"function","name":"castVoteBySig","inputs":[{"name":"proposalId","type":"uint256","internalType":"uint256"},{"name":"support","type":"uint8","internalType":"uint8"},{"name":"voter","type":"address","internalType":"address"},{"name":"signature","type":"bytes","internalType":"bytes"}],"outputs":[{"name":"","type":"uint256","internalType":"uint256"}],"stateMutability":"nonpayable"},{"type":"function","name":"castVoteWithReason","inputs":[{"name":"proposalId","type":"uint256","internalType":"uint256"},{"name":"support","type":"uint8","internalType":"uint8"},{"name":"reason","type":"string","internalType":"string"}],"outputs":[{"name":"","type":"uint256","internalType":"uint256"}],"stateMutability":"nonpayable"},{"type":"function","name":"castVoteWithReasonAndParams","inputs":[{"name":"proposalId","type":"uint256","internalType":"uint256"},{"name":"support","type":"uint8","internalType":"uint8"},{"name":"reason","type":"string","internalType":"string"},{"name":"params","type":"bytes","internalType":"bytes"}],"outputs":[{"name":"","type":"uint256","internalType":"uint256"}],"stateMutability":"nonpayable"},{"type":"function","name":"castVoteWithReasonAndParamsBySig","inputs":[{"name":"proposalId","type":"uint256","internalType":"uint256"},{"name":"support","type":"uint8","internalType":"uint8"},{"name":"voter","type":"address","internalType":"address"},{"name":"reason","type":"string","internalType":"string"},{"name":"params","type":"bytes","internalType":"bytes"},{"name":"signature","type":"bytes","internalType":"bytes"}],"outputs":[{"name":"","type":"uint256","internalType":"uint256"}],"stateMutability":"nonpayable"},{"type":"function","name":"clock","inputs":[],"outputs":[{"name":"","type":"uint48","internalType":"uint48"}],"stateMutability":"view"},{"type":"function","name":"eip712Domain","inputs":[],"outputs":[{"name":"fields","type":"bytes1","internalType":"bytes1"},{"name":"name","type":"string","internalType":"string"},{"name":"version","type":"string","internalType":"string"},{"name":"chainId","type":"uint256","internalType":"uint256"},{"name":"verifyingContract","type":"address","internalType":"address"},{"name":"salt","type":"bytes32","internalType":"bytes32"},{"name":"extensions","type":"uint256[]","internalType":"uint256[]"}],"stateMutability":"view"},{"type":"function","name":"execute","inputs":[{"name":"targets","type":"address[]","internalType":"address[]"},{"name":"values","type":"uint256[]","internalType":"uint256[]"},{"name":"calldatas","type":"bytes[]","internalType":"bytes[]"},{"name":"descriptionHash","type":"bytes32","internalType":"bytes32"}],"outputs":[{"name":"","type":"uint256","internalType":"uint256"}],"stateMutability":"payable"},{"type":"function","name":"getProposalId","inputs":[{"name":"targets","type":"address[]","internalType":"address[]"},{"name":"values","type":"uint256[]","internalType":"uint256[]"},{"name":"calldatas","type":"bytes[]","internalType":"bytes[]"},{"name":"descriptionHash","type":"bytes32","internalType":"bytes32"}],"outputs":[{"name":"","type":"uint256","internalType":"uint256"}],"stateMutability":"view"},{"type":"function","name":"getVotes","inputs":[{"name":"account","type":"address","internalType":"address"},{"name":"timepoint","type":"uint256","internalType":"uint256"}],"outputs":[{"name":"","type":"uint256","internalType":"uint256"}],"stateMutability":"view"},{"type":"function","name":"getVotesWithParams","inputs":[{"name":"account","type":"address","internalType":"address"},{"name":"timepoint","type":"uint256","internalType":"uint256"},{"name":"params","type":"bytes","internalType":"bytes"}],"outputs":[{"name":"","type":"uint256","internalType":"uint256"}],"stateMutability":"view"},{"type":"function","name":"hasVoted","inputs":[{"name":"proposalId","type":"uint256","internalType":"uint256"},{"name":"account","type":"address","internalType":"address"}],"outputs":[{"name":"","type":"bool","internalType":"bool"}],"stateMutability":"view"},{"type":"function","name":"hashProposal","inputs":[{"name":"targets","type":"address[]","internalType":"address[]"},{"name":"values","type":"uint256[]","internalType":"uint256[]"},{"name":"calldatas","type":"bytes[]","internalType":"bytes[]"},{"name":"descriptionHash","type":"bytes32","internalType":"bytes32"}],"outputs":[{"name":"","type":"uint256","internalType":"uint256"}],"stateMutability":"pure"},{"type":"function","name":"name","inputs":[],"outputs":[{"name":"","type":"string","internalType":"string"}],"stateMutability":"view"},{"type":"function","name":"nonces","inputs":[{"name":"owner","type":"address","internalType":"address"}],"outputs":[{"name":"","type":"uint256","internalType":"uint256"}],"stateMutability":"view"},{"type":"function","name":"onERC1155BatchReceived","inputs":[{"name":"","type":"address","internalType":"address"},{"name":"","type":"address","internalType":"address"},{"name":"","type":"uint256[]","internalType":"uint256[]"},{"name":"","type":"uint256[]","internalType":"uint256[]"},{"name":"","type":"bytes","internalType":"bytes"}],"outputs":[{"name":"","type":"bytes4","internalType":"bytes4"}],"stateMutability":"nonpayable"},{"type":"function","name":"onERC1155Received","inputs":[{"name":"","type":"address","internalType":"address"},{"name":"","type":"address","internalType":"address"},{"name":"","type":"uint256","internalType":"uint256"},{"name":"","type":"uint256","internalType":"uint256"},{"name":"","type":"bytes","internalType":"bytes"}],"outputs":[{"name":"","type":"bytes4","internalType":"bytes4"}],"stateMutability":"nonpayable"},{"type":"function","name":"onERC721Received","inputs":[{"name":"","type":"address","internalType":"address"},{"name":"","type":"address","internalType":"address"},{"name":"","type":"uint256","internalType":"uint256"},{"name":"","type":"bytes","internalType":"bytes"}],"outputs":[{"name":"","type":"bytes4","internalType":"bytes4"}],"stateMutability":"nonpayable"},{"type":"function","name":"proposalDeadline","inputs":[{"name":"proposalId","type":"uint256","internalType":"uint256"}],"outputs":[{"name":"","type":"uint256","internalType":"uint256"}],"stateMutability":"view"},{"type":"function","name":"proposalEta","inputs":[{"name":"proposalId","type":"uint256","internalType":"uint256"}],"outputs":[{"name":"","type":"uint256","internalType":"uint256"}],"stateMutability":"view"},{"type":"function","name":"proposalNeedsQueuing","inputs":[{"name":"proposalId","type":"uint256","internalType":"uint256"}],"outputs":[{"name":"","type":"bool","internalType":"bool"}],"stateMutability":"view"},{"type":"function","name":"proposalProposer","inputs":[{"name":"proposalId","type":"uint256","internalType":"uint256"}],"outputs":[{"name":"","type":"address","internalType":"address"}],"stateMutability":"view"},{"type":"function","name":"proposalSnapshot","inputs":[{"name":"proposalId","type":"uint256","internalType":"uint256"}],"outputs":[{"name":"","type":"uint256","internalType":"uint256"}],"stateMutability":"view"},{"type":"function","name":"proposalThreshold","inputs":[],"outputs":[{"name":"","type":"uint256","internalType":"uint256"}],"stateMutability":"view"},{"type":"function","name":"proposalVotes","inputs":[{"name":"proposalId","type":"uint256","internalType":"uint256"}],"outputs":[{"name":"againstVotes","type":"uint256","internalType":"uint256"},{"name":"forVotes","type":"uint256","internalType":"uint256"},{"name":"abstainVotes","type":"uint256","internalType":"uint256"}],"stateMutability":"view"},{"type":"function","name":"propose","inputs":[{"name":"targets","type":"address[]","internalType":"address[]"},{"name":"values","type":"uint256[]","internalType":"uint256[]"},{"name":"calldatas","type":"bytes[]","internalType":"bytes[]"},{"name":"description","type":"string","internalType":"string"}],"outputs":[{"name":"","type":"uint256","internalType":"uint256"}],"stateMutability":"nonpayable"},{"type":"function","name":"queue","inputs":[{"name":"targets","type":"address[]","internalType":"address[]"},{"name":"values","type":"uint256[]","internalType":"uint256[]"},{"name":"calldatas","type":"bytes[]","internalType":"bytes[]"},{"name":"descriptionHash","type":"bytes32","internalType":"bytes32"}],"outputs":[{"name":"","type":"uint256","internalType":"uint256"}],"stateMutability":"nonpayable"},{"type":"function","name":"quorum","inputs":[{"name":"blockNumber","type":"uint256","internalType":"uint256"}],"outputs":[{"name":"","type":"uint256","internalType":"uint256"}],"stateMutability":"view"},{"type":"function","name":"quorumDenominator","inputs":[],"outputs":[{"name":"","type":"uint256","internalType":"uint256"}],"stateMutability":"view"},{"type":"function","name":"quorumNumerator","inputs":[{"name":"timepoint","type":"uint256","internalType":"uint256"}],"outputs":[{"name":"","type":"uint256","internalType":"uint256"}],"stateMutability":"view"},{"type":"function","name":"quorumNumerator","inputs":[],"outputs":[{"name":"","type":"uint256","internalType":"uint256"}],"stateMutability":"view"},{"type":"function","name":"relay","inputs":[{"name":"target","type":"address","internalType":"address"},{"name":"value","type":"uint256","internalType":"uint256"},{"name":"data","type":"bytes","internalType":"bytes"}],"outputs":[],"stateMutability":"payable"},{"type":"function","name":"setProposalThreshold","inputs":[{"name":"newProposalThreshold","type":"uint256","internalType":"uint256"}],"outputs":[],"stateMutability":"nonpayable"},{"type":"function","name":"setVotingDelay","inputs":[{"name":"newVotingDelay","type":"uint48","internalType":"uint48"}],"outputs":[],"stateMutability":"nonpayable"},{"type":"function","name":"setVotingPeriod","inputs":[{"name":"newVotingPeriod","type":"uint32","internalType":"uint32"}],"outputs":[],"stateMutability":"nonpayable"},{"type":"function","name":"state","inputs":[{"name":"proposalId","type":"uint256","internalType":"uint256"}],"outputs":[{"name":"","type":"uint8","internalType":"enum IGovernor.ProposalState"}],"stateMutability":"view"},{"type":"function","name":"supportsInterface","inputs":[{"name":"interfaceId","type":"bytes4","internalType":"bytes4"}],"outputs":[{"name":"","type":"bool","internalType":"bool"}],"stateMutability":"view"},{"type":"function","name":"timelock","inputs":[],"outputs":[{"name":"","type":"address","internalType":"address"}],"stateMutability":"view"},{"type":"function","name":"token","inputs":[],"outputs":[{"name":"","type":"address","internalType":"contract IERC5805"}],"stateMutability":"view"},{"type":"function","name":"updateQuorumNumerator","inputs":[{"name":"newQuorumNumerator","type":"uint256","internalType":"uint256"}],"outputs":[],"stateMutability":"nonpayable"},{"type":"function","name":"updateTimelock","inputs":[{"name":"newTimelock","type":"address","internalType":"contract TimelockController"}],"outputs":[],"stateMutability":"nonpayable"},{"type":"function","name":"version","inputs":[],"outputs":[{"name":"","type":"string","internalType":"string"}],"stateMutability":"view"},{"type":"function","name":"votingDelay","inputs":[],"outputs":[{"name":"","type":"uint256","internalType":"uint256"}],"stateMutability":"view"},{"type":"function","name":"votingPeriod","inputs":[],"outputs":[{"name":"","type":"uint256","internalType":"uint256"}],"stateMutability":"view"},{"type":"event","name":"EIP712DomainChanged","inputs":[],"anonymous":false},{"type":"event","name":"ProposalCanceled","inputs":[{"name":"proposalId","type":"uint256","indexed":false,"internalType":"uint256"}],"anonymous":false},{"type":"event","name":"ProposalCreated","inputs":[{"name":"proposalId","type":"uint256","indexed":false,"internalType":"uint256"},{"name":"proposer","type":"address","indexed":false,"internalType":"address"},{"name":"targets","type":"address[]","indexed":false,"internalType":"address[]"},{"name":"values","type":"uint256[]","indexed":false,"internalType":"uint256[]"},{"name":"signatures","type":"string[]","indexed":false,"internalType":"string[]"},{"name":"calldatas","type":"bytes[]","indexed":false,"internalType":"bytes[]"},{"name":"voteStart","type":"uint256","indexed":false,"internalType":"uint256"},{"name":"voteEnd","type":"uint256","indexed":false,"internalType":"uint256"},{"name":"description","type":"string","indexed":false,"internalType":"string"}],"anonymous":false},{"type":"event","name":"ProposalExecuted","inputs":[{"name":"proposalId","type":"uint256","indexed":false,"internalType":"uint256"}],"anonymous":false},{"type":"event","name":"ProposalQueued","inputs":[{"name":"proposalId","type":"uint256","indexed":false,"internalType":"uint256"},{"name":"etaSeconds","type":"uint256","indexed":false,"internalType":"uint256"}],"anonymous":false},{"type":"event","name":"ProposalThresholdSet","inputs":[{"name":"oldProposalThreshold","type":"uint256","indexed":false,"internalType":"uint256"},{"name":"newProposalThreshold","type":"uint256","indexed":false,"internalType":"uint256"}],"anonymous":false},{"type":"event","name":"QuorumNumeratorUpdated","inputs":[{"name":"oldQuorumNumerator","type":"uint256","indexed":false,"internalType":"uint256"},{"name":"newQuorumNumerator","type":"uint256","indexed":false,"internalType":"uint256"}],"anonymous":false},{"type":"event","name":"TimelockChange","inputs":[{"name":"oldTimelock","type":"address","indexed":false,"internalType":"address"},{"name":"newTimelock","type":"address","indexed":false,"internalType":"address"}],"anonymous":false},{"type":"event","name":"VoteCast","inputs":[{"name":"voter","type":"address","indexed":true,"internalType":"address"},{"name":"proposalId","type":"uint256","indexed":false,"internalType":"uint256"},{"name":"support","type":"uint8","indexed":false,"internalType":"uint8"},{"name":"weight","type":"uint256","indexed":false,"internalType":"uint256"},{"name":"reason","type":"string","indexed":false,"internalType":"string"}],"anonymous":false},{"type":"event","name":"VoteCastWithParams","inputs":[{"name":"voter","type":"address","indexed":true,"internalType":"address"},{"name":"proposalId","type":"uint256","indexed":false,"internalType":"uint256"},{"name":"support","type":"uint8","indexed":false,"internalType":"uint8"},{"name":"weight","type":"uint256","indexed":false,"internalType":"uint256"},{"name":"reason","type":"string","indexed":false,"internalType":"string"},{"name":"params","type":"bytes","indexed":false,"internalType":"bytes"}],"anonymous":false},{"type":"event","name":"VotingDelaySet","inputs":[{"name":"oldVotingDelay","type":"uint256","indexed":false,"internalType":"uint256"},{"name":"newVotingDelay","type":"uint256","indexed":false,"internalType":"uint256"}],"anonymous":false},{"type":"event","name":"VotingPeriodSet","inputs":[{"name":"oldVotingPeriod","type":"uint256","indexed":false,"internalType":"uint256"},{"name":"newVotingPeriod","type":"uint256","indexed":false,"internalType":"uint256"}],"anonymous":false},{"type":"error","name":"CheckpointUnorderedInsertion","inputs":[]},{"type":"error","name":"FailedCall","inputs":[]},{"type":"error","name":"GovernorAlreadyCastVote","inputs":[{"name":"voter","type":"address","internalType":"address"}]},{"type":"error","name":"GovernorAlreadyQueuedProposal","inputs":[{"name":"proposalId","type":"uint256","internalType":"uint256"}]},{"type":"error","name":"GovernorDisabledDeposit","inputs":[]},{"type":"error","name":"GovernorInsufficientProposerVotes","inputs":[{"name":"proposer","type":"address","internalType":"address"},{"name":"votes","type":"uint256","internalType":"uint256"},{"name":"threshold","type":"uint256","internalType":"uint256"}]},{"type":"error","name":"GovernorInvalidProposalLength","inputs":[{"name":"targets","type":"uint256","internalType":"uint256"},{"name":"calldatas","type":"uint256","internalType":"uint256"},{"name":"values","type":"uint256","internalType":"uint256"}]},{"type":"error","name":"GovernorInvalidQuorumFraction","inputs":[{"name":"quorumNumerator","type":"uint256","internalType":"uint256"},{"name":"quorumDenominator","type":"uint256","internalType":"uint256"}]},{"type":"error","name":"GovernorInvalidSignature","inputs":[{"name":"voter","type":"address","internalType":"address"}]},{"type":"error","name":"GovernorInvalidVoteParams","inputs":[]},{"type":"error","name":"GovernorInvalidVoteType","inputs":[]},{"type":"error","name":"GovernorInvalidVotingPeriod","inputs":[{"name":"votingPeriod","type":"uint256","internalType":"uint256"}]},{"type":"error","name":"GovernorNonexistentProposal","inputs":[{"name":"proposalId","type":"uint256","internalType":"uint256"}]},{"type":"error","name":"GovernorOnlyExecutor","inputs":[{"name":"account","type":"address","internalType":"address"}]},{"type":"error","name":"GovernorQueueNotImplemented","inputs":[]},{"type":"error","name":"GovernorRestrictedProposer","inputs":[{"name":"proposer","type":"address","internalType":"address"}]},{"type":"error","name":"GovernorUnableToCancel","inputs":[{"name":"proposalId","type":"uint256","internalType":"uint256"},{"name":"account","type":"address","internalType":"address"}]},{"type":"error","name":"GovernorUnexpectedProposalState","inputs":[{"name":"proposalId","type":"uint256","internalType":"uint256"},{"name":"current","type":"uint8","internalType":"enum IGovernor.ProposalState"},{"name":"expectedStates","type":"bytes32","internalType":"bytes32"}]},{"type":"error","name":"InvalidAccountNonce","inputs":[{"name":"account","type":"address","internalType":"address"},{"name":"currentNonce","type":"uint256","internalType":"uint256"}]},{"type":"error","name":"InvalidShortString","inputs":[]},{"type":"error","name":"SafeCastOverflowedUintDowncast","inputs":[{"name":"bits","type":"uint8","internalType":"uint8"},{"name":"value","type":"uint256","internalType":"uint256"}]},{"type":"error","name":"StringTooLong","inputs":[{"name":"str","type":"string","internalType":"string"}]}],"bytecode":{"object":"0x610180604052348015610010575f5ffd5b50604051614cf1380380614cf183398101604081905261002f91610729565b80600483611c2061546069152d02c7e14af68000006040518060400160405280600c81526020016b29a9219023b7bb32b93737b960a11b8152508061007861017b60201b60201c565b610082825f610196565b61012052610091816001610196565b61014052815160208084019190912060e052815190820120610100524660a05261011d60e05161010051604080517f8b73c3c69bb8fe3d512ecc4cf759cc79239f7b179b0ffacaa9a75d522b39400f60208201529081019290925260608201524660808201523060a08201525f9060c00160405160208183030381529060405280519060200120905090565b60805250503060c052600361013282826107f9565b5061013e9050836101c8565b6101478261022e565b610150816102d2565b5050506001600160a01b03166101605261016981610313565b50610173816103a8565b50505061094f565b6040805180820190915260018152603160f81b602082015290565b5f6020835110156101b1576101aa83610411565b90506101c2565b816101bc84826107f9565b5060ff90505b92915050565b6008546040805165ffffffffffff928316815291831660208301527fc565b045403dc03c2eea82b81a0465edad9e2e7fc4d97e11421c209da93d7a93910160405180910390a16008805465ffffffffffff191665ffffffffffff92909216919091179055565b8063ffffffff165f0361025b5760405163f1cfbf0560e01b81525f60048201526024015b60405180910390fd5b6008546040805163ffffffff66010000000000009093048316815291831660208301527f7e3f7f0708a84de9203036abaa450dccc85ad5ff52f78c170f3edb55cf5e8828910160405180910390a16008805463ffffffff90921666010000000000000263ffffffff60301b19909216919091179055565b60075460408051918252602082018390527fccb45da8d5717e6c4544694297c4ba5cf151d455c9bb0ed4fc7a38411bc05461910160405180910390a1600755565b6064808211156103405760405163243e544560e01b81526004810183905260248101829052604401610252565b5f61034961044e565b9050610368610356610467565b61035f856104e1565b600a9190610518565b505060408051828152602081018590527f0553476bf02ef2726e8ce5ced78d63e26e602e4a2257b1f559418e24b4633997910160405180910390a1505050565b600b54604080516001600160a01b03928316815291831660208301527f08f74ea46ef7894f65eabfb5e6e695de773a000b47c529ab559178069b226401910160405180910390a1600b80546001600160a01b0319166001600160a01b0392909216919091179055565b5f5f829050601f8151111561043b578260405163305a27a960e01b815260040161025291906108b3565b8051610446826108e8565b179392505050565b5f610459600a610532565b6001600160d01b0316905090565b5f6104726101605190565b6001600160a01b03166391ddadf46040518163ffffffff1660e01b8152600401602060405180830381865afa9250505080156104cb575060408051601f3d908101601f191682019092526104c89181019061090b565b60015b6104dc576104d761057a565b905090565b919050565b5f6001600160d01b03821115610514576040516306dfcc6560e41b815260d0600482015260248101839052604401610252565b5090565b5f80610525858585610584565b915091505b935093915050565b80545f908015610571576105588361054b600184610930565b5f91825260209091200190565b54660100000000000090046001600160d01b0316610573565b5f5b9392505050565b5f6104d7436106e0565b82545f9081908015610683575f6105a08761054b600185610930565b805490915065ffffffffffff80821691660100000000000090046001600160d01b03169088168211156105e657604051632520601d60e01b815260040160405180910390fd5b8765ffffffffffff168265ffffffffffff160361062257825465ffffffffffff1666010000000000006001600160d01b03891602178355610675565b6040805180820190915265ffffffffffff808a1682526001600160d01b03808a1660208085019182528d54600181018f555f8f815291909120945191519092166601000000000000029216919091179101555b945085935061052a92505050565b50506040805180820190915265ffffffffffff80851682526001600160d01b0380851660208085019182528854600181018a555f8a815291822095519251909316660100000000000002919093161792019190915590508161052a565b5f65ffffffffffff821115610514576040516306dfcc6560e41b81526030600482015260248101839052604401610252565b6001600160a01b0381168114610726575f5ffd5b50565b5f5f6040838503121561073a575f5ffd5b825161074581610712565b602084015190925061075681610712565b809150509250929050565b634e487b7160e01b5f52604160045260245ffd5b600181811c9082168061078957607f821691505b6020821081036107a757634e487b7160e01b5f52602260045260245ffd5b50919050565b601f8211156107f457805f5260205f20601f840160051c810160208510156107d25750805b601f840160051c820191505b818110156107f1575f81556001016107de565b50505b505050565b81516001600160401b0381111561081257610812610761565b610826816108208454610775565b846107ad565b6020601f821160018114610858575f83156108415750848201515b5f19600385901b1c1916600184901b1784556107f1565b5f84815260208120601f198516915b828110156108875787850151825560209485019460019092019101610867565b50848210156108a457868401515f19600387901b60f8161c191681555b50505050600190811b01905550565b602081525f82518060208401528060208501604085015e5f604082850101526040601f19601f83011684010191505092915050565b805160208083015191908110156107a7575f1960209190910360031b1b16919050565b5f6020828403121561091b575f5ffd5b815165ffffffffffff81168114610573575f5ffd5b818103818111156101c257634e487b7160e01b5f52601160045260245ffd5b60805160a05160c05160e0516101005161012051610140516101605161432b6109c65f395f81816109c101528181610e31015281816111fe01528181611df0015261206b01525f611d3401525f611d0801525f612e4401525f612e1c01525f612d7701525f612da101525f612dcb015261432b5ff3fe6080604052600436106102a8575f3560e01c80637ecebe001161016f578063bc197c81116100d8578063deaaa7cc11610092578063ece40cc11161006d578063ece40cc114610956578063f23a6e6114610975578063f8ce560a14610994578063fc0c546a146109b3575f5ffd5b8063deaaa7cc146108e5578063e540d01d14610918578063eb9019d414610937575f5ffd5b8063bc197c8114610813578063c01f9e3714610832578063c28bc2fa14610851578063c59057e414610864578063d33219b414610883578063dd4e2ba5146108a0575f5ffd5b8063a7713a7011610129578063a7713a7014610758578063a890c9101461076c578063a8f8a6681461078b578063a9a95294146107aa578063ab58fb8e146107c9578063b58131b0146107ff575f5ffd5b80637ecebe001461068157806384b0196e146106b55780638ff262e3146106dc57806391ddadf4146106fb57806397c3d334146107265780639a802a6d14610739575f5ffd5b806343859632116102115780635b8d0e0d116101cb5780635b8d0e0d146105c75780635f398a14146105e657806360c4247f1461060557806379051887146106245780637b3c71d3146106435780637d5e81e214610662575f5ffd5b806343859632146104ca578063452115d6146105125780634bf5d7e914610531578063544ffc9c1461054557806354fd4d501461057f57806356781388146105a8575f5ffd5b8063160cbed711610262578063160cbed7146104065780632656227d146104255780632d63f693146104385780632fe3e261146104575780633932abb11461048a5780633e4f49e61461049e575f5ffd5b806301ffc9a7146102e357806302a251a31461031757806306f3f9e61461034257806306fdde0314610361578063143489d014610382578063150b7a02146103ce575f5ffd5b366102df57306102b66109e5565b6001600160a01b0316146102dd57604051637485328f60e11b815260040160405180910390fd5b005b5f5ffd5b3480156102ee575f5ffd5b506103026102fd36600461335d565b6109fd565b60405190151581526020015b60405180910390f35b348015610322575f5ffd5b50600854600160301b900463ffffffff165b60405190815260200161030e565b34801561034d575f5ffd5b506102dd61035c366004613384565b610a69565b34801561036c575f5ffd5b50610375610a7d565b60405161030e91906133c9565b34801561038d575f5ffd5b506103b661039c366004613384565b5f908152600460205260409020546001600160a01b031690565b6040516001600160a01b03909116815260200161030e565b3480156103d9575f5ffd5b506103ed6103e83660046134b2565b610b0d565b6040516001600160e01b0319909116815260200161030e565b348015610411575f5ffd5b50610334610420366004613678565b610b4f565b610334610433366004613678565b610c1b565b348015610443575f5ffd5b50610334610452366004613384565b610d8b565b348015610462575f5ffd5b506103347f3e83946653575f9a39005e1545185629e92736b7528ab20ca3816f315424a81181565b348015610495575f5ffd5b50610334610dab565b3480156104a9575f5ffd5b506104bd6104b8366004613384565b610dbd565b60405161030e919061373f565b3480156104d5575f5ffd5b506103026104e436600461374d565b5f8281526009602090815260408083206001600160a01b038516845260030190915290205460ff1692915050565b34801561051d575f5ffd5b5061033461052c366004613678565b610dc7565b34801561053c575f5ffd5b50610375610e2d565b348015610550575f5ffd5b5061056461055f366004613384565b610eed565b6040805193845260208401929092529082015260600161030e565b34801561058a575f5ffd5b506040805180820190915260018152603160f81b6020820152610375565b3480156105b3575f5ffd5b506103346105c236600461378b565b610f12565b3480156105d2575f5ffd5b506103346105e13660046137f9565b610f39565b3480156105f1575f5ffd5b506103346106003660046138b5565b610ff6565b348015610610575f5ffd5b5061033461061f366004613384565b61103e565b34801561062f575f5ffd5b506102dd61063e366004613949565b61104a565b34801561064e575f5ffd5b5061033461065d366004613964565b61105b565b34801561066d575f5ffd5b5061033461067c3660046139b9565b6110ab565b34801561068c575f5ffd5b5061033461069b366004613a75565b6001600160a01b03165f9081526002602052604090205490565b3480156106c0575f5ffd5b506106c9611161565b60405161030e9796959493929190613aca565b3480156106e7575f5ffd5b506103346106f6366004613b39565b6111a3565b348015610706575f5ffd5b5061070f6111fb565b60405165ffffffffffff909116815260200161030e565b348015610731575f5ffd5b506064610334565b348015610744575f5ffd5b50610334610753366004613b86565b611282565b348015610763575f5ffd5b50610334611298565b348015610777575f5ffd5b506102dd610786366004613a75565b6112b1565b348015610796575f5ffd5b506103346107a5366004613678565b6112c2565b3480156107b5575f5ffd5b506103026107c4366004613384565b6112cf565b3480156107d4575f5ffd5b506103346107e3366004613384565b5f9081526004602052604090206001015465ffffffffffff1690565b34801561080a575f5ffd5b506103346112d7565b34801561081e575f5ffd5b506103ed61082d366004613bda565b6112e1565b34801561083d575f5ffd5b5061033461084c366004613384565b611324565b6102dd61085f366004613c71565b611366565b34801561086f575f5ffd5b5061033461087e366004613678565b6113e2565b34801561088e575f5ffd5b50600b546001600160a01b03166103b6565b3480156108ab575f5ffd5b506040805180820190915260208082527f737570706f72743d627261766f2671756f72756d3d666f722c6162737461696e90820152610375565b3480156108f0575f5ffd5b506103347ff2aad550cf55f045cb27e9c559f9889fdfb6e6cdaa032301d6ea397784ae51d781565b348015610923575f5ffd5b506102dd610932366004613cb0565b61141b565b348015610942575f5ffd5b50610334610951366004613cd3565b61142c565b348015610961575f5ffd5b506102dd610970366004613384565b61144b565b348015610980575f5ffd5b506103ed61098f366004613cfd565b61145c565b34801561099f575f5ffd5b506103346109ae366004613384565b61149f565b3480156109be575f5ffd5b507f00000000000000000000000000000000000000000000000000000000000000006103b6565b5f6109f8600b546001600160a01b031690565b905090565b5f6001600160e01b031982166366defe7760e11b1480610a2d57506001600160e01b031982166332a2ad4360e11b145b80610a4857506001600160e01b03198216630271189760e51b145b80610a6357506301ffc9a760e01b6001600160e01b03198316145b92915050565b610a716114a9565b610a7a81611522565b50565b606060038054610a8c90613d54565b80601f0160208091040260200160405190810160405280929190818152602001828054610ab890613d54565b8015610b035780601f10610ada57610100808354040283529160200191610b03565b820191905f5260205f20905b815481529060010190602001808311610ae657829003601f168201915b5050505050905090565b5f30610b176109e5565b6001600160a01b031614610b3e57604051637485328f60e11b815260040160405180910390fd5b50630a85bd0160e11b949350505050565b5f5f610b5d868686866112c2565b9050610b7281610b6d60046115b7565b6115d9565b505f610b818288888888611616565b905065ffffffffffff811615610bf8575f82815260046020908152604091829020600101805465ffffffffffff191665ffffffffffff85169081179091558251858152918201527f9a2e42fd6722813d69113e7d0079d3d940171428df7373df9c7f7617cfda2892910160405180910390a1610c11565b604051634844252360e11b815260040160405180910390fd5b5095945050505050565b5f5f610c29868686866112c2565b90505f610c35826112cf565b9050610c5182610b6d83610c4a5760046115b7565b60056115b7565b505f828152600460205260409020805460ff60f01b1916600160f01b17905530610c796109e5565b6001600160a01b031614610d02575f5b8751811015610d0057306001600160a01b0316888281518110610cae57610cae613d8c565b60200260200101516001600160a01b031603610cf857610cf8868281518110610cd957610cd9613d8c565b602002602001015180519060200120600561162490919063ffffffff16565b600101610c89565b505b610d0f8288888888611645565b30610d186109e5565b6001600160a01b031614158015610d4457506005546001600160801b03808216600160801b9092041614155b15610d4e575f6005555b6040518281527f712ae1383f79ac853f8d882153778e0260ef8f03b504e2866e0593e04d2b291f9060200160405180910390a15095945050505050565b5f90815260046020526040902054600160a01b900465ffffffffffff1690565b5f6109f860085465ffffffffffff1690565b5f610a6382611659565b5f5f610dd5868686866112c2565b905033610de28282611792565b610e1657604051638fe5d8a960e01b8152600481018390526001600160a01b03821660248201526044015b60405180910390fd5b610e22878787876117d7565b979650505050505050565b60607f00000000000000000000000000000000000000000000000000000000000000006001600160a01b0316634bf5d7e96040518163ffffffff1660e01b81526004015f60405180830381865afa925050508015610eac57506040513d5f823e601f3d908101601f19168201604052610ea99190810190613da0565b60015b610ee8575060408051808201909152601d81527f6d6f64653d626c6f636b6e756d6265722666726f6d3d64656661756c74000000602082015290565b919050565b5f818152600960205260409020805460018201546002909201549091905b9193909250565b5f80339050610f3184828560405180602001604052805f8152506117e4565b949350505050565b5f610f7f88888888888080601f0160208091040260200160405190810160405280939291908181526020018383808284375f920191909152508a92508991506118059050565b610fa7576040516394ab6c0760e01b81526001600160a01b0387166004820152602401610e0d565b610fea88878988888080601f0160208091040260200160405190810160405280939291908181526020018383808284375f920191909152508a92506118d2915050565b98975050505050505050565b5f80339050610e2287828888888080601f0160208091040260200160405190810160405280939291908181526020018383808284375f920191909152508a92506118d2915050565b5f610a63600a836119b0565b6110526114a9565b610a7a816119fd565b5f803390506110a186828787878080601f0160208091040260200160405190810160405280939291908181526020018383808284375f920191909152506117e492505050565b9695505050505050565b5f336110b78184611a63565b6110df5760405163d9b3955760e01b81526001600160a01b0382166004820152602401610e0d565b5f6110e86112d7565b90508015611154575f6111168360016110ff6111fb565b6111099190613e28565b65ffffffffffff1661142c565b90508181101561115257604051636121770b60e11b81526001600160a01b03841660048201526024810182905260448101839052606401610e0d565b505b610e228787878786611ae7565b5f6060805f5f5f6060611172611d01565b61117a611d2d565b604080515f80825260208201909252600f60f81b9b939a50919850469750309650945092509050565b5f6111b085858585611d5a565b6111d8576040516394ab6c0760e01b81526001600160a01b0384166004820152602401610e0d565b6111f285848660405180602001604052805f8152506117e4565b95945050505050565b5f7f00000000000000000000000000000000000000000000000000000000000000006001600160a01b03166391ddadf46040518163ffffffff1660e01b8152600401602060405180830381865afa925050508015611276575060408051601f3d908101601f1916820190925261127391810190613e46565b60015b610ee8576109f8611de3565b5f61128e848484611ded565b90505b9392505050565b5f6112a3600a611e80565b6001600160d01b0316905090565b6112b96114a9565b610a7a81611ec4565b5f6111f2858585856113e2565b5f6001610a63565b5f6109f860075490565b5f306112eb6109e5565b6001600160a01b03161461131257604051637485328f60e11b815260040160405180910390fd5b5063bc197c8160e01b95945050505050565b5f8181526004602052604081205461135890600160d01b810463ffffffff1690600160a01b900465ffffffffffff16613e61565b65ffffffffffff1692915050565b61136e6114a9565b5f5f856001600160a01b031685858560405161138b929190613e7f565b5f6040518083038185875af1925050503d805f81146113c5576040519150601f19603f3d011682016040523d82523d5f602084013e6113ca565b606091505b50915091506113d98282611f2d565b50505050505050565b5f848484846040516020016113fa9493929190613f21565b60408051601f19818403018152919052805160209091012095945050505050565b6114236114a9565b610a7a81611f6a565b5f611291838361144660408051602081019091525f815290565b611ded565b6114536114a9565b610a7a81612006565b5f306114666109e5565b6001600160a01b03161461148d57604051637485328f60e11b815260040160405180910390fd5b5063f23a6e6160e01b95945050505050565b5f610a6382612047565b336114b26109e5565b6001600160a01b0316146114db576040516347096e4760e01b8152336004820152602401610e0d565b306114e46109e5565b6001600160a01b031614611520575f8036604051611503929190613e7f565b604051809103902090505b8061151960056120e4565b0361150e57505b565b60648082111561154f5760405163243e544560e01b81526004810183905260248101829052604401610e0d565b5f611558611298565b90506115776115656111fb565b61156e85612103565b600a919061213a565b505060408051828152602081018590527f0553476bf02ef2726e8ce5ced78d63e26e602e4a2257b1f559418e24b4633997910160405180910390a1505050565b5f8160078111156115ca576115ca61370b565b600160ff919091161b92915050565b5f5f6115e484610dbd565b90505f836115f1836115b7565b1603611291578381846040516331b75e4d60e01b8152600401610e0d93929190613f6b565b5f6110a18686868686612154565b5f61162f83836122e5565b90508061164057611640604161234a565b505050565b611652858585858561235b565b5050505050565b5f5f611664836123eb565b9050600581600781111561167a5761167a61370b565b146116855792915050565b5f838152600c60205260409081902054600b549151632c258a9f60e11b81526004810182905290916001600160a01b03169063584b153e90602401602060405180830381865afa1580156116db573d5f5f3e3d5ffd5b505050506040513d601f19601f820116820180604052508101906116ff9190613f8d565b1561170e575060059392505050565b600b54604051632ab0f52960e01b8152600481018390526001600160a01b0390911690632ab0f52990602401602060405180830381865afa158015611755573d5f5f3e3d5ffd5b505050506040513d601f19601f820116820180604052508101906117799190613f8d565b15611788575060079392505050565b5060029392505050565b5f8061179d84610dbd565b60078111156117ae576117ae61370b565b1480156112915750505f91825260046020526040909120546001600160a01b0391821691161490565b5f6111f28585858561251c565b5f6111f28585858561180060408051602081019091525f815290565b6118d2565b5f610e22856118cc7f3e83946653575f9a39005e1545185629e92736b7528ab20ca3816f315424a8118a8a8a6118578c6001600160a01b03165f90815260026020526040902080546001810190915590565b8b516020808e01919091208c518d8301206040516118b198979695949301968752602087019590955260ff9390931660408601526001600160a01b03919091166060850152608084015260a083015260c082015260e00190565b604051602081830303815290604052805190602001206125b3565b846125df565b5f6118e186610b6d60016115b7565b505f6118f6866118f089610d8b565b85611ded565b90505f611906888888858861264f565b905083515f0361195c57866001600160a01b03167fb8e138887d0aa13bab447e82de9d5c1777041ecd21ca36ba824ff1e6c07ddda48988848960405161194f9493929190613fac565b60405180910390a2610e22565b866001600160a01b03167fe2babfbac5889a709b63bb7f598b324e08bc5a4fb9ec647fb3cbc9ec07eb8712898884898960405161199d959493929190613fd3565b60405180910390a2979650505050505050565b5f5f5f6119bc8561274b565b9250925050838265ffffffffffff1611156119e9576119e46119dd856127a3565b86906127d5565b6119eb565b805b6001600160d01b031695945050505050565b6008546040805165ffffffffffff928316815291831660208301527fc565b045403dc03c2eea82b81a0465edad9e2e7fc4d97e11421c209da93d7a93910160405180910390a16008805465ffffffffffff191665ffffffffffff92909216919091179055565b80515f906034811015611a7a576001915050610a63565b60131981840101516001600160b01b03198116692370726f706f7365723d60b01b14611aab57600192505050610a63565b5f5f611abb86602a860386612877565b91509150811580610e225750866001600160a01b0316816001600160a01b031614979650505050505050565b5f611afb86868686805190602001206112c2565b905084518651141580611b1057508351865114155b80611b1a57508551155b15611b4f57855184518651604051630447b05d60e41b8152600481019390935260248301919091526044820152606401610e0d565b5f81815260046020526040902054600160a01b900465ffffffffffff1615611b985780611b7b82610dbd565b6040516331b75e4d60e01b8152610e0d9291905f90600401613f6b565b5f611ba1610dab565b611ba96111fb565b65ffffffffffff16611bbb919061400c565b90505f611bd560085463ffffffff600160301b9091041690565b5f84815260046020526040902080546001600160a01b0319166001600160a01b038716178155909150611c07836127a3565b815465ffffffffffff91909116600160a01b0265ffffffffffff60a01b19909116178155611c3482612920565b815463ffffffff91909116600160d01b0263ffffffff60d01b1990911617815588517f7d84a6263ae0d98d3329bd7b46bb4e8d6f98cd35a7adb45c274c8b7fd5ebd5e090859087908c908c906001600160401b03811115611c9757611c976133ef565b604051908082528060200260200182016040528015611cca57816020015b6060815260200190600190039081611cb55790505b508c89611cd78a8261400c565b8e604051611ced9998979695949392919061401f565b60405180910390a150505095945050505050565b60606109f87f00000000000000000000000000000000000000000000000000000000000000005f612950565b60606109f87f00000000000000000000000000000000000000000000000000000000000000006001612950565b5f6111f2836118cc7ff2aad550cf55f045cb27e9c559f9889fdfb6e6cdaa032301d6ea397784ae51d7888888611dac8a6001600160a01b03165f90815260026020526040902080546001810190915590565b60408051602081019690965285019390935260ff90911660608401526001600160a01b0316608083015260a082015260c0016118b1565b5f6109f8436127a3565b5f7f0000000000000000000000000000000000000000000000000000000000000000604051630748d63560e31b81526001600160a01b038681166004830152602482018690529190911690633a46b1a890604401602060405180830381865afa158015611e5c573d5f5f3e3d5ffd5b505050506040513d601f19601f8201168201806040525081019061128e91906140fa565b80545f908015611ebc57611ea683611e99600184614111565b5f91825260209091200190565b54600160301b90046001600160d01b0316611291565b5f9392505050565b600b54604080516001600160a01b03928316815291831660208301527f08f74ea46ef7894f65eabfb5e6e695de773a000b47c529ab559178069b226401910160405180910390a1600b80546001600160a01b0319166001600160a01b0392909216919091179055565b60608215611f3c575080610a63565b815115611f5157611f4c826129f9565b610a63565b60405163d6bda27560e01b815260040160405180910390fd5b8063ffffffff165f03611f925760405163f1cfbf0560e01b81525f6004820152602401610e0d565b6008546040805163ffffffff600160301b9093048316815291831660208301527f7e3f7f0708a84de9203036abaa450dccc85ad5ff52f78c170f3edb55cf5e8828910160405180910390a16008805463ffffffff909216600160301b0269ffffffff00000000000019909216919091179055565b60075460408051918252602082018390527fccb45da8d5717e6c4544694297c4ba5cf151d455c9bb0ed4fc7a38411bc05461910160405180910390a1600755565b604051632394e7a360e21b8152600481018290525f90610a63906001600160a01b037f00000000000000000000000000000000000000000000000000000000000000001690638e539e8c90602401602060405180830381865afa1580156120b0573d5f5f3e3d5ffd5b505050506040513d601f19601f820116820180604052508101906120d491906140fa565b6120dd8461103e565b6064612a01565b5f5f5f6120f084612ab1565b915091508161129157611291603161234a565b5f6001600160d01b03821115612136576040516306dfcc6560e41b815260d0600482015260248101839052604401610e0d565b5090565b5f80612147858585612b25565b915091505b935093915050565b5f5f600b5f9054906101000a90046001600160a01b03166001600160a01b031663f27a0c926040518163ffffffff1660e01b8152600401602060405180830381865afa1580156121a6573d5f5f3e3d5ffd5b505050506040513d601f19601f820116820180604052508101906121ca91906140fa565b90505f3060601b6bffffffffffffffffffffffff19168418600b5460405163b1c5f42760e01b81529192506001600160a01b03169063b1c5f4279061221b908a908a908a905f908890600401614124565b602060405180830381865afa158015612236573d5f5f3e3d5ffd5b505050506040513d601f19601f8201168201806040525081019061225a91906140fa565b5f898152600c602052604080822092909255600b5491516308f2a0bb60e41b81526001600160a01b0390921691638f2a0bb0916122a4918b918b918b919088908a90600401614171565b5f604051808303815f87803b1580156122bb575f5ffd5b505af11580156122cd573d5f5f3e3d5ffd5b50505050610fea82426122e0919061400c565b6127a3565b81545f906001600160801b03600160801b820481169181166001830190911603612312575f915050610a63565b6001600160801b038181165f908152600186810160205260409091209490945584549184018116600160801b02911617909255919050565b634e487b715f52806020526024601cfd5b600b546001600160a01b031663e38335e5348686865f3060601b6bffffffffffffffffffffffff191688186040518763ffffffff1660e01b81526004016123a6959493929190614124565b5f604051808303818588803b1580156123bd575f5ffd5b505af11580156123cf573d5f5f3e3d5ffd5b5050505f9687525050600c602052505060408320929092555050565b5f818152600460205260408120805460ff600160f01b8204811691600160f81b900416811561241f57506007949350505050565b801561243057506002949350505050565b5f61243a86610d8b565b9050805f0361245f57604051636ad0607560e01b815260048101879052602401610e0d565b5f6124686111fb565b65ffffffffffff16905080821061248557505f9695505050505050565b5f61248f88611324565b90508181106124a657506001979650505050505050565b6124af88612c75565b15806124ce57505f888152600960205260409020805460019091015411155b156124e157506003979650505050505050565b5f8881526004602052604090206001015465ffffffffffff165f0361250e57506004979650505050505050565b506005979650505050505050565b5f5f61252a86868686612cab565b5f818152600c60205260409020549091508015610c1157600b5460405163c4d252f560e01b8152600481018390526001600160a01b039091169063c4d252f5906024015f604051808303815f87803b158015612584575f5ffd5b505af1158015612596573d5f5f3e3d5ffd5b5050505f838152600c602052604081205550509050949350505050565b5f610a636125bf612d6b565b8360405161190160f01b8152600281019290925260228201526042902090565b5f836001600160a01b03163b5f0361263d575f5f6125fd8585612e94565b5090925090505f8160038111156126165761261661370b565b1480156126345750856001600160a01b0316826001600160a01b0316145b92505050611291565b612648848484612edd565b9050611291565b5f8581526009602090815260408083206001600160a01b03881684526003810190925282205460ff16156126a1576040516371c6af4960e01b81526001600160a01b0387166004820152602401610e0d565b6001600160a01b0386165f9081526003820160205260409020805460ff1916600117905560ff85166126ea5783815f015f8282546126df919061400c565b909155506127409050565b5f1960ff8616016127085783816001015f8282546126df919061400c565b60011960ff8616016127275783816002015f8282546126df919061400c565b6040516303599be160e11b815260040160405180910390fd5b509195945050505050565b80545f9081908190808203612769575f5f5f93509350935050610f0b565b5f61277986611e99600185614111565b546001955065ffffffffffff81169450600160301b90046001600160d01b03169250610f0b915050565b5f65ffffffffffff821115612136576040516306dfcc6560e41b81526030600482015260248101839052604401610e0d565b81545f9081816005811115612831575f6127ee84612f2e565b6127f89085614111565b5f8881526020902090915081015465ffffffffffff90811690871610156128215780915061282f565b61282c81600161400c565b92505b505b5f61283e87878585613086565b9050801561286b5761285587611e99600184614111565b54600160301b90046001600160d01b0316610e22565b505f9695505050505050565b5f5f845183118061288757508284115b1561289657505f90508061214c565b5f6128a285600161400c565b841180156128ca575061060f60f31b6128be8787016020015190565b6001600160f01b031916145b90505f6128da82151560026141c8565b6128e590602861400c565b9050806128f28787614111565b03612913575f5f6129048989896130dc565b909650945061214c9350505050565b5f5f93509350505061214c565b5f63ffffffff821115612136576040516306dfcc6560e41b81526020600482015260248101839052604401610e0d565b606060ff831461296a576129638361319d565b9050610a63565b81805461297690613d54565b80601f01602080910402602001604051908101604052809291908181526020018280546129a290613d54565b80156129ed5780601f106129c4576101008083540402835291602001916129ed565b820191905f5260205f20905b8154815290600101906020018083116129d057829003601f168201915b50505050509050610a63565b805160208201fd5b5f5f5f612a0e86866131da565b91509150815f03612a3257838181612a2857612a286141df565b0492505050611291565b818411612a4957612a49600385150260111861234a565b5f848688095f868103871696879004966002600389028118808a02820302808a02820302808a02820302808a02820302808a02820302808a02909103029181900381900460010185841190960395909502919093039390930492909217029150509392505050565b80545f9081906001600160801b0380821691600160801b9004168103612adc57505f93849350915050565b6001600160801b038181165f908152600186810160205260408220805492905586546fffffffffffffffffffffffffffffffff1916938101909216929092179094559293915050565b82545f9081908015612c1b575f612b4187611e99600185614111565b805490915065ffffffffffff80821691600160301b90046001600160d01b0316908816821115612b8457604051632520601d60e01b815260040160405180910390fd5b8765ffffffffffff168265ffffffffffff1603612bbd57825465ffffffffffff16600160301b6001600160d01b03891602178355612c0d565b6040805180820190915265ffffffffffff808a1682526001600160d01b03808a1660208085019182528d54600181018f555f8f81529190912094519151909216600160301b029216919091179101555b945085935061214c92505050565b50506040805180820190915265ffffffffffff80851682526001600160d01b0380851660208085019182528854600181018a555f8a815291822095519251909316600160301b02919093161792019190915590508161214c565b5f81815260096020526040812060028101546001820154612c96919061400c565b612ca26109ae85610d8b565b11159392505050565b5f5f612cb9868686866112c2565b9050612d0781612cc960076115b7565b612cd360066115b7565b612cdd60026115b7565b6001612cea6007826141f3565b612cf59060026142e7565b612cff9190614111565b1818186115d9565b505f818152600460205260409081902080546001600160f81b0316600160f81b179055517f789cf55be980739dad1d0699b93b58e806b51c9d96619bfa8fe0a28abaa7b30c90612d5a9083815260200190565b60405180910390a195945050505050565b5f306001600160a01b037f000000000000000000000000000000000000000000000000000000000000000016148015612dc357507f000000000000000000000000000000000000000000000000000000000000000046145b15612ded57507f000000000000000000000000000000000000000000000000000000000000000090565b6109f8604080517f8b73c3c69bb8fe3d512ecc4cf759cc79239f7b179b0ffacaa9a75d522b39400f60208201527f0000000000000000000000000000000000000000000000000000000000000000918101919091527f000000000000000000000000000000000000000000000000000000000000000060608201524660808201523060a08201525f9060c00160405160208183030381529060405280519060200120905090565b5f5f5f8351604103612ecb576020840151604085015160608601515f1a612ebd888285856131f6565b955095509550505050612ed6565b505081515f91506002905b9250925092565b805160408051630b135d3f60e11b8082526004820186905260248201929092525f92906020820185604483015e60205f60648401838a5afa9050825f5114601f3d1116811693505050509392505050565b5f60018211612f3b575090565b816001600160801b8210612f545760809190911c9060401b5b680100000000000000008210612f6f5760409190911c9060201b5b6401000000008210612f865760209190911c9060101b5b620100008210612f9b5760109190911c9060081b5b6101008210612faf5760089190911c9060041b5b60108210612fc25760049190911c9060021b5b60048210612fce5760011b5b600302600190811c90818581612fe657612fe66141df565b048201901c90506001818581612ffe57612ffe6141df565b048201901c90506001818581613016576130166141df565b048201901c9050600181858161302e5761302e6141df565b048201901c90506001818581613046576130466141df565b048201901c9050600181858161305e5761305e6141df565b048201901c905061307d818581613077576130776141df565b04821190565b90039392505050565b5f5b818310156130d4575f85815260209020838316600285851804019081015465ffffffffffff868116911611156130c0578092506130ce565b6130cb81600161400c565b93505b50613088565b509392505050565b5f8084816130eb86600161400c565b85118015613113575061060f60f31b6131078388016020015190565b6001600160f01b031916145b90505f61312382151560026141c8565b90505f80613131838a61400c565b90505b8781101561318c575f61315261314d8784016020015190565b6132be565b9050600f8160ff161115613171575f5f9750975050505050505061214c565b61317c6010846141c8565b60ff909116019150600101613134565b506001999098509650505050505050565b60605f6131a983613336565b6040805160208082528183019092529192505f91906020820181803683375050509182525060208101929092525090565b5f805f1983850993909202808410938190039390930393915050565b5f80807f7fffffffffffffffffffffffffffffff5d576e7357a4501ddfe92f46681b20a084111561322f57505f915060039050826132b4565b604080515f808252602082018084528a905260ff891692820192909252606081018790526080810186905260019060a0016020604051602081039080840390855afa158015613280573d5f5f3e3d5ffd5b5050604051601f1901519150506001600160a01b0381166132ab57505f9250600191508290506132b4565b92505f91508190505b9450945094915050565b5f60f882901c602f811180156132d75750603a8160ff16105b156132e557602f1901610a63565b60608160ff161180156132fb575060678160ff16105b156133095760561901610a63565b60408160ff1611801561331f575060478160ff16105b1561332d5760361901610a63565b5060ff92915050565b5f60ff8216601f811115610a6357604051632cd44ac360e21b815260040160405180910390fd5b5f6020828403121561336d575f5ffd5b81356001600160e01b031981168114611291575f5ffd5b5f60208284031215613394575f5ffd5b5035919050565b5f81518084528060208401602086015e5f602082860101526020601f19601f83011685010191505092915050565b602081525f611291602083018461339b565b6001600160a01b0381168114610a7a575f5ffd5b634e487b7160e01b5f52604160045260245ffd5b604051601f8201601f191681016001600160401b038111828210171561342b5761342b6133ef565b604052919050565b5f6001600160401b0382111561344b5761344b6133ef565b50601f01601f191660200190565b5f61346b61346684613433565b613403565b905082815283838301111561347e575f5ffd5b828260208301375f602084830101529392505050565b5f82601f8301126134a3575f5ffd5b61129183833560208501613459565b5f5f5f5f608085870312156134c5575f5ffd5b84356134d0816133db565b935060208501356134e0816133db565b92506040850135915060608501356001600160401b03811115613501575f5ffd5b61350d87828801613494565b91505092959194509250565b5f6001600160401b03821115613531576135316133ef565b5060051b60200190565b5f82601f83011261354a575f5ffd5b813561355861346682613519565b8082825260208201915060208360051b860101925085831115613579575f5ffd5b602085015b83811015610c11578035613591816133db565b83526020928301920161357e565b5f82601f8301126135ae575f5ffd5b81356135bc61346682613519565b8082825260208201915060208360051b8601019250858311156135dd575f5ffd5b602085015b83811015610c115780358352602092830192016135e2565b5f82601f830112613609575f5ffd5b813561361761346682613519565b8082825260208201915060208360051b860101925085831115613638575f5ffd5b602085015b83811015610c115780356001600160401b0381111561365a575f5ffd5b613669886020838a0101613494565b8452506020928301920161363d565b5f5f5f5f6080858703121561368b575f5ffd5b84356001600160401b038111156136a0575f5ffd5b6136ac8782880161353b565b94505060208501356001600160401b038111156136c7575f5ffd5b6136d38782880161359f565b93505060408501356001600160401b038111156136ee575f5ffd5b6136fa878288016135fa565b949793965093946060013593505050565b634e487b7160e01b5f52602160045260245ffd5b6008811061373b57634e487b7160e01b5f52602160045260245ffd5b9052565b60208101610a63828461371f565b5f5f6040838503121561375e575f5ffd5b823591506020830135613770816133db565b809150509250929050565b803560ff81168114610ee8575f5ffd5b5f5f6040838503121561379c575f5ffd5b823591506137ac6020840161377b565b90509250929050565b5f5f83601f8401126137c5575f5ffd5b5081356001600160401b038111156137db575f5ffd5b6020830191508360208285010111156137f2575f5ffd5b9250929050565b5f5f5f5f5f5f5f60c0888a03121561380f575f5ffd5b8735965061381f6020890161377b565b9550604088013561382f816133db565b945060608801356001600160401b03811115613849575f5ffd5b6138558a828b016137b5565b90955093505060808801356001600160401b03811115613873575f5ffd5b61387f8a828b01613494565b92505060a08801356001600160401b0381111561389a575f5ffd5b6138a68a828b01613494565b91505092959891949750929550565b5f5f5f5f5f608086880312156138c9575f5ffd5b853594506138d96020870161377b565b935060408601356001600160401b038111156138f3575f5ffd5b6138ff888289016137b5565b90945092505060608601356001600160401b0381111561391d575f5ffd5b61392988828901613494565b9150509295509295909350565b65ffffffffffff81168114610a7a575f5ffd5b5f60208284031215613959575f5ffd5b813561129181613936565b5f5f5f5f60608587031215613977575f5ffd5b843593506139876020860161377b565b925060408501356001600160401b038111156139a1575f5ffd5b6139ad878288016137b5565b95989497509550505050565b5f5f5f5f608085870312156139cc575f5ffd5b84356001600160401b038111156139e1575f5ffd5b6139ed8782880161353b565b94505060208501356001600160401b03811115613a08575f5ffd5b613a148782880161359f565b93505060408501356001600160401b03811115613a2f575f5ffd5b613a3b878288016135fa565b92505060608501356001600160401b03811115613a56575f5ffd5b8501601f81018713613a66575f5ffd5b61350d87823560208401613459565b5f60208284031215613a85575f5ffd5b8135611291816133db565b5f8151808452602084019350602083015f5b82811015613ac0578151865260209586019590910190600101613aa2565b5093949350505050565b60ff60f81b8816815260e060208201525f613ae860e083018961339b565b8281036040840152613afa818961339b565b606084018890526001600160a01b038716608085015260a0840186905283810360c08501529050613b2b8185613a90565b9a9950505050505050505050565b5f5f5f5f60808587031215613b4c575f5ffd5b84359350613b5c6020860161377b565b92506040850135613b6c816133db565b915060608501356001600160401b03811115613501575f5ffd5b5f5f5f60608486031215613b98575f5ffd5b8335613ba3816133db565b92506020840135915060408401356001600160401b03811115613bc4575f5ffd5b613bd086828701613494565b9150509250925092565b5f5f5f5f5f60a08688031215613bee575f5ffd5b8535613bf9816133db565b94506020860135613c09816133db565b935060408601356001600160401b03811115613c23575f5ffd5b613c2f8882890161359f565b93505060608601356001600160401b03811115613c4a575f5ffd5b613c568882890161359f565b92505060808601356001600160401b0381111561391d575f5ffd5b5f5f5f5f60608587031215613c84575f5ffd5b8435613c8f816133db565b93506020850135925060408501356001600160401b038111156139a1575f5ffd5b5f60208284031215613cc0575f5ffd5b813563ffffffff81168114611291575f5ffd5b5f5f60408385031215613ce4575f5ffd5b8235613cef816133db565b946020939093013593505050565b5f5f5f5f5f60a08688031215613d11575f5ffd5b8535613d1c816133db565b94506020860135613d2c816133db565b9350604086013592506060860135915060808601356001600160401b0381111561391d575f5ffd5b600181811c90821680613d6857607f821691505b602082108103613d8657634e487b7160e01b5f52602260045260245ffd5b50919050565b634e487b7160e01b5f52603260045260245ffd5b5f60208284031215613db0575f5ffd5b81516001600160401b03811115613dc5575f5ffd5b8201601f81018413613dd5575f5ffd5b8051613de361346682613433565b818152856020838501011115613df7575f5ffd5b8160208401602083015e5f91810160200191909152949350505050565b634e487b7160e01b5f52601160045260245ffd5b65ffffffffffff8281168282160390811115610a6357610a63613e14565b5f60208284031215613e56575f5ffd5b815161129181613936565b65ffffffffffff8181168382160190811115610a6357610a63613e14565b818382375f9101908152919050565b5f8151808452602084019350602083015f5b82811015613ac05781516001600160a01b0316865260209586019590910190600101613ea0565b5f82825180855260208501945060208160051b830101602085015f5b83811015613f1557601f19858403018852613eff83835161339b565b6020988901989093509190910190600101613ee3565b50909695505050505050565b608081525f613f336080830187613e8e565b8281036020840152613f458187613a90565b90508281036040840152613f598186613ec7565b91505082606083015295945050505050565b83815260608101613f7f602083018561371f565b826040830152949350505050565b5f60208284031215613f9d575f5ffd5b81518015158114611291575f5ffd5b84815260ff84166020820152826040820152608060608201525f6110a1608083018461339b565b85815260ff8516602082015283604082015260a060608201525f613ffa60a083018561339b565b8281036080840152610fea818561339b565b80820180821115610a6357610a63613e14565b8981526001600160a01b0389166020820152610120604082018190525f906140499083018a613e8e565b828103606084015261405b818a613a90565b9050828103608084015280885180835260208301915060208160051b84010160208b015f5b838110156140b257601f1986840301855261409c83835161339b565b6020958601959093509190910190600101614080565b505085810360a08701526140c6818b613ec7565b93505050508560c08401528460e08401528281036101008401526140ea818561339b565b9c9b505050505050505050505050565b5f6020828403121561410a575f5ffd5b5051919050565b81810381811115610a6357610a63613e14565b60a081525f61413660a0830188613e8e565b82810360208401526141488188613a90565b9050828103604084015261415c8187613ec7565b60608401959095525050608001529392505050565b60c081525f61418360c0830189613e8e565b82810360208401526141958189613a90565b905082810360408401526141a98188613ec7565b60608401969096525050608081019290925260a0909101529392505050565b8082028115828204841417610a6357610a63613e14565b634e487b7160e01b5f52601260045260245ffd5b60ff8181168382160190811115610a6357610a63613e14565b6001815b600184111561214c5780850481111561422b5761422b613e14565b600184161561423957908102905b60019390931c928002614210565b5f8261425557506001610a63565b8161426157505f610a63565b816001811461427757600281146142815761429d565b6001915050610a63565b60ff84111561429257614292613e14565b50506001821b610a63565b5060208310610133831016604e8410600b84101617156142c0575081810a610a63565b6142cc5f19848461420c565b805f19048211156142df576142df613e14565b029392505050565b5f61129160ff84168361424756fea2646970667358221220bf39a8f2e87139c25d26860f4cfba6ec8f2004a16f36e58909dcd75e179c7e4864736f6c634300081c0033","linkReferences":{}},"methodIdentifiers":{"BALLOT_TYPEHASH()":"deaaa7cc","CLOCK_MODE()":"4bf5d7e9","COUNTING_MODE()":"dd4e2ba5","EXTENDED_BALLOT_TYPEHASH()":"2fe3e261","cancel(address[],uint256[],bytes[],bytes32)":"452115d6","castVote(uint256,uint8)":"56781388","castVoteBySig(uint256,uint8,address,bytes)":"8ff262e3","castVoteWithReason(uint256,uint8,string)":"7b3c71d3","castVoteWithReasonAndParams(uint256,uint8,string,bytes)":"5f398a14","castVoteWithReasonAndParamsBySig(uint256,uint8,address,string,bytes,bytes)":"5b8d0e0d","clock()":"91ddadf4","eip712Domain()":"84b0196e","execute(address[],uint256[],bytes[],bytes32)":"2656227d","getProposalId(address[],uint256[],bytes[],bytes32)":"a8f8a668","getVotes(address,uint256)":"eb9019d4","getVotesWithParams(address,uint256,bytes)":"9a802a6d","hasVoted(uint256,address)":"43859632","hashProposal(address[],uint256[],bytes[],bytes32)":"c59057e4","name()":"06fdde03","nonces(address)":"7ecebe00","onERC1155BatchReceived(address,address,uint256[],uint256[],bytes)":"bc197c81","onERC1155Received(address,address,uint256,uint256,bytes)":"f23a6e61","onERC721Received(address,address,uint256,bytes)":"150b7a02","proposalDeadline(uint256)":"c01f9e37","proposalEta(uint256)":"ab58fb8e","proposalNeedsQueuing(uint256)":"a9a95294","proposalProposer(uint256)":"143489d0","proposalSnapshot(uint256)":"2d63f693","proposalThreshold()":"b58131b0","proposalVotes(uint256)":"544ffc9c","propose(address[],uint256[],bytes[],string)":"7d5e81e2","queue(address[],uint256[],bytes[],bytes32)":"160cbed7","quorum(uint256)":"f8ce560a","quorumDenominator()":"97c3d334","quorumNumerator()":"a7713a70","quorumNumerator(uint256)":"60c4247f","relay(address,uint256,bytes)":"c28bc2fa","setProposalThreshold(uint256)":"ece40cc1","setVotingDelay(uint48)":"79051887","setVotingPeriod(uint32)":"e540d01d","state(uint256)":"3e4f49e6","supportsInterface(bytes4)":"01ffc9a7","timelock()":"d33219b4","token()":"fc0c546a","updateQuorumNumerator(uint256)":"06f3f9e6","updateTimelock(address)":"a890c910","version()":"54fd4d50","votingDelay()":"3932abb1","votingPeriod()":"02a251a3"},"id":63}