{"abi":[{"type":"constructor","inputs":[{"name":"_feeAsset","type":"address","internalType":"address"},{"name":"_treasury","type":"address","internalType":"address"},{"name":"_performanceBps","type":"uint256","internalType":"uint256"},{"name":"_managementBps","type":"uint256","internalType":"uint256"},{"name":"_initialHWM","type":"uint256","internalType":"uint256"},{"name":"_owner","type":"address","internalType":"address"}],"stateMutability":"nonpayable"},{"type":"function","name":"BPS","inputs":[],"outputs":[{"name":"","type":"uint256","internalType":"uint256"}],"stateMutability":"view"},{"type":"function","name":"SECONDS_PER_YEAR","inputs":[],"outputs":[{"name":"","type":"uint256","internalType":"uint256"}],"stateMutability":"view"},{"type":"function","name":"authorizeReporter","inputs":[{"name":"reporter","type":"address","internalType":"address"},{"name":"authorized","type":"bool","internalType":"bool"}],"outputs":[],"stateMutability":"nonpayable"},{"type":"function","name":"authorizedReporters","inputs":[{"name":"","type":"address","internalType":"address"}],"outputs":[{"name":"","type":"bool","internalType":"bool"}],"stateMutability":"view"},{"type":"function","name":"collectManagementFee","inputs":[{"name":"currentAUM","type":"uint256","internalType":"uint256"}],"outputs":[],"stateMutability":"nonpayable"},{"type":"function","name":"collectPerformanceFee","inputs":[{"name":"currentNAV","type":"uint256","internalType":"uint256"},{"name":"profitUsdc","type":"uint256","internalType":"uint256"}],"outputs":[],"stateMutability":"nonpayable"},{"type":"function","name":"distributeFees","inputs":[],"outputs":[],"stateMutability":"nonpayable"},{"type":"function","name":"feeAsset","inputs":[],"outputs":[{"name":"","type":"address","internalType":"contract IERC20"}],"stateMutability":"view"},{"type":"function","name":"feeSummary","inputs":[],"outputs":[{"name":"_totalCollected","type":"uint256","internalType":"uint256"},{"name":"_totalDistributed","type":"uint256","internalType":"uint256"},{"name":"_pendingFees","type":"uint256","internalType":"uint256"},{"name":"_performanceFees","type":"uint256","internalType":"uint256"},{"name":"_managementFees","type":"uint256","internalType":"uint256"},{"name":"_performanceFeeBps","type":"uint256","internalType":"uint256"},{"name":"_managementFeeBps","type":"uint256","internalType":"uint256"},{"name":"_highWaterMark","type":"uint256","internalType":"uint256"},{"name":"_managementFeeActive","type":"bool","internalType":"bool"}],"stateMutability":"view"},{"type":"function","name":"highWaterMark","inputs":[],"outputs":[{"name":"","type":"uint256","internalType":"uint256"}],"stateMutability":"view"},{"type":"function","name":"lastManagementFeeTime","inputs":[],"outputs":[{"name":"","type":"uint256","internalType":"uint256"}],"stateMutability":"view"},{"type":"function","name":"managementFeeActive","inputs":[],"outputs":[{"name":"","type":"bool","internalType":"bool"}],"stateMutability":"view"},{"type":"function","name":"managementFeeBps","inputs":[],"outputs":[{"name":"","type":"uint256","internalType":"uint256"}],"stateMutability":"view"},{"type":"function","name":"owner","inputs":[],"outputs":[{"name":"","type":"address","internalType":"address"}],"stateMutability":"view"},{"type":"function","name":"pendingFees","inputs":[],"outputs":[{"name":"","type":"uint256","internalType":"uint256"}],"stateMutability":"view"},{"type":"function","name":"pendingManagementFee","inputs":[{"name":"currentAUM","type":"uint256","internalType":"uint256"}],"outputs":[{"name":"","type":"uint256","internalType":"uint256"}],"stateMutability":"view"},{"type":"function","name":"pendingPerformanceFee","inputs":[{"name":"currentNAV","type":"uint256","internalType":"uint256"}],"outputs":[{"name":"","type":"uint256","internalType":"uint256"}],"stateMutability":"view"},{"type":"function","name":"performanceFeeBps","inputs":[],"outputs":[{"name":"","type":"uint256","internalType":"uint256"}],"stateMutability":"view"},{"type":"function","name":"renounceOwnership","inputs":[],"outputs":[],"stateMutability":"nonpayable"},{"type":"function","name":"setHighWaterMark","inputs":[{"name":"_hwm","type":"uint256","internalType":"uint256"}],"outputs":[],"stateMutability":"nonpayable"},{"type":"function","name":"setManagementFee","inputs":[{"name":"_bps","type":"uint256","internalType":"uint256"}],"outputs":[],"stateMutability":"nonpayable"},{"type":"function","name":"setPerformanceFee","inputs":[{"name":"_bps","type":"uint256","internalType":"uint256"}],"outputs":[],"stateMutability":"nonpayable"},{"type":"function","name":"setTreasury","inputs":[{"name":"_treasury","type":"address","internalType":"address"}],"outputs":[],"stateMutability":"nonpayable"},{"type":"function","name":"totalCollected","inputs":[],"outputs":[{"name":"","type":"uint256","internalType":"uint256"}],"stateMutability":"view"},{"type":"function","name":"totalDistributed","inputs":[],"outputs":[{"name":"","type":"uint256","internalType":"uint256"}],"stateMutability":"view"},{"type":"function","name":"totalManagementFees","inputs":[],"outputs":[{"name":"","type":"uint256","internalType":"uint256"}],"stateMutability":"view"},{"type":"function","name":"totalPerformanceFees","inputs":[],"outputs":[{"name":"","type":"uint256","internalType":"uint256"}],"stateMutability":"view"},{"type":"function","name":"transferOwnership","inputs":[{"name":"newOwner","type":"address","internalType":"address"}],"outputs":[],"stateMutability":"nonpayable"},{"type":"function","name":"treasury","inputs":[],"outputs":[{"name":"","type":"address","internalType":"address"}],"stateMutability":"view"},{"type":"event","name":"FeesDistributed","inputs":[{"name":"amount","type":"uint256","indexed":false,"internalType":"uint256"},{"name":"treasury","type":"address","indexed":false,"internalType":"address"},{"name":"timestamp","type":"uint256","indexed":false,"internalType":"uint256"}],"anonymous":false},{"type":"event","name":"HighWaterMarkUpdated","inputs":[{"name":"oldHWM","type":"uint256","indexed":false,"internalType":"uint256"},{"name":"newHWM","type":"uint256","indexed":false,"internalType":"uint256"},{"name":"timestamp","type":"uint256","indexed":false,"internalType":"uint256"}],"anonymous":false},{"type":"event","name":"ManagementFeeCollected","inputs":[{"name":"aum","type":"uint256","indexed":false,"internalType":"uint256"},{"name":"feeAmount","type":"uint256","indexed":false,"internalType":"uint256"},{"name":"elapsed","type":"uint256","indexed":false,"internalType":"uint256"},{"name":"timestamp","type":"uint256","indexed":false,"internalType":"uint256"}],"anonymous":false},{"type":"event","name":"ManagementFeeRateUpdated","inputs":[{"name":"oldRate","type":"uint256","indexed":false,"internalType":"uint256"},{"name":"newRate","type":"uint256","indexed":false,"internalType":"uint256"}],"anonymous":false},{"type":"event","name":"OwnershipTransferred","inputs":[{"name":"previousOwner","type":"address","indexed":true,"internalType":"address"},{"name":"newOwner","type":"address","indexed":true,"internalType":"address"}],"anonymous":false},{"type":"event","name":"PerformanceFeeCollected","inputs":[{"name":"profit","type":"uint256","indexed":false,"internalType":"uint256"},{"name":"feeAmount","type":"uint256","indexed":false,"internalType":"uint256"},{"name":"oldHWM","type":"uint256","indexed":false,"internalType":"uint256"},{"name":"newHWM","type":"uint256","indexed":false,"internalType":"uint256"},{"name":"timestamp","type":"uint256","indexed":false,"internalType":"uint256"}],"anonymous":false},{"type":"event","name":"PerformanceFeeRateUpdated","inputs":[{"name":"oldRate","type":"uint256","indexed":false,"internalType":"uint256"},{"name":"newRate","type":"uint256","indexed":false,"internalType":"uint256"}],"anonymous":false},{"type":"event","name":"TreasuryUpdated","inputs":[{"name":"oldTreasury","type":"address","indexed":false,"internalType":"address"},{"name":"newTreasury","type":"address","indexed":false,"internalType":"address"}],"anonymous":false},{"type":"error","name":"OwnableInvalidOwner","inputs":[{"name":"owner","type":"address","internalType":"address"}]},{"type":"error","name":"OwnableUnauthorizedAccount","inputs":[{"name":"account","type":"address","internalType":"address"}]},{"type":"error","name":"ReentrancyGuardReentrantCall","inputs":[]},{"type":"error","name":"SafeERC20FailedOperation","inputs":[{"name":"token","type":"address","internalType":"address"}]}],"bytecode":{"object":"0x60a060405234801561000f575f5ffd5b5060405161142738038061142783398101604081905261002e91610279565b806001600160a01b03811661005d57604051631e4fbdf760e01b81525f60048201526024015b60405180910390fd5b6100668161020f565b5060017f9b779b17422d0df92223018b32b4d1fa46e071723d6817e2486d003becc55f00556001600160a01b0386166100d25760405162461bcd60e51b815260206004820152600e60248201526d1190ce881e995c9bc8185cdcd95d60921b6044820152606401610054565b6001600160a01b03851661011c5760405162461bcd60e51b815260206004820152601160248201527046433a207a65726f20747265617375727960781b6044820152606401610054565b61138884111561016e5760405162461bcd60e51b815260206004820152601c60248201527f46433a20706572666f726d616e63652066656520746f6f2068696768000000006044820152606401610054565b60c88311156101bf5760405162461bcd60e51b815260206004820152601b60248201527f46433a206d616e6167656d656e742066656520746f6f206869676800000000006044820152606401610054565b506001600160a01b0394851660805260018054949095166001600160a01b03199094169390931790935560025560058290556008805460ff191692151592909217909155600355426006556102d6565b5f80546001600160a01b038381166001600160a01b0319831681178455604051919092169283917f8be0079c531659141344cd1fd0a4f28419497f9722a3daafe3b4186f6b6457e09190a35050565b80516001600160a01b0381168114610274575f5ffd5b919050565b5f5f5f5f5f5f60c0878903121561028e575f5ffd5b6102978761025e565b95506102a56020880161025e565b6040880151606089015160808a0151929750909550935091506102ca60a0880161025e565b90509295509295509295565b6080516111246103035f395f81816102fc01528181610690015281816109090152610b1801526111245ff3fe608060405234801561000f575f5ffd5b50600436106101c6575f3560e01c80636a2d0af4116100fe578063c74046c21161009e578063efca2eed1161006e578063efca2eed146103d5578063f0f44260146103de578063f2fde38b146103f1578063fe56e23214610404575f5ffd5b8063c74046c2146103a5578063dc91ede9146103b8578063e29eb836146103c1578063e6a69ab8146103ca575f5ffd5b80637e687c6d116100d95780637e687c6d146103775780638da5cb5b14610384578063b9d4e87914610394578063bb57ad201461039d575f5ffd5b80636a2d0af41461034957806370897b231461035c578063715018a61461036f575f5ffd5b80632b7bda0e116101695780633ed31345116101445780633ed31345146102d15780635107d4d8146102e457806353ba352c146102f757806361d027b314610336575f5ffd5b80632b7bda0e1461028d5780633813c35a146102965780633a41429a1461029f575f5ffd5b80631e8410da116101a45780631e8410da1461025d578063224438d114610266578063249d39e91461026f57806327b0f08814610278575f5ffd5b80630d58d8a3146101ca578063135ea1cb146101e65780631a5fd7721461024a575b5f5ffd5b6101d360075481565b6040519081526020015b60405180910390f35b600954600a54600b5460045460075460025460055460035460085460ff1660408051998a5260208a0198909852968801959095526060870193909352608086019190915260a085015260c084015260e08301521515610100820152610120016101dd565b6101d3610258366004610fb4565b610417565b6101d360035481565b6101d3600b5481565b6101d361271081565b61028b610286366004610fb4565b61045b565b005b6101d360045481565b6101d360055481565b6102c16102ad366004610fe6565b600c6020525f908152604090205460ff1681565b60405190151581526020016101dd565b6101d36102df366004610fb4565b6104b3565b61028b6102f2366004610fb4565b61051e565b61031e7f000000000000000000000000000000000000000000000000000000000000000081565b6040516001600160a01b0390911681526020016101dd565b60015461031e906001600160a01b031681565b61028b610357366004610fff565b610768565b61028b61036a366004610fb4565b6107e4565b61028b61086b565b6008546102c19060ff1681565b5f546001600160a01b031661031e565b6101d360025481565b61028b61087e565b61028b6103b3366004611038565b610993565b6101d360065481565b6101d360095481565b6101d36301e1338081565b6101d3600a5481565b61028b6103ec366004610fe6565b610c39565b61028b6103ff366004610fe6565b610cdc565b61028b610412366004610fb4565b610d16565b5f600354821161042857505f919050565b5f60035483610437919061106c565b90506127106002548261044a9190611085565b610454919061109c565b9392505050565b610463610daa565b6003805490829055604080518281526020810184905242918101919091527fa1bb4e98c6723e8d4105d53a914e72cf323953e0efec68b086d5cd7a00b8ba68906060015b60405180910390a15050565b6008545f9060ff1615806104c5575081155b156104d157505f919050565b5f600654426104e0919061106c565b9050620151808110156104f557505f92915050565b6105056301e13380612710611085565b81600554856105149190611085565b61044a9190611085565b610526610dd6565b335f908152600c602052604090205460ff168061054c57505f546001600160a01b031633145b6105905760405162461bcd60e51b815260206004820152601060248201526f1190ce881d5b985d5d1a1bdc9a5e995960821b60448201526064015b60405180910390fd5b60085460ff166105e25760405162461bcd60e51b815260206004820152601b60248201527f46433a206d616e6167656d656e74206665652064697361626c656400000000006044820152606401610587565b5f600654426105f1919061106c565b9050620151808110156106365760405162461bcd60e51b815260206004820152600d60248201526c46433a20746f6f206561726c7960981b6044820152606401610587565b815f0361064757504260065561074f565b5f6106586301e13380612710611085565b82600554856106679190611085565b6106719190611085565b61067b919061109c565b905080156106ff576106b86001600160a01b037f000000000000000000000000000000000000000000000000000000000000000016333084610df1565b8060075f8282546106c991906110bb565b925050819055508060095f8282546106e191906110bb565b9250508190555080600b5f8282546106f991906110bb565b90915550505b42600681905560408051858152602081018490528082018590526060810192909252517f9d786fff182636a2d97bde862b1ee1133ed9cba32e6c3064a977a7ee7e09935a9181900360800190a150505b61076560015f5160206110cf5f395f51905f5255565b50565b610770610daa565b6001600160a01b0382166107ba5760405162461bcd60e51b815260206004820152601160248201527023219d103d32b937903932b837b93a32b960791b6044820152606401610587565b6001600160a01b03919091165f908152600c60205260409020805460ff1916911515919091179055565b6107ec610daa565b61138881111561082d5760405162461bcd60e51b815260206004820152600c60248201526b08c867440e8dede40d0d2ced60a31b6044820152606401610587565b600280549082905560408051828152602081018490527f0223b2c578a1333c00a5bbc0d850a3fde5707e1fae285dc0b727f5cc901a8e8a91016104a7565b610873610daa565b61087c5f610e2d565b565b610886610dd6565b5f600b54116108d75760405162461bcd60e51b815260206004820152601960248201527f46433a206e6f7468696e6720746f2064697374726962757465000000000000006044820152606401610587565b600b80545f91829055600a8054919283926108f39084906110bb565b9091555050600154610932906001600160a01b037f00000000000000000000000000000000000000000000000000000000000000008116911683610e7c565b600154604080518381526001600160a01b0390921660208301524282820152517f42affc57c2b30e1ac5957640cfb86fcd839a295d2ec7eed57db385dd03aecd2c9181900360600190a15061087c60015f5160206110cf5f395f51905f5255565b61099b610dd6565b335f908152600c602052604090205460ff16806109c157505f546001600160a01b031633145b610a005760405162461bcd60e51b815260206004820152601060248201526f1190ce881d5b985d5d1a1bdc9a5e995960821b6044820152606401610587565b6003548211610a455760405162461bcd60e51b815260206004820152601160248201527046433a204e41562062656c6f772048574d60781b6044820152606401610587565b5f8111610a865760405162461bcd60e51b815260206004820152600f60248201526e1190ce881e995c9bc81c1c9bd99a5d608a1b6044820152606401610587565b5f60035483610a95919061106c565b905080821115610ae75760405162461bcd60e51b815260206004820152601d60248201527f46433a2070726f66697420657863656564732048574d206578636573730000006044820152606401610587565b5f61271060025484610af99190611085565b610b03919061109c565b90508015610b8757610b406001600160a01b037f000000000000000000000000000000000000000000000000000000000000000016333084610df1565b8060045f828254610b5191906110bb565b925050819055508060095f828254610b6991906110bb565b9250508190555080600b5f828254610b8191906110bb565b90915550505b60038054908590556040805185815260208101849052908101829052606081018690524260808201527f722d0d6fb444c867516114dce5bff48822ef8f8d173448a22a962f75c406fae09060a00160405180910390a16040805182815260208101879052428183015290517fa1bb4e98c6723e8d4105d53a914e72cf323953e0efec68b086d5cd7a00b8ba689181900360600190a1505050610c3560015f5160206110cf5f395f51905f5255565b5050565b610c41610daa565b6001600160a01b038116610c825760405162461bcd60e51b815260206004820152600860248201526746433a207a65726f60c01b6044820152606401610587565b600180546001600160a01b038381166001600160a01b031983168117909355604080519190921680825260208201939093527f4ab5be82436d353e61ca18726e984e561f5c1cc7c6d38b29d2553c790434705a91016104a7565b610ce4610daa565b6001600160a01b038116610d0d57604051631e4fbdf760e01b81525f6004820152602401610587565b61076581610e2d565b610d1e610daa565b60c8811115610d5e5760405162461bcd60e51b815260206004820152600c60248201526b08c867440e8dede40d0d2ced60a31b6044820152606401610587565b60058054908290556008805460ff191683151517905560408051828152602081018490527f52767ff96bc5621e3eca7d5c7acd6e76cc6cdf7ee000e8d6d95467709a47d92691016104a7565b5f546001600160a01b0316331461087c5760405163118cdaa760e01b8152336004820152602401610587565b610dde610eb6565b60025f5160206110cf5f395f51905f5255565b610dff848484846001610ee5565b610e2757604051635274afe760e01b81526001600160a01b0385166004820152602401610587565b50505050565b5f80546001600160a01b038381166001600160a01b0319831681178455604051919092169283917f8be0079c531659141344cd1fd0a4f28419497f9722a3daafe3b4186f6b6457e09190a35050565b610e898383836001610f52565b610eb157604051635274afe760e01b81526001600160a01b0384166004820152602401610587565b505050565b5f5160206110cf5f395f51905f525460020361087c57604051633ee5aeb560e01b815260040160405180910390fd5b6040516323b872dd60e01b5f8181526001600160a01b038781166004528616602452604485905291602083606481808c5af1925060015f51148316610f41578383151615610f35573d5f823e3d81fd5b5f883b113d1516831692505b604052505f60605295945050505050565b60405163a9059cbb60e01b5f8181526001600160a01b038616600452602485905291602083604481808b5af1925060015f51148316610fa8578383151615610f9c573d5f823e3d81fd5b5f873b113d1516831692505b60405250949350505050565b5f60208284031215610fc4575f5ffd5b5035919050565b80356001600160a01b0381168114610fe1575f5ffd5b919050565b5f60208284031215610ff6575f5ffd5b61045482610fcb565b5f5f60408385031215611010575f5ffd5b61101983610fcb565b91506020830135801515811461102d575f5ffd5b809150509250929050565b5f5f60408385031215611049575f5ffd5b50508035926020909101359150565b634e487b7160e01b5f52601160045260245ffd5b8181038181111561107f5761107f611058565b92915050565b808202811582820484141761107f5761107f611058565b5f826110b657634e487b7160e01b5f52601260045260245ffd5b500490565b8082018082111561107f5761107f61105856fe9b779b17422d0df92223018b32b4d1fa46e071723d6817e2486d003becc55f00a264697066735822122022ae4ae989950cb13b7207895299e11116f517422e7606a1c0c7b905bafd469764736f6c634300081c0033","linkReferences":{}},"methodIdentifiers":{"BPS()":"249d39e9","SECONDS_PER_YEAR()":"e6a69ab8","authorizeReporter(address,bool)":"6a2d0af4","authorizedReporters(address)":"3a41429a","collectManagementFee(uint256)":"5107d4d8","collectPerformanceFee(uint256,uint256)":"c74046c2","distributeFees()":"bb57ad20","feeAsset()":"53ba352c","feeSummary()":"135ea1cb","highWaterMark()":"1e8410da","lastManagementFeeTime()":"dc91ede9","managementFeeActive()":"7e687c6d","managementFeeBps()":"3813c35a","owner()":"8da5cb5b","pendingFees()":"224438d1","pendingManagementFee(uint256)":"3ed31345","pendingPerformanceFee(uint256)":"1a5fd772","performanceFeeBps()":"b9d4e879","renounceOwnership()":"715018a6","setHighWaterMark(uint256)":"27b0f088","setManagementFee(uint256)":"fe56e232","setPerformanceFee(uint256)":"70897b23","setTreasury(address)":"f0f44260","totalCollected()":"e29eb836","totalDistributed()":"efca2eed","totalManagementFees()":"0d58d8a3","totalPerformanceFees()":"2b7bda0e","transferOwnership(address)":"f2fde38b","treasury()":"61d027b3"},"id":59}