{"abi":[{"type":"constructor","inputs":[{"name":"_vault","type":"address","internalType":"address"},{"name":"_owner","type":"address","internalType":"address"}],"stateMutability":"nonpayable"},{"type":"function","name":"BPS_DENOMINATOR","inputs":[],"outputs":[{"name":"","type":"uint256","internalType":"uint256"}],"stateMutability":"view"},{"type":"function","name":"DEFAULT_STALENESS_THRESHOLD","inputs":[],"outputs":[{"name":"","type":"uint256","internalType":"uint256"}],"stateMutability":"view"},{"type":"function","name":"attestationAge","inputs":[],"outputs":[{"name":"","type":"uint256","internalType":"uint256"}],"stateMutability":"view"},{"type":"function","name":"attestationCount","inputs":[],"outputs":[{"name":"","type":"uint256","internalType":"uint256"}],"stateMutability":"view"},{"type":"function","name":"attestations","inputs":[{"name":"","type":"uint256","internalType":"uint256"}],"outputs":[{"name":"kalshiBalance","type":"uint256","internalType":"uint256"},{"name":"kalshiOpenPositions","type":"uint256","internalType":"uint256"},{"name":"vaultUsdcBalance","type":"uint256","internalType":"uint256"},{"name":"totalNAV","type":"uint256","internalType":"uint256"},{"name":"totalClaims","type":"uint256","internalType":"uint256"},{"name":"fullyBacked","type":"bool","internalType":"bool"},{"name":"attestor","type":"address","internalType":"address"},{"name":"timestamp","type":"uint256","internalType":"uint256"},{"name":"notes","type":"string","internalType":"string"}],"stateMutability":"view"},{"type":"function","name":"authorizeAttestor","inputs":[{"name":"attestor","type":"address","internalType":"address"},{"name":"authorized","type":"bool","internalType":"bool"}],"outputs":[],"stateMutability":"nonpayable"},{"type":"function","name":"authorizedAttestors","inputs":[{"name":"","type":"address","internalType":"address"}],"outputs":[{"name":"","type":"bool","internalType":"bool"}],"stateMutability":"view"},{"type":"function","name":"criticalStaleness","inputs":[],"outputs":[{"name":"","type":"uint256","internalType":"uint256"}],"stateMutability":"view"},{"type":"function","name":"getAttestation","inputs":[{"name":"index","type":"uint256","internalType":"uint256"}],"outputs":[{"name":"","type":"tuple","internalType":"struct ProofOfReserve.Attestation","components":[{"name":"kalshiBalance","type":"uint256","internalType":"uint256"},{"name":"kalshiOpenPositions","type":"uint256","internalType":"uint256"},{"name":"vaultUsdcBalance","type":"uint256","internalType":"uint256"},{"name":"totalNAV","type":"uint256","internalType":"uint256"},{"name":"totalClaims","type":"uint256","internalType":"uint256"},{"name":"fullyBacked","type":"bool","internalType":"bool"},{"name":"attestor","type":"address","internalType":"address"},{"name":"timestamp","type":"uint256","internalType":"uint256"},{"name":"notes","type":"string","internalType":"string"}]}],"stateMutability":"view"},{"type":"function","name":"getReport","inputs":[],"outputs":[{"name":"","type":"tuple","internalType":"struct ProofOfReserve.ReserveReport","components":[{"name":"vaultNAV","type":"uint256","internalType":"uint256"},{"name":"vaultShares","type":"uint256","internalType":"uint256"},{"name":"pricePerShare","type":"uint256","internalType":"uint256"},{"name":"deployedCapital","type":"uint256","internalType":"uint256"},{"name":"kalshiBalance","type":"uint256","internalType":"uint256"},{"name":"kalshiOpenPositions","type":"uint256","internalType":"uint256"},{"name":"attestedNAV","type":"uint256","internalType":"uint256"},{"name":"attestationAge","type":"uint256","internalType":"uint256"},{"name":"attestationFresh","type":"bool","internalType":"bool"},{"name":"status","type":"uint8","internalType":"enum ProofOfReserve.HealthStatus"},{"name":"fullyBacked","type":"bool","internalType":"bool"},{"name":"totalAttestations","type":"uint256","internalType":"uint256"},{"name":"totalThirdPartyAttestations","type":"uint256","internalType":"uint256"},{"name":"timestamp","type":"uint256","internalType":"uint256"}]}],"stateMutability":"view"},{"type":"function","name":"healthCheck","inputs":[],"outputs":[{"name":"report","type":"tuple","internalType":"struct ProofOfReserve.ReserveReport","components":[{"name":"vaultNAV","type":"uint256","internalType":"uint256"},{"name":"vaultShares","type":"uint256","internalType":"uint256"},{"name":"pricePerShare","type":"uint256","internalType":"uint256"},{"name":"deployedCapital","type":"uint256","internalType":"uint256"},{"name":"kalshiBalance","type":"uint256","internalType":"uint256"},{"name":"kalshiOpenPositions","type":"uint256","internalType":"uint256"},{"name":"attestedNAV","type":"uint256","internalType":"uint256"},{"name":"attestationAge","type":"uint256","internalType":"uint256"},{"name":"attestationFresh","type":"bool","internalType":"bool"},{"name":"status","type":"uint8","internalType":"enum ProofOfReserve.HealthStatus"},{"name":"fullyBacked","type":"bool","internalType":"bool"},{"name":"totalAttestations","type":"uint256","internalType":"uint256"},{"name":"totalThirdPartyAttestations","type":"uint256","internalType":"uint256"},{"name":"timestamp","type":"uint256","internalType":"uint256"}]}],"stateMutability":"nonpayable"},{"type":"function","name":"isAttestationFresh","inputs":[],"outputs":[{"name":"","type":"bool","internalType":"bool"}],"stateMutability":"view"},{"type":"function","name":"lastCheckTime","inputs":[],"outputs":[{"name":"","type":"uint256","internalType":"uint256"}],"stateMutability":"view"},{"type":"function","name":"latestAttestation","inputs":[],"outputs":[{"name":"","type":"tuple","internalType":"struct ProofOfReserve.Attestation","components":[{"name":"kalshiBalance","type":"uint256","internalType":"uint256"},{"name":"kalshiOpenPositions","type":"uint256","internalType":"uint256"},{"name":"vaultUsdcBalance","type":"uint256","internalType":"uint256"},{"name":"totalNAV","type":"uint256","internalType":"uint256"},{"name":"totalClaims","type":"uint256","internalType":"uint256"},{"name":"fullyBacked","type":"bool","internalType":"bool"},{"name":"attestor","type":"address","internalType":"address"},{"name":"timestamp","type":"uint256","internalType":"uint256"},{"name":"notes","type":"string","internalType":"string"}]}],"stateMutability":"view"},{"type":"function","name":"owner","inputs":[],"outputs":[{"name":"","type":"address","internalType":"address"}],"stateMutability":"view"},{"type":"function","name":"renounceOwnership","inputs":[],"outputs":[],"stateMutability":"nonpayable"},{"type":"function","name":"setCriticalStaleness","inputs":[{"name":"_threshold","type":"uint256","internalType":"uint256"}],"outputs":[],"stateMutability":"nonpayable"},{"type":"function","name":"setStalenessThreshold","inputs":[{"name":"_threshold","type":"uint256","internalType":"uint256"}],"outputs":[],"stateMutability":"nonpayable"},{"type":"function","name":"setVault","inputs":[{"name":"_vault","type":"address","internalType":"address"}],"outputs":[],"stateMutability":"nonpayable"},{"type":"function","name":"stalenessThreshold","inputs":[],"outputs":[{"name":"","type":"uint256","internalType":"uint256"}],"stateMutability":"view"},{"type":"function","name":"submitAttestation","inputs":[{"name":"kalshiBalance","type":"uint256","internalType":"uint256"},{"name":"kalshiOpenPositions","type":"uint256","internalType":"uint256"},{"name":"notes","type":"string","internalType":"string"}],"outputs":[],"stateMutability":"nonpayable"},{"type":"function","name":"submitThirdPartyAttestation","inputs":[{"name":"firmName","type":"string","internalType":"string"},{"name":"reportHash","type":"string","internalType":"string"},{"name":"verifiedNAV","type":"uint256","internalType":"uint256"}],"outputs":[],"stateMutability":"nonpayable"},{"type":"function","name":"thirdPartyAttestationCount","inputs":[],"outputs":[{"name":"","type":"uint256","internalType":"uint256"}],"stateMutability":"view"},{"type":"function","name":"thirdPartyAttestations","inputs":[{"name":"","type":"uint256","internalType":"uint256"}],"outputs":[{"name":"firmName","type":"string","internalType":"string"},{"name":"reportHash","type":"string","internalType":"string"},{"name":"verifiedNAV","type":"uint256","internalType":"uint256"},{"name":"timestamp","type":"uint256","internalType":"uint256"}],"stateMutability":"view"},{"type":"function","name":"totalChecks","inputs":[],"outputs":[{"name":"","type":"uint256","internalType":"uint256"}],"stateMutability":"view"},{"type":"function","name":"transferOwnership","inputs":[{"name":"newOwner","type":"address","internalType":"address"}],"outputs":[],"stateMutability":"nonpayable"},{"type":"function","name":"vault","inputs":[],"outputs":[{"name":"","type":"address","internalType":"contract IVaultReader"}],"stateMutability":"view"},{"type":"event","name":"AttestationSubmitted","inputs":[{"name":"attestationId","type":"uint256","indexed":true,"internalType":"uint256"},{"name":"kalshiBalance","type":"uint256","indexed":false,"internalType":"uint256"},{"name":"vaultBalance","type":"uint256","indexed":false,"internalType":"uint256"},{"name":"totalNAV","type":"uint256","indexed":false,"internalType":"uint256"},{"name":"fullyBacked","type":"bool","indexed":false,"internalType":"bool"},{"name":"attestor","type":"address","indexed":false,"internalType":"address"},{"name":"timestamp","type":"uint256","indexed":false,"internalType":"uint256"}],"anonymous":false},{"type":"event","name":"HealthCheckPerformed","inputs":[{"name":"checkNumber","type":"uint256","indexed":true,"internalType":"uint256"},{"name":"status","type":"uint8","indexed":false,"internalType":"enum ProofOfReserve.HealthStatus"},{"name":"fullyBacked","type":"bool","indexed":false,"internalType":"bool"},{"name":"attestationFresh","type":"bool","indexed":false,"internalType":"bool"},{"name":"timestamp","type":"uint256","indexed":false,"internalType":"uint256"}],"anonymous":false},{"type":"event","name":"OwnershipTransferred","inputs":[{"name":"previousOwner","type":"address","indexed":true,"internalType":"address"},{"name":"newOwner","type":"address","indexed":true,"internalType":"address"}],"anonymous":false},{"type":"event","name":"StalenessWarning","inputs":[{"name":"attestationAge","type":"uint256","indexed":false,"internalType":"uint256"},{"name":"threshold","type":"uint256","indexed":false,"internalType":"uint256"},{"name":"timestamp","type":"uint256","indexed":false,"internalType":"uint256"}],"anonymous":false},{"type":"event","name":"ThirdPartyAttestationSubmitted","inputs":[{"name":"attestationId","type":"uint256","indexed":true,"internalType":"uint256"},{"name":"firmName","type":"string","indexed":false,"internalType":"string"},{"name":"verifiedNAV","type":"uint256","indexed":false,"internalType":"uint256"},{"name":"timestamp","type":"uint256","indexed":false,"internalType":"uint256"}],"anonymous":false},{"type":"error","name":"OwnableInvalidOwner","inputs":[{"name":"owner","type":"address","internalType":"address"}]},{"type":"error","name":"OwnableUnauthorizedAccount","inputs":[{"name":"account","type":"address","internalType":"address"}]}],"bytecode":{"object":"0x608060405234801561000f575f5ffd5b50604051611c62380380611c6283398101604081905261002e9161014d565b806001600160a01b03811661005d57604051631e4fbdf760e01b81525f60048201526024015b60405180910390fd5b610066816100e3565b506001600160a01b0382166100af5760405162461bcd60e51b815260206004820152600f60248201526e141bd48e881e995c9bc81d985d5b1d608a1b6044820152606401610054565b50600180546001600160a01b0319166001600160a01b03929092169190911790556202a3006005556205460060065561017e565b5f80546001600160a01b038381166001600160a01b0319831681178455604051919092169283917f8be0079c531659141344cd1fd0a4f28419497f9722a3daafe3b4186f6b6457e09190a35050565b80516001600160a01b0381168114610148575f5ffd5b919050565b5f5f6040838503121561015e575f5ffd5b61016783610132565b915061017560208401610132565b90509250929050565b611ad78061018b5f395ff3fe608060405234801561000f575f5ffd5b50600436106101a1575f3560e01c806383619c08116100f3578063b72a1b2311610093578063e4085d671161006e578063e4085d671461035a578063f2fde38b14610362578063fb01e7f214610375578063fbfa77cf14610388575f5ffd5b8063b72a1b2314610340578063d655c69114610348578063e1a4521814610351575f5ffd5b8063a15b9321116100ce578063a15b932114610310578063a84f6ebb14610318578063b252720b14610321578063b25f68ae14610336575f5ffd5b806383619c08146102d05780638ca260a9146102d95780638da5cb5b146102ec575f5ffd5b806333eb83ce1161015e5780635b3abbfd116101395780635b3abbfd146102705780635d62dea7146102835780636817031b146102b5578063715018a6146102c8575f5ffd5b806333eb83ce1461023d5780635676efbe146102455780635af692ff1461024d575f5ffd5b806301daf26b146101a5578063162e2264146101d657806324b6d96a146101ed578063262da7031461020257806329be4db214610217578063308c99181461022a575b5f5ffd5b6101b86101b3366004611492565b61039b565b6040516101cd999897969594939291906114d7565b60405180910390f35b6101df60075481565b6040519081526020016101cd565b6101f561048e565b6040516101cd9190611535565b610215610210366004611605565b610615565b005b6101f5610225366004611492565b61073d565b610215610238366004611492565b6108b4565b6101df6108c1565b6004546101df565b61026061025b366004611492565b610912565b6040516101cd9493929190611678565b61021561027e3660046116b0565b610a59565b6102a561029136600461171a565b60026020525f908152604090205460ff1681565b60405190151581526020016101cd565b6102156102c336600461171a565b610dc7565b610215610e39565b6101df60065481565b6102156102e736600461173a565b610e4c565b5f546001600160a01b03165b6040516001600160a01b0390911681526020016101cd565b6003546101df565b6101df60055481565b610329610ec9565b6040516101cd91906117a7565b6101df6202a30081565b6102a5610fa6565b6101df60085481565b6101df61271081565b610329610ffa565b61021561037036600461171a565b61100a565b610215610383366004611492565b611047565b6001546102f8906001600160a01b031681565b600381815481106103aa575f80fd5b5f91825260209091206008909102018054600182015460028301546003840154600485015460058601546006870154600788018054979950959794969395929460ff8316946101009093046001600160a01b031693919290919061040d90611864565b80601f016020809104026020016040519081016040528092919081815260200182805461043990611864565b80156104845780601f1061045b57610100808354040283529160200191610484565b820191905f5260205f20905b81548152906001019060200180831161046757829003601f168201915b5050505050905089565b6104966113cd565b6003546104e15760405162461bcd60e51b8152602060048201526014602482015273506f523a206e6f206174746573746174696f6e7360601b60448201526064015b60405180910390fd5b600380546104f1906001906118b0565b81548110610501576105016118c9565b5f91825260209182902060408051610120810182526008909302909101805483526001810154938301939093526002830154908201526003820154606082015260048201546080820152600582015460ff8116151560a08301526001600160a01b03610100918290041660c0830152600683015460e08301526007830180549293929184019161059090611864565b80601f01602080910402602001604051908101604052809291908181526020018280546105bc90611864565b80156106075780601f106105de57610100808354040283529160200191610607565b820191905f5260205f20905b8154815290600101906020018083116105ea57829003601f168201915b505050505081525050905090565b61061d611054565b6040805160a06020601f880181900402820181019092526080810186815260049282919089908990819085018382808284375f92019190915250505090825250604080516020601f8801819004810282018101909252868152918101919087908790819084018382808284375f92018290525093855250505060208083018690524260409093019290925283546001810185559381522081519192600402019081906106c9908261193d565b50602082015160018201906106de908261193d565b50604082810151600283015560609092015160039091015560045490517f670d3dbd222440e4803bbdf9242bfe6ae63130430fdc119c26c6312cf158fc279061072e9088908890869042906119f8565b60405180910390a25050505050565b6107456113cd565b600354821061078b5760405162461bcd60e51b81526020600482015260126024820152710a0dea47440d2dcecc2d8d2c840d2dcc8caf60731b60448201526064016104d8565b6003828154811061079e5761079e6118c9565b5f91825260209182902060408051610120810182526008909302909101805483526001810154938301939093526002830154908201526003820154606082015260048201546080820152600582015460ff8116151560a08301526001600160a01b03610100918290041660c0830152600683015460e08301526007830180549293929184019161082d90611864565b80601f016020809104026020016040519081016040528092919081815260200182805461085990611864565b80156108a45780601f1061087b576101008083540402835291602001916108a4565b820191905f5260205f20905b81548152906001019060200180831161088757829003601f168201915b5050505050815250509050919050565b6108bc611054565b600655565b6003545f9081036108d257505f1990565b600380546108e2906001906118b0565b815481106108f2576108f26118c9565b905f5260205f209060080201600601544261090d91906118b0565b905090565b60048181548110610921575f80fd5b905f5260205f2090600402015f91509050805f01805461094090611864565b80601f016020809104026020016040519081016040528092919081815260200182805461096c90611864565b80156109b75780601f1061098e576101008083540402835291602001916109b7565b820191905f5260205f20905b81548152906001019060200180831161099a57829003601f168201915b5050505050908060010180546109cc90611864565b80601f01602080910402602001604051908101604052809291908181526020018280546109f890611864565b8015610a435780601f10610a1a57610100808354040283529160200191610a43565b820191905f5260205f20905b815481529060010190602001808311610a2657829003601f168201915b5050505050908060020154908060030154905084565b335f9081526002602052604090205460ff1680610a7f57505f546001600160a01b031633145b610abf5760405162461bcd60e51b8152602060048201526011602482015270141bd48e881d5b985d5d1a1bdc9a5e9959607a1b60448201526064016104d8565b600154604080516278744560e21b815290515f926001600160a01b0316916301e1d1149160048083019260209291908290030181865afa158015610b05573d5f5f3e3d5ffd5b505050506040513d601f19601f82011682018060405250810190610b299190611a36565b90505f60015f9054906101000a90046001600160a01b03166001600160a01b0316632cbf3da06040518163ffffffff1660e01b8152600401602060405180830381865afa158015610b7c573d5f5f3e3d5ffd5b505050506040513d601f19601f82011682018060405250810190610ba09190611a36565b90505f60015f9054906101000a90046001600160a01b03166001600160a01b031663ec18154e6040518163ffffffff1660e01b8152600401602060405180830381865afa158015610bf3573d5f5f3e3d5ffd5b505050506040513d601f19601f82011682018060405250810190610c179190611a36565b90505f86610c258986611a4d565b610c2f9190611a4d565b90505f82821015905060036040518061012001604052808b81526020018a81526020018781526020018481526020018581526020018315158152602001336001600160a01b0316815260200142815260200189898080601f0160208091040260200160405190810160405280939291908181526020018383808284375f920182905250939094525050835460018082018655948252602091829020845160089092020190815590830151938101939093555060408101516002830155606081015160038301556080810151600483015560a081015160058301805460c08401516001600160a81b0319909116921515610100600160a81b031916929092176101006001600160a01b03909316830217905560e082015160068401558101519091906007820190610d5f908261193d565b5050600354604080518c81526020810189905290810185905283151560608201523360808201524260a08201529091507f4ddad04c75a4d009a2abac903d260e712b7ccf7c63b22c853055cb86115e97259060c00160405180910390a2505050505050505050565b610dcf611054565b6001600160a01b038116610e175760405162461bcd60e51b815260206004820152600f60248201526e141bd48e881e995c9bc81d985d5b1d608a1b60448201526064016104d8565b600180546001600160a01b0319166001600160a01b0392909216919091179055565b610e41611054565b610e4a5f611080565b565b610e54611054565b6001600160a01b038216610e9f5760405162461bcd60e51b81526020600482015260126024820152712837a91d103d32b9379030ba3a32b9ba37b960711b60448201526064016104d8565b6001600160a01b03919091165f908152600260205260409020805460ff1916911515919091179055565b610ed161141c565b610ed96110cf565b600780549192505f610eea83611a60565b909155505042600855610100810151158015610f07575060035415155b15610f545760e08101516005546040805192835260208301919091524282820152517f5161dac613826654bc1c86fe058e0360dda7b69c10d9fabb81bd498a18754e679181900360600190a15b6007547fab618ddd92d5c20c703a602fc8e426fca73972cb5953f9ef82a50126ec9171a682610120015183610140015184610100015142604051610f9b9493929190611a78565b60405180910390a290565b6003545f908103610fb657505f90565b60055460038054610fc9906001906118b0565b81548110610fd957610fd96118c9565b905f5260205f2090600802016006015442610ff491906118b0565b10905090565b61100261141c565b61090d6110cf565b611012611054565b6001600160a01b03811661103b57604051631e4fbdf760e01b81525f60048201526024016104d8565b61104481611080565b50565b61104f611054565b600555565b5f546001600160a01b03163314610e4a5760405163118cdaa760e01b81523360048201526024016104d8565b5f80546001600160a01b038381166001600160a01b0319831681178455604051919092169283917f8be0079c531659141344cd1fd0a4f28419497f9722a3daafe3b4186f6b6457e09190a35050565b6110d761141c565b60015f9054906101000a90046001600160a01b03166001600160a01b0316632cbf3da06040518163ffffffff1660e01b8152600401602060405180830381865afa158015611127573d5f5f3e3d5ffd5b505050506040513d601f19601f8201168201806040525081019061114b9190611a36565b8152600154604080516318160ddd60e01b815290516001600160a01b03909216916318160ddd916004808201926020929091908290030181865afa158015611195573d5f5f3e3d5ffd5b505050506040513d601f19601f820116820180604052508101906111b99190611a36565b60208083019190915260015460408051634ca9858360e11b815290516001600160a01b03909216926399530b06926004808401938290030181865afa158015611204573d5f5f3e3d5ffd5b505050506040513d601f19601f820116820180604052508101906112289190611a36565b604080830191909152600154815163d63f4c0760e01b815291516001600160a01b039091169163d63f4c079160048083019260209291908290030181865afa158015611276573d5f5f3e3d5ffd5b505050506040513d601f19601f8201168201806040525081019061129a9190611a36565b60608201526003541561132857600380545f91906112ba906001906118b0565b815481106112ca576112ca6118c9565b5f918252602090912060089091020180546080840152600181015460a0840152600381015460c0840152600681015490915061130690426118b0565b60e0830181905260058054909110610100840152015460ff1615156101408201525b6113318161137a565b816101200190600281111561134857611348611773565b9081600281111561135b5761135b611773565b905250600354610160820152600454610180820152426101a082015290565b6003545f90810361138d57506001919050565b6006548260e00151106113a257506002919050565b8161014001516113b457506002919050565b8161010001516113c657506001919050565b505f919050565b6040518061012001604052805f81526020015f81526020015f81526020015f81526020015f81526020015f151581526020015f6001600160a01b031681526020015f8152602001606081525090565b604051806101c001604052805f81526020015f81526020015f81526020015f81526020015f81526020015f81526020015f81526020015f81526020015f151581526020015f600281111561147257611472611773565b81526020015f151581526020015f81526020015f81526020015f81525090565b5f602082840312156114a2575f5ffd5b5035919050565b5f81518084528060208401602086015e5f602082860101526020601f19601f83011685010191505092915050565b89815288602082015287604082015286606082015285608082015284151560a082015260018060a01b03841660c08201528260e08201526101206101008201525f6115266101208301846114a9565b9b9a5050505050505050505050565b6020815281516020820152602082015160408201526040820151606082015260608201516080820152608082015160a08201525f60a083015161157c60c084018215159052565b5060c08301516001600160a01b03811660e08401525060e0830151610100830152610100830151610120808401526115b86101408401826114a9565b949350505050565b5f5f83601f8401126115d0575f5ffd5b50813567ffffffffffffffff8111156115e7575f5ffd5b6020830191508360208285010111156115fe575f5ffd5b9250929050565b5f5f5f5f5f60608688031215611619575f5ffd5b853567ffffffffffffffff81111561162f575f5ffd5b61163b888289016115c0565b909650945050602086013567ffffffffffffffff81111561165a575f5ffd5b611666888289016115c0565b96999598509660400135949350505050565b608081525f61168a60808301876114a9565b828103602084015261169c81876114a9565b604084019590955250506060015292915050565b5f5f5f5f606085870312156116c3575f5ffd5b8435935060208501359250604085013567ffffffffffffffff8111156116e7575f5ffd5b6116f3878288016115c0565b95989497509550505050565b80356001600160a01b0381168114611715575f5ffd5b919050565b5f6020828403121561172a575f5ffd5b611733826116ff565b9392505050565b5f5f6040838503121561174b575f5ffd5b611754836116ff565b915060208301358015158114611768575f5ffd5b809150509250929050565b634e487b7160e01b5f52602160045260245ffd5b600381106117a357634e487b7160e01b5f52602160045260245ffd5b9052565b5f6101c082019050825182526020830151602083015260408301516040830152606083015160608301526080830151608083015260a083015160a083015260c083015160c083015260e083015160e083015261010083015161180e61010084018215159052565b50610120830151611823610120840182611787565b5061014083015161183961014084018215159052565b506101608301516101608301526101808301516101808301526101a08301516101a083015292915050565b600181811c9082168061187857607f821691505b60208210810361189657634e487b7160e01b5f52602260045260245ffd5b50919050565b634e487b7160e01b5f52601160045260245ffd5b818103818111156118c3576118c361189c565b92915050565b634e487b7160e01b5f52603260045260245ffd5b634e487b7160e01b5f52604160045260245ffd5b601f82111561193857805f5260205f20601f840160051c810160208510156119165750805b601f840160051c820191505b81811015611935575f8155600101611922565b50505b505050565b815167ffffffffffffffff811115611957576119576118dd565b61196b816119658454611864565b846118f1565b6020601f82116001811461199d575f83156119865750848201515b5f19600385901b1c1916600184901b178455611935565b5f84815260208120601f198516915b828110156119cc57878501518255602094850194600190920191016119ac565b50848210156119e957868401515f19600387901b60f8161c191681555b50505050600190811b01905550565b60608152836060820152838560808301375f608085830101525f6080601f19601f870116830101905083602083015282604083015295945050505050565b5f60208284031215611a46575f5ffd5b5051919050565b808201808211156118c3576118c361189c565b5f60018201611a7157611a7161189c565b5060010190565b60808101611a868287611787565b9315156020820152911515604083015260609091015291905056fea2646970667358221220d19f91e3f962daac46838581fb53041eb5e3213f8da3d59610665a4077d9ff3d64736f6c634300081c0033","linkReferences":{}},"methodIdentifiers":{"BPS_DENOMINATOR()":"e1a45218","DEFAULT_STALENESS_THRESHOLD()":"b25f68ae","attestationAge()":"33eb83ce","attestationCount()":"a15b9321","attestations(uint256)":"01daf26b","authorizeAttestor(address,bool)":"8ca260a9","authorizedAttestors(address)":"5d62dea7","criticalStaleness()":"83619c08","getAttestation(uint256)":"29be4db2","getReport()":"e4085d67","healthCheck()":"b252720b","isAttestationFresh()":"b72a1b23","lastCheckTime()":"d655c691","latestAttestation()":"24b6d96a","owner()":"8da5cb5b","renounceOwnership()":"715018a6","setCriticalStaleness(uint256)":"308c9918","setStalenessThreshold(uint256)":"fb01e7f2","setVault(address)":"6817031b","stalenessThreshold()":"a84f6ebb","submitAttestation(uint256,uint256,string)":"5b3abbfd","submitThirdPartyAttestation(string,string,uint256)":"262da703","thirdPartyAttestationCount()":"5676efbe","thirdPartyAttestations(uint256)":"5af692ff","totalChecks()":"162e2264","transferOwnership(address)":"f2fde38b","vault()":"fbfa77cf"},"id":62}