{"abi":[{"type":"constructor","inputs":[{"name":"_profitAsset","type":"address","internalType":"address"},{"name":"_operationsWallet","type":"address","internalType":"address"},{"name":"_sovereignReserve","type":"address","internalType":"address"},{"name":"_teamWallet","type":"address","internalType":"address"},{"name":"_initialHWM","type":"uint256","internalType":"uint256"},{"name":"_owner","type":"address","internalType":"address"}],"stateMutability":"nonpayable"},{"type":"function","name":"BPS","inputs":[],"outputs":[{"name":"","type":"uint256","internalType":"uint256"}],"stateMutability":"view"},{"type":"function","name":"authorizeCaller","inputs":[{"name":"caller","type":"address","internalType":"address"},{"name":"authorized","type":"bool","internalType":"bool"}],"outputs":[],"stateMutability":"nonpayable"},{"type":"function","name":"authorizedCallers","inputs":[{"name":"","type":"address","internalType":"address"}],"outputs":[{"name":"","type":"bool","internalType":"bool"}],"stateMutability":"view"},{"type":"function","name":"distributableProfit","inputs":[{"name":"currentNAV","type":"uint256","internalType":"uint256"}],"outputs":[{"name":"","type":"uint256","internalType":"uint256"}],"stateMutability":"view"},{"type":"function","name":"distributeProfit","inputs":[{"name":"currentNAV","type":"uint256","internalType":"uint256"},{"name":"profitAmount","type":"uint256","internalType":"uint256"}],"outputs":[],"stateMutability":"nonpayable"},{"type":"function","name":"distributionInterval","inputs":[],"outputs":[{"name":"","type":"uint256","internalType":"uint256"}],"stateMutability":"view"},{"type":"function","name":"getSplit","inputs":[{"name":"index","type":"uint256","internalType":"uint256"}],"outputs":[{"name":"","type":"tuple","internalType":"struct ProfitSplitter.SplitRecord","components":[{"name":"totalProfit","type":"uint256","internalType":"uint256"},{"name":"toOperations","type":"uint256","internalType":"uint256"},{"name":"toSovereign","type":"uint256","internalType":"uint256"},{"name":"toTeam","type":"uint256","internalType":"uint256"},{"name":"oldHWM","type":"uint256","internalType":"uint256"},{"name":"newHWM","type":"uint256","internalType":"uint256"},{"name":"token","type":"address","internalType":"address"},{"name":"timestamp","type":"uint256","internalType":"uint256"}]}],"stateMutability":"view"},{"type":"function","name":"highWaterMark","inputs":[],"outputs":[{"name":"","type":"uint256","internalType":"uint256"}],"stateMutability":"view"},{"type":"function","name":"lastDistributionTime","inputs":[],"outputs":[{"name":"","type":"uint256","internalType":"uint256"}],"stateMutability":"view"},{"type":"function","name":"operationsWallet","inputs":[],"outputs":[{"name":"","type":"address","internalType":"address"}],"stateMutability":"view"},{"type":"function","name":"owner","inputs":[],"outputs":[{"name":"","type":"address","internalType":"address"}],"stateMutability":"view"},{"type":"function","name":"profitAsset","inputs":[],"outputs":[{"name":"","type":"address","internalType":"contract IERC20"}],"stateMutability":"view"},{"type":"function","name":"renounceOwnership","inputs":[],"outputs":[],"stateMutability":"nonpayable"},{"type":"function","name":"setDestinations","inputs":[{"name":"_operations","type":"address","internalType":"address"},{"name":"_sovereign","type":"address","internalType":"address"},{"name":"_team","type":"address","internalType":"address"}],"outputs":[],"stateMutability":"nonpayable"},{"type":"function","name":"setDistributionInterval","inputs":[{"name":"_interval","type":"uint256","internalType":"uint256"}],"outputs":[],"stateMutability":"nonpayable"},{"type":"function","name":"setHighWaterMark","inputs":[{"name":"_hwm","type":"uint256","internalType":"uint256"}],"outputs":[],"stateMutability":"nonpayable"},{"type":"function","name":"setSplitConfig","inputs":[{"name":"_operationsBps","type":"uint256","internalType":"uint256"},{"name":"_sovereignBps","type":"uint256","internalType":"uint256"},{"name":"_teamBps","type":"uint256","internalType":"uint256"}],"outputs":[],"stateMutability":"nonpayable"},{"type":"function","name":"sovereignReserve","inputs":[],"outputs":[{"name":"","type":"address","internalType":"address"}],"stateMutability":"view"},{"type":"function","name":"splitConfig","inputs":[],"outputs":[{"name":"operationsBps","type":"uint256","internalType":"uint256"},{"name":"sovereignBps","type":"uint256","internalType":"uint256"},{"name":"teamBps","type":"uint256","internalType":"uint256"}],"stateMutability":"view"},{"type":"function","name":"splitCount","inputs":[],"outputs":[{"name":"","type":"uint256","internalType":"uint256"}],"stateMutability":"view"},{"type":"function","name":"splitHistory","inputs":[{"name":"","type":"uint256","internalType":"uint256"}],"outputs":[{"name":"totalProfit","type":"uint256","internalType":"uint256"},{"name":"toOperations","type":"uint256","internalType":"uint256"},{"name":"toSovereign","type":"uint256","internalType":"uint256"},{"name":"toTeam","type":"uint256","internalType":"uint256"},{"name":"oldHWM","type":"uint256","internalType":"uint256"},{"name":"newHWM","type":"uint256","internalType":"uint256"},{"name":"token","type":"address","internalType":"address"},{"name":"timestamp","type":"uint256","internalType":"uint256"}],"stateMutability":"view"},{"type":"function","name":"splitSummary","inputs":[],"outputs":[{"name":"_totalProfits","type":"uint256","internalType":"uint256"},{"name":"_totalOperations","type":"uint256","internalType":"uint256"},{"name":"_totalSovereign","type":"uint256","internalType":"uint256"},{"name":"_totalTeam","type":"uint256","internalType":"uint256"},{"name":"_totalSplits","type":"uint256","internalType":"uint256"},{"name":"_highWaterMark","type":"uint256","internalType":"uint256"},{"name":"_operationsBps","type":"uint256","internalType":"uint256"},{"name":"_sovereignBps","type":"uint256","internalType":"uint256"},{"name":"_teamBps","type":"uint256","internalType":"uint256"},{"name":"_lastDistribution","type":"uint256","internalType":"uint256"},{"name":"_nextDistribution","type":"uint256","internalType":"uint256"}],"stateMutability":"view"},{"type":"function","name":"teamWallet","inputs":[],"outputs":[{"name":"","type":"address","internalType":"address"}],"stateMutability":"view"},{"type":"function","name":"totalProfitsSplit","inputs":[],"outputs":[{"name":"","type":"uint256","internalType":"uint256"}],"stateMutability":"view"},{"type":"function","name":"totalSplits","inputs":[],"outputs":[{"name":"","type":"uint256","internalType":"uint256"}],"stateMutability":"view"},{"type":"function","name":"totalToOperations","inputs":[],"outputs":[{"name":"","type":"uint256","internalType":"uint256"}],"stateMutability":"view"},{"type":"function","name":"totalToSovereign","inputs":[],"outputs":[{"name":"","type":"uint256","internalType":"uint256"}],"stateMutability":"view"},{"type":"function","name":"totalToTeam","inputs":[],"outputs":[{"name":"","type":"uint256","internalType":"uint256"}],"stateMutability":"view"},{"type":"function","name":"transferOwnership","inputs":[{"name":"newOwner","type":"address","internalType":"address"}],"outputs":[],"stateMutability":"nonpayable"},{"type":"event","name":"DestinationsUpdated","inputs":[{"name":"operations","type":"address","indexed":false,"internalType":"address"},{"name":"sovereign","type":"address","indexed":false,"internalType":"address"},{"name":"team","type":"address","indexed":false,"internalType":"address"}],"anonymous":false},{"type":"event","name":"DistributionIntervalUpdated","inputs":[{"name":"oldInterval","type":"uint256","indexed":false,"internalType":"uint256"},{"name":"newInterval","type":"uint256","indexed":false,"internalType":"uint256"}],"anonymous":false},{"type":"event","name":"HighWaterMarkUpdated","inputs":[{"name":"oldHWM","type":"uint256","indexed":false,"internalType":"uint256"},{"name":"newHWM","type":"uint256","indexed":false,"internalType":"uint256"},{"name":"timestamp","type":"uint256","indexed":false,"internalType":"uint256"}],"anonymous":false},{"type":"event","name":"OwnershipTransferred","inputs":[{"name":"previousOwner","type":"address","indexed":true,"internalType":"address"},{"name":"newOwner","type":"address","indexed":true,"internalType":"address"}],"anonymous":false},{"type":"event","name":"ProfitSplit","inputs":[{"name":"totalProfit","type":"uint256","indexed":false,"internalType":"uint256"},{"name":"toOperations","type":"uint256","indexed":false,"internalType":"uint256"},{"name":"toSovereign","type":"uint256","indexed":false,"internalType":"uint256"},{"name":"toTeam","type":"uint256","indexed":false,"internalType":"uint256"},{"name":"oldHWM","type":"uint256","indexed":false,"internalType":"uint256"},{"name":"newHWM","type":"uint256","indexed":false,"internalType":"uint256"},{"name":"timestamp","type":"uint256","indexed":false,"internalType":"uint256"}],"anonymous":false},{"type":"event","name":"SplitConfigUpdated","inputs":[{"name":"operationsBps","type":"uint256","indexed":false,"internalType":"uint256"},{"name":"sovereignBps","type":"uint256","indexed":false,"internalType":"uint256"},{"name":"teamBps","type":"uint256","indexed":false,"internalType":"uint256"}],"anonymous":false},{"type":"error","name":"OwnableInvalidOwner","inputs":[{"name":"owner","type":"address","internalType":"address"}]},{"type":"error","name":"OwnableUnauthorizedAccount","inputs":[{"name":"account","type":"address","internalType":"address"}]},{"type":"error","name":"ReentrancyGuardReentrantCall","inputs":[]},{"type":"error","name":"SafeERC20FailedOperation","inputs":[{"name":"token","type":"address","internalType":"address"}]}],"bytecode":{"object":"0x60a060405234801561000f575f5ffd5b5060405161181738038061181783398101604081905261002e916102ad565b806001600160a01b03811661005d57604051631e4fbdf760e01b81525f60048201526024015b60405180910390fd5b61006681610243565b5060017f9b779b17422d0df92223018b32b4d1fa46e071723d6817e2486d003becc55f00556001600160a01b0386166100d25760405162461bcd60e51b815260206004820152600e60248201526d1414ce881e995c9bc8185cdcd95d60921b6044820152606401610054565b6001600160a01b0385166101285760405162461bcd60e51b815260206004820152601360248201527f50533a207a65726f206f7065726174696f6e73000000000000000000000000006044820152606401610054565b6001600160a01b0384166101735760405162461bcd60e51b815260206004820152601260248201527128299d103d32b9379039b7bb32b932b4b3b760711b6044820152606401610054565b6001600160a01b0383166101b95760405162461bcd60e51b815260206004820152600d60248201526c50533a207a65726f207465616d60981b6044820152606401610054565b506001600160a01b03948516608052600480549486166001600160a01b03199586161790556005805493861693851693909317909255600680549190941692169190911790915560075560408051606081018252611388808252610bb8602083018190526107d09290930182905260015560029190915560035562093a8060085542600955610316565b5f80546001600160a01b038381166001600160a01b0319831681178455604051919092169283917f8be0079c531659141344cd1fd0a4f28419497f9722a3daafe3b4186f6b6457e09190a35050565b80516001600160a01b03811681146102a8575f5ffd5b919050565b5f5f5f5f5f5f60c087890312156102c2575f5ffd5b6102cb87610292565b95506102d960208801610292565b94506102e760408801610292565b93506102f560608801610292565b92506080870151915061030a60a08801610292565b90509295509295509295565b6080516114c66103515f395f818161022c01528181610b8101528181610e3a01528181610e7a01528181610eba0152610f9301526114c65ff3fe608060405234801561000f575f5ffd5b50600436106101c6575f3560e01c806371201a0e116100fe578063b1df24421161009e578063e4af73341161006e578063e4af73341461049d578063f2fde38b146104b0578063fcc55e58146104c3578063fd72e22a146104d6575f5ffd5b8063b1df24421461046f578063b81554d514610482578063bc4db9031461048b578063cb89ff7414610494575f5ffd5b80637a16a49e116100d95780637a16a49e146103ec5780638da5cb5b146103ff578063908765e11461040f578063a238790e14610466575f5ffd5b806371201a0e146103d2578063715018a6146103db57806375b17350146103e3575f5ffd5b80633d94e55811610169578063514a681011610144578063514a681014610302578063536fff6c1461037a578063552b42d4146103ac57806359927044146103bf575f5ffd5b80633d94e5581461028b5780633d9db3a3146102e65780635027db94146102f9575f5ffd5b80631e8410da116101a45780631e8410da1461024e578063249d39e914610265578063268250561461026e57806327b0f08814610276575f5ffd5b80630142daf1146101ca57806316a1614b146101fa5780631c05b38114610227575b5f5ffd5b6005546101dd906001600160a01b031681565b6040516001600160a01b0390911681526020015b60405180910390f35b60015460025460035461020c92919083565b604080519384526020840192909252908201526060016101f1565b6101dd7f000000000000000000000000000000000000000000000000000000000000000081565b61025760075481565b6040519081526020016101f1565b61025761271081565b600b54610257565b6102896102843660046112e0565b6104e9565b005b610293610541565b604080519b8c5260208c019a909a52988a01979097526060890195909552608088019390935260a087019190915260c086015260e0850152610100840152610120830152610140820152610160016101f1565b6102576102f43660046112e0565b6105a4565b61025760105481565b6103156103103660046112e0565b6105c8565b6040516101f19190815181526020808301519082015260408083015190820152606080830151908201526080808301519082015260a0808301519082015260c0808301516001600160a01b03169082015260e091820151918101919091526101000190565b61039c610388366004611312565b600a6020525f908152604090205460ff1681565b60405190151581526020016101f1565b6102896103ba366004611332565b6106e6565b6006546101dd906001600160a01b031681565b61025760085481565b610289610850565b61025760095481565b6102896103fa3660046112e0565b610863565b5f546001600160a01b03166101dd565b61042261041d3660046112e0565b6108a9565b604080519889526020890197909752958701949094526060860192909252608085015260a08401526001600160a01b031660c083015260e0820152610100016101f1565b610257600e5481565b61028961047d366004611372565b610909565b610257600c5481565b610257600d5481565b610257600f5481565b6102896104ab36600461139b565b6109d1565b6102896104be366004611312565b610c30565b6102896104d13660046113bb565b610c6d565b6004546101dd906001600160a01b031681565b6104f1610ce7565b6007805490829055604080518281526020810184905242918101919091527fa1bb4e98c6723e8d4105d53a914e72cf323953e0efec68b086d5cd7a00b8ba68906060015b60405180910390a15050565b5f5f5f5f5f5f5f5f5f5f5f600c54600d54600e54600f5460105460075460015f015460018001546001600201546009546008546009546105819190611408565b9a509a509a509a509a509a509a509a509a509a509a50909192939495969798999a565b5f60075482116105b557505f919050565b6007546105c2908361141b565b92915050565b6106116040518061010001604052805f81526020015f81526020015f81526020015f81526020015f81526020015f81526020015f6001600160a01b031681526020015f81525090565b600b54821061065b5760405162461bcd60e51b81526020600482015260116024820152700a0a67440d2dcecc2d8d2c840d2dcc8caf607b1b60448201526064015b60405180910390fd5b600b828154811061066e5761066e61142e565b5f91825260209182902060408051610100810182526008909302909101805483526001810154938301939093526002830154908201526003820154606082015260048201546080820152600582015460a082015260068201546001600160a01b031660c082015260079091015460e082015292915050565b6106ee610ce7565b6001600160a01b03831661073a5760405162461bcd60e51b815260206004820152601360248201527250533a207a65726f206f7065726174696f6e7360681b6044820152606401610652565b6001600160a01b0382166107855760405162461bcd60e51b815260206004820152601260248201527128299d103d32b9379039b7bb32b932b4b3b760711b6044820152606401610652565b6001600160a01b0381166107cb5760405162461bcd60e51b815260206004820152600d60248201526c50533a207a65726f207465616d60981b6044820152606401610652565b600480546001600160a01b038581166001600160a01b0319928316811790935560058054868316908416811790915560068054928616929093168217909255604080519384526020840192909252908201527fc373038cce2b8f4f06fd7153118dd362a6ccc123043c8689fc5ed4182c4e90a4906060015b60405180910390a1505050565b610858610ce7565b6108615f610d13565b565b61086b610ce7565b600880549082905560408051828152602081018490527f86ae1dce805c6398d216b494416bfb4e21b626edcde2225efe26154daebb9ff59101610535565b600b81815481106108b8575f80fd5b5f91825260209091206008909102018054600182015460028301546003840154600485015460058601546006870154600790970154959750939592949193909290916001600160a01b039091169088565b610911610ce7565b6127108161091f8486611408565b6109299190611408565b1461096d5760405162461bcd60e51b815260206004820152601460248201527350533a206d7573742073756d20746f203130302560601b6044820152606401610652565b6040805160608082018352858252602080830186905291830184905260018690556002859055600384905582518681529182018590529181018390527f7e9c36a9c00682273003b9974e9147c4f1fcca939c8fe021087ccfaa266667d59101610843565b6109d9610d62565b335f908152600a602052604090205460ff16806109ff57505f546001600160a01b031633145b610a3e5760405162461bcd60e51b815260206004820152601060248201526f1414ce881d5b985d5d1a1bdc9a5e995960821b6044820152606401610652565b5f8111610a7f5760405162461bcd60e51b815260206004820152600f60248201526e1414ce881e995c9bc81c1c9bd99a5d608a1b6044820152606401610652565b600854600954610a8f9190611408565b421015610ace5760405162461bcd60e51b815260206004820152600d60248201526c50533a20746f6f206561726c7960981b6044820152606401610652565b6007548211610b135760405162461bcd60e51b815260206004820152601160248201527050533a204e41562062656c6f772048574d60781b6044820152606401610652565b5f60075483610b22919061141b565b905080821115610b745760405162461bcd60e51b815260206004820152601d60248201527f50533a2070726f66697420657863656564732048574d206578636573730000006044820152606401610652565b610ba96001600160a01b037f000000000000000000000000000000000000000000000000000000000000000016333085610d90565b600754610bb68382610dcc565b6007849055426009819055604080518381526020810187905280820192909252517fa1bb4e98c6723e8d4105d53a914e72cf323953e0efec68b086d5cd7a00b8ba689181900360600190a15050610c2c60017f9b779b17422d0df92223018b32b4d1fa46e071723d6817e2486d003becc55f0055565b5050565b610c38610ce7565b6001600160a01b038116610c6157604051631e4fbdf760e01b81525f6004820152602401610652565b610c6a81610d13565b50565b610c75610ce7565b6001600160a01b038216610cbd5760405162461bcd60e51b815260206004820152600f60248201526e28299d103d32b9379031b0b63632b960891b6044820152606401610652565b6001600160a01b03919091165f908152600a60205260409020805460ff1916911515919091179055565b5f546001600160a01b031633146108615760405163118cdaa760e01b8152336004820152602401610652565b5f80546001600160a01b038381166001600160a01b0319831681178455604051919092169283917f8be0079c531659141344cd1fd0a4f28419497f9722a3daafe3b4186f6b6457e09190a35050565b610d6a611195565b60027f9b779b17422d0df92223018b32b4d1fa46e071723d6817e2486d003becc55f0055565b610d9e8484848460016111d7565b610dc657604051635274afe760e01b81526001600160a01b0385166004820152602401610652565b50505050565b6001545f9061271090610ddf9085611442565b610de99190611459565b90505f612710600180015485610dff9190611442565b610e099190611459565b90505f81610e17848761141b565b610e21919061141b565b90508215610e6357600454610e63906001600160a01b037f00000000000000000000000000000000000000000000000000000000000000008116911685611244565b8115610ea357600554610ea3906001600160a01b037f00000000000000000000000000000000000000000000000000000000000000008116911684611244565b8015610ee357600654610ee3906001600160a01b037f00000000000000000000000000000000000000000000000000000000000000008116911683611244565b84600c5f828254610ef49190611408565b9250508190555082600d5f828254610f0c9190611408565b9250508190555081600e5f828254610f249190611408565b9250508190555080600f5f828254610f3c9190611408565b909155505060108054905f610f5083611478565b909155505060408051610100810182528681526020810185815281830185815260608301858152608084018981526007805460a087019081526001600160a01b037f0000000000000000000000000000000000000000000000000000000000000000811660c089019081524260e08a01818152600b80546001810182555f919091529a516008909b027f0175b7a638427703f0dbe7bb9bbf987a2551717b34e79f33b5b1008d1fa01db981019b909b5598517f0175b7a638427703f0dbe7bb9bbf987a2551717b34e79f33b5b1008d1fa01dba8b015596517f0175b7a638427703f0dbe7bb9bbf987a2551717b34e79f33b5b1008d1fa01dbb8a015594517f0175b7a638427703f0dbe7bb9bbf987a2551717b34e79f33b5b1008d1fa01dbc89015592517f0175b7a638427703f0dbe7bb9bbf987a2551717b34e79f33b5b1008d1fa01dbd880155517f0175b7a638427703f0dbe7bb9bbf987a2551717b34e79f33b5b1008d1fa01dbe87015591517f0175b7a638427703f0dbe7bb9bbf987a2551717b34e79f33b5b1008d1fa01dbf86018054919092166001600160a01b031990911617905591517f0175b7a638427703f0dbe7bb9bbf987a2551717b34e79f33b5b1008d1fa01dc0909301929092555491517fe0cefecd98a3059440ef02f21b765258aff0ea93a22037fdf8698483f58346c3926111869289928892889288928c929190968752602087019590955260408601939093526060850191909152608084015260a083015260c082015260e00190565b60405180910390a15050505050565b7f9b779b17422d0df92223018b32b4d1fa46e071723d6817e2486d003becc55f005460020361086157604051633ee5aeb560e01b815260040160405180910390fd5b6040516323b872dd60e01b5f8181526001600160a01b038781166004528616602452604485905291602083606481808c5af1925060015f51148316611233578383151615611227573d5f823e3d81fd5b5f883b113d1516831692505b604052505f60605295945050505050565b611251838383600161127e565b61127957604051635274afe760e01b81526001600160a01b0384166004820152602401610652565b505050565b60405163a9059cbb60e01b5f8181526001600160a01b038616600452602485905291602083604481808b5af1925060015f511483166112d45783831516156112c8573d5f823e3d81fd5b5f873b113d1516831692505b60405250949350505050565b5f602082840312156112f0575f5ffd5b5035919050565b80356001600160a01b038116811461130d575f5ffd5b919050565b5f60208284031215611322575f5ffd5b61132b826112f7565b9392505050565b5f5f5f60608486031215611344575f5ffd5b61134d846112f7565b925061135b602085016112f7565b9150611369604085016112f7565b90509250925092565b5f5f5f60608486031215611384575f5ffd5b505081359360208301359350604090920135919050565b5f5f604083850312156113ac575f5ffd5b50508035926020909101359150565b5f5f604083850312156113cc575f5ffd5b6113d5836112f7565b9150602083013580151581146113e9575f5ffd5b809150509250929050565b634e487b7160e01b5f52601160045260245ffd5b808201808211156105c2576105c26113f4565b818103818111156105c2576105c26113f4565b634e487b7160e01b5f52603260045260245ffd5b80820281158282048414176105c2576105c26113f4565b5f8261147357634e487b7160e01b5f52601260045260245ffd5b500490565b5f60018201611489576114896113f4565b506001019056fea2646970667358221220a5049fb9f912dccfb4ff74808f81a57a8de5e080c4e1556e8f1cd98e65d161b264736f6c634300081c0033","linkReferences":{}},"methodIdentifiers":{"BPS()":"249d39e9","authorizeCaller(address,bool)":"fcc55e58","authorizedCallers(address)":"536fff6c","distributableProfit(uint256)":"3d9db3a3","distributeProfit(uint256,uint256)":"e4af7334","distributionInterval()":"71201a0e","getSplit(uint256)":"514a6810","highWaterMark()":"1e8410da","lastDistributionTime()":"75b17350","operationsWallet()":"fd72e22a","owner()":"8da5cb5b","profitAsset()":"1c05b381","renounceOwnership()":"715018a6","setDestinations(address,address,address)":"552b42d4","setDistributionInterval(uint256)":"7a16a49e","setHighWaterMark(uint256)":"27b0f088","setSplitConfig(uint256,uint256,uint256)":"b1df2442","sovereignReserve()":"0142daf1","splitConfig()":"16a1614b","splitCount()":"26825056","splitHistory(uint256)":"908765e1","splitSummary()":"3d94e558","teamWallet()":"59927044","totalProfitsSplit()":"b81554d5","totalSplits()":"5027db94","totalToOperations()":"bc4db903","totalToSovereign()":"a238790e","totalToTeam()":"cb89ff74","transferOwnership(address)":"f2fde38b"},"id":61}