{"abi":[{"type":"constructor","inputs":[{"name":"_owner","type":"address","internalType":"address"}],"stateMutability":"nonpayable"},{"type":"function","name":"ADVISOR_ALLOCATION","inputs":[],"outputs":[{"name":"","type":"uint256","internalType":"uint256"}],"stateMutability":"view"},{"type":"function","name":"CLOCK_MODE","inputs":[],"outputs":[{"name":"","type":"string","internalType":"string"}],"stateMutability":"view"},{"type":"function","name":"COMMUNITY_ALLOCATION","inputs":[],"outputs":[{"name":"","type":"uint256","internalType":"uint256"}],"stateMutability":"view"},{"type":"function","name":"DOMAIN_SEPARATOR","inputs":[],"outputs":[{"name":"","type":"bytes32","internalType":"bytes32"}],"stateMutability":"view"},{"type":"function","name":"FOUNDER_ALLOCATION","inputs":[],"outputs":[{"name":"","type":"uint256","internalType":"uint256"}],"stateMutability":"view"},{"type":"function","name":"LIQUIDITY_ALLOCATION","inputs":[],"outputs":[{"name":"","type":"uint256","internalType":"uint256"}],"stateMutability":"view"},{"type":"function","name":"MAX_SUPPLY","inputs":[],"outputs":[{"name":"","type":"uint256","internalType":"uint256"}],"stateMutability":"view"},{"type":"function","name":"SECURITY_ALLOCATION","inputs":[],"outputs":[{"name":"","type":"uint256","internalType":"uint256"}],"stateMutability":"view"},{"type":"function","name":"TREASURY_ALLOCATION","inputs":[],"outputs":[{"name":"","type":"uint256","internalType":"uint256"}],"stateMutability":"view"},{"type":"function","name":"advisorVesting","inputs":[],"outputs":[{"name":"","type":"address","internalType":"address"}],"stateMutability":"view"},{"type":"function","name":"allowance","inputs":[{"name":"owner","type":"address","internalType":"address"},{"name":"spender","type":"address","internalType":"address"}],"outputs":[{"name":"","type":"uint256","internalType":"uint256"}],"stateMutability":"view"},{"type":"function","name":"approve","inputs":[{"name":"spender","type":"address","internalType":"address"},{"name":"value","type":"uint256","internalType":"uint256"}],"outputs":[{"name":"","type":"bool","internalType":"bool"}],"stateMutability":"nonpayable"},{"type":"function","name":"balanceOf","inputs":[{"name":"account","type":"address","internalType":"address"}],"outputs":[{"name":"","type":"uint256","internalType":"uint256"}],"stateMutability":"view"},{"type":"function","name":"burn","inputs":[{"name":"value","type":"uint256","internalType":"uint256"}],"outputs":[],"stateMutability":"nonpayable"},{"type":"function","name":"burnFrom","inputs":[{"name":"account","type":"address","internalType":"address"},{"name":"value","type":"uint256","internalType":"uint256"}],"outputs":[],"stateMutability":"nonpayable"},{"type":"function","name":"cap","inputs":[],"outputs":[{"name":"","type":"uint256","internalType":"uint256"}],"stateMutability":"view"},{"type":"function","name":"checkpoints","inputs":[{"name":"account","type":"address","internalType":"address"},{"name":"pos","type":"uint32","internalType":"uint32"}],"outputs":[{"name":"","type":"tuple","internalType":"struct Checkpoints.Checkpoint208","components":[{"name":"_key","type":"uint48","internalType":"uint48"},{"name":"_value","type":"uint208","internalType":"uint208"}]}],"stateMutability":"view"},{"type":"function","name":"clock","inputs":[],"outputs":[{"name":"","type":"uint48","internalType":"uint48"}],"stateMutability":"view"},{"type":"function","name":"communityPool","inputs":[],"outputs":[{"name":"","type":"address","internalType":"address"}],"stateMutability":"view"},{"type":"function","name":"decimals","inputs":[],"outputs":[{"name":"","type":"uint8","internalType":"uint8"}],"stateMutability":"view"},{"type":"function","name":"delegate","inputs":[{"name":"delegatee","type":"address","internalType":"address"}],"outputs":[],"stateMutability":"nonpayable"},{"type":"function","name":"delegateBySig","inputs":[{"name":"delegatee","type":"address","internalType":"address"},{"name":"nonce","type":"uint256","internalType":"uint256"},{"name":"expiry","type":"uint256","internalType":"uint256"},{"name":"v","type":"uint8","internalType":"uint8"},{"name":"r","type":"bytes32","internalType":"bytes32"},{"name":"s","type":"bytes32","internalType":"bytes32"}],"outputs":[],"stateMutability":"nonpayable"},{"type":"function","name":"delegates","inputs":[{"name":"account","type":"address","internalType":"address"}],"outputs":[{"name":"","type":"address","internalType":"address"}],"stateMutability":"view"},{"type":"function","name":"distribute","inputs":[{"name":"_founderVesting","type":"address","internalType":"address"},{"name":"_communityPool","type":"address","internalType":"address"},{"name":"_treasury","type":"address","internalType":"address"},{"name":"_liquidityPool","type":"address","internalType":"address"},{"name":"_advisorVesting","type":"address","internalType":"address"},{"name":"_securityFund","type":"address","internalType":"address"}],"outputs":[],"stateMutability":"nonpayable"},{"type":"function","name":"distributed","inputs":[],"outputs":[{"name":"","type":"bool","internalType":"bool"}],"stateMutability":"view"},{"type":"function","name":"eip712Domain","inputs":[],"outputs":[{"name":"fields","type":"bytes1","internalType":"bytes1"},{"name":"name","type":"string","internalType":"string"},{"name":"version","type":"string","internalType":"string"},{"name":"chainId","type":"uint256","internalType":"uint256"},{"name":"verifyingContract","type":"address","internalType":"address"},{"name":"salt","type":"bytes32","internalType":"bytes32"},{"name":"extensions","type":"uint256[]","internalType":"uint256[]"}],"stateMutability":"view"},{"type":"function","name":"founderVesting","inputs":[],"outputs":[{"name":"","type":"address","internalType":"address"}],"stateMutability":"view"},{"type":"function","name":"getPastTotalSupply","inputs":[{"name":"timepoint","type":"uint256","internalType":"uint256"}],"outputs":[{"name":"","type":"uint256","internalType":"uint256"}],"stateMutability":"view"},{"type":"function","name":"getPastVotes","inputs":[{"name":"account","type":"address","internalType":"address"},{"name":"timepoint","type":"uint256","internalType":"uint256"}],"outputs":[{"name":"","type":"uint256","internalType":"uint256"}],"stateMutability":"view"},{"type":"function","name":"getVotes","inputs":[{"name":"account","type":"address","internalType":"address"}],"outputs":[{"name":"","type":"uint256","internalType":"uint256"}],"stateMutability":"view"},{"type":"function","name":"liquidityPool","inputs":[],"outputs":[{"name":"","type":"address","internalType":"address"}],"stateMutability":"view"},{"type":"function","name":"mint","inputs":[{"name":"to","type":"address","internalType":"address"},{"name":"amount","type":"uint256","internalType":"uint256"}],"outputs":[],"stateMutability":"nonpayable"},{"type":"function","name":"name","inputs":[],"outputs":[{"name":"","type":"string","internalType":"string"}],"stateMutability":"view"},{"type":"function","name":"nonces","inputs":[{"name":"owner","type":"address","internalType":"address"}],"outputs":[{"name":"","type":"uint256","internalType":"uint256"}],"stateMutability":"view"},{"type":"function","name":"numCheckpoints","inputs":[{"name":"account","type":"address","internalType":"address"}],"outputs":[{"name":"","type":"uint32","internalType":"uint32"}],"stateMutability":"view"},{"type":"function","name":"owner","inputs":[],"outputs":[{"name":"","type":"address","internalType":"address"}],"stateMutability":"view"},{"type":"function","name":"permit","inputs":[{"name":"owner","type":"address","internalType":"address"},{"name":"spender","type":"address","internalType":"address"},{"name":"value","type":"uint256","internalType":"uint256"},{"name":"deadline","type":"uint256","internalType":"uint256"},{"name":"v","type":"uint8","internalType":"uint8"},{"name":"r","type":"bytes32","internalType":"bytes32"},{"name":"s","type":"bytes32","internalType":"bytes32"}],"outputs":[],"stateMutability":"nonpayable"},{"type":"function","name":"renounceOwnership","inputs":[],"outputs":[],"stateMutability":"nonpayable"},{"type":"function","name":"securityFund","inputs":[],"outputs":[{"name":"","type":"address","internalType":"address"}],"stateMutability":"view"},{"type":"function","name":"symbol","inputs":[],"outputs":[{"name":"","type":"string","internalType":"string"}],"stateMutability":"view"},{"type":"function","name":"totalSupply","inputs":[],"outputs":[{"name":"","type":"uint256","internalType":"uint256"}],"stateMutability":"view"},{"type":"function","name":"transfer","inputs":[{"name":"to","type":"address","internalType":"address"},{"name":"value","type":"uint256","internalType":"uint256"}],"outputs":[{"name":"","type":"bool","internalType":"bool"}],"stateMutability":"nonpayable"},{"type":"function","name":"transferFrom","inputs":[{"name":"from","type":"address","internalType":"address"},{"name":"to","type":"address","internalType":"address"},{"name":"value","type":"uint256","internalType":"uint256"}],"outputs":[{"name":"","type":"bool","internalType":"bool"}],"stateMutability":"nonpayable"},{"type":"function","name":"transferOwnership","inputs":[{"name":"newOwner","type":"address","internalType":"address"}],"outputs":[],"stateMutability":"nonpayable"},{"type":"function","name":"treasury","inputs":[],"outputs":[{"name":"","type":"address","internalType":"address"}],"stateMutability":"view"},{"type":"event","name":"Approval","inputs":[{"name":"owner","type":"address","indexed":true,"internalType":"address"},{"name":"spender","type":"address","indexed":true,"internalType":"address"},{"name":"value","type":"uint256","indexed":false,"internalType":"uint256"}],"anonymous":false},{"type":"event","name":"DelegateChanged","inputs":[{"name":"delegator","type":"address","indexed":true,"internalType":"address"},{"name":"fromDelegate","type":"address","indexed":true,"internalType":"address"},{"name":"toDelegate","type":"address","indexed":true,"internalType":"address"}],"anonymous":false},{"type":"event","name":"DelegateVotesChanged","inputs":[{"name":"delegate","type":"address","indexed":true,"internalType":"address"},{"name":"previousVotes","type":"uint256","indexed":false,"internalType":"uint256"},{"name":"newVotes","type":"uint256","indexed":false,"internalType":"uint256"}],"anonymous":false},{"type":"event","name":"EIP712DomainChanged","inputs":[],"anonymous":false},{"type":"event","name":"OwnershipTransferred","inputs":[{"name":"previousOwner","type":"address","indexed":true,"internalType":"address"},{"name":"newOwner","type":"address","indexed":true,"internalType":"address"}],"anonymous":false},{"type":"event","name":"TokensDistributed","inputs":[{"name":"founderVesting","type":"address","indexed":true,"internalType":"address"},{"name":"communityPool","type":"address","indexed":true,"internalType":"address"},{"name":"treasury","type":"address","indexed":true,"internalType":"address"},{"name":"timestamp","type":"uint256","indexed":false,"internalType":"uint256"}],"anonymous":false},{"type":"event","name":"Transfer","inputs":[{"name":"from","type":"address","indexed":true,"internalType":"address"},{"name":"to","type":"address","indexed":true,"internalType":"address"},{"name":"value","type":"uint256","indexed":false,"internalType":"uint256"}],"anonymous":false},{"type":"error","name":"CheckpointUnorderedInsertion","inputs":[]},{"type":"error","name":"ECDSAInvalidSignature","inputs":[]},{"type":"error","name":"ECDSAInvalidSignatureLength","inputs":[{"name":"length","type":"uint256","internalType":"uint256"}]},{"type":"error","name":"ECDSAInvalidSignatureS","inputs":[{"name":"s","type":"bytes32","internalType":"bytes32"}]},{"type":"error","name":"ERC20ExceededCap","inputs":[{"name":"increasedSupply","type":"uint256","internalType":"uint256"},{"name":"cap","type":"uint256","internalType":"uint256"}]},{"type":"error","name":"ERC20ExceededSafeSupply","inputs":[{"name":"increasedSupply","type":"uint256","internalType":"uint256"},{"name":"cap","type":"uint256","internalType":"uint256"}]},{"type":"error","name":"ERC20InsufficientAllowance","inputs":[{"name":"spender","type":"address","internalType":"address"},{"name":"allowance","type":"uint256","internalType":"uint256"},{"name":"needed","type":"uint256","internalType":"uint256"}]},{"type":"error","name":"ERC20InsufficientBalance","inputs":[{"name":"sender","type":"address","internalType":"address"},{"name":"balance","type":"uint256","internalType":"uint256"},{"name":"needed","type":"uint256","internalType":"uint256"}]},{"type":"error","name":"ERC20InvalidApprover","inputs":[{"name":"approver","type":"address","internalType":"address"}]},{"type":"error","name":"ERC20InvalidCap","inputs":[{"name":"cap","type":"uint256","internalType":"uint256"}]},{"type":"error","name":"ERC20InvalidReceiver","inputs":[{"name":"receiver","type":"address","internalType":"address"}]},{"type":"error","name":"ERC20InvalidSender","inputs":[{"name":"sender","type":"address","internalType":"address"}]},{"type":"error","name":"ERC20InvalidSpender","inputs":[{"name":"spender","type":"address","internalType":"address"}]},{"type":"error","name":"ERC2612ExpiredSignature","inputs":[{"name":"deadline","type":"uint256","internalType":"uint256"}]},{"type":"error","name":"ERC2612InvalidSigner","inputs":[{"name":"signer","type":"address","internalType":"address"},{"name":"owner","type":"address","internalType":"address"}]},{"type":"error","name":"ERC5805FutureLookup","inputs":[{"name":"timepoint","type":"uint256","internalType":"uint256"},{"name":"clock","type":"uint48","internalType":"uint48"}]},{"type":"error","name":"ERC6372InconsistentClock","inputs":[]},{"type":"error","name":"InvalidAccountNonce","inputs":[{"name":"account","type":"address","internalType":"address"},{"name":"currentNonce","type":"uint256","internalType":"uint256"}]},{"type":"error","name":"InvalidShortString","inputs":[]},{"type":"error","name":"OwnableInvalidOwner","inputs":[{"name":"owner","type":"address","internalType":"address"}]},{"type":"error","name":"OwnableUnauthorizedAccount","inputs":[{"name":"account","type":"address","internalType":"address"}]},{"type":"error","name":"SafeCastOverflowedUintDowncast","inputs":[{"name":"bits","type":"uint8","internalType":"uint8"},{"name":"value","type":"uint256","internalType":"uint256"}]},{"type":"error","name":"StringTooLong","inputs":[{"name":"str","type":"string","internalType":"string"}]},{"type":"error","name":"VotesExpiredSignature","inputs":[{"name":"expiry","type":"uint256","internalType":"uint256"}]}],"bytecode":{"object":"0x610180604052348015610010575f5ffd5b5060405161296938038061296983398101604081905261002f916102d3565b806040518060400160405280601a81526020017f536f7665726569676e20526573657276652043757272656e637900000000000081525080604051806040016040528060018152602001603160f81b8152506a52b7d2dcc80cd2e40000006040518060400160405280601a81526020017f536f7665726569676e20526573657276652043757272656e63790000000000008152506040518060400160405280600381526020016253524360e81b81525081600390816100ee9190610398565b5060046100fb8282610398565b505050805f036101255760405163392e1e2760e01b81525f60048201526024015b60405180910390fd5b608052610133826005610213565b61014052610142816006610213565b61016052815160208084019190912061010052815190820120610120524660c0526101d06101005161012051604080517f8b73c3c69bb8fe3d512ecc4cf759cc79239f7b179b0ffacaa9a75d522b39400f60208201529081019290925260608201524660808201523060a08201525f9060c00160405160208183030381529060405280519060200120905090565b60a05250503060e052506001600160a01b03811661020357604051631e4fbdf760e01b81525f600482015260240161011c565b61020c81610245565b50506104aa565b5f60208351101561022e5761022783610296565b905061023f565b816102398482610398565b5060ff90505b92915050565b600b80546001600160a01b038381166001600160a01b0319831681179093556040519116919082907f8be0079c531659141344cd1fd0a4f28419497f9722a3daafe3b4186f6b6457e0905f90a35050565b5f5f829050601f815111156102c0578260405163305a27a960e01b815260040161011c9190610452565b80516102cb82610487565b179392505050565b5f602082840312156102e3575f5ffd5b81516001600160a01b03811681146102f9575f5ffd5b9392505050565b634e487b7160e01b5f52604160045260245ffd5b600181811c9082168061032857607f821691505b60208210810361034657634e487b7160e01b5f52602260045260245ffd5b50919050565b601f82111561039357805f5260205f20601f840160051c810160208510156103715750805b601f840160051c820191505b81811015610390575f815560010161037d565b50505b505050565b81516001600160401b038111156103b1576103b1610300565b6103c5816103bf8454610314565b8461034c565b6020601f8211600181146103f7575f83156103e05750848201515b5f19600385901b1c1916600184901b178455610390565b5f84815260208120601f198516915b828110156104265787850151825560209485019460019092019101610406565b508482101561044357868401515f19600387901b60f8161c191681555b50505050600190811b01905550565b602081525f82518060208401528060208501604085015e5f604082850101526040601f19601f83011684010191505092915050565b80516020808301519190811015610346575f1960209190910360031b1b16919050565b60805160a05160c05160e0516101005161012051610140516101605161245d61050c5f395f6112ea01525f6112bd01525f61102a01525f61100201525f610f5d01525f610f8701525f610fb101525f81816103430152611c74015261245d5ff3fe608060405234801561000f575f5ffd5b5060043610610276575f3560e01c806370a0823111610156578063993eb1c5116100ca578063d5fa2e8011610084578063d5fa2e80146105b2578063dd62ed3e146105c5578063f1127ed8146105fd578063f2fde38b1461063c578063f84b903e1461064f578063f9428f3814610663575f5ffd5b8063993eb1c5146105545780639ab24eb014610566578063a9059cbb14610579578063bf1ad7e014610527578063c3cda5201461058c578063d505accf1461059f575f5ffd5b80638da5cb5b1161011b5780638da5cb5b146104e45780638e539e8c146104f557806391ddadf41461050857806394d32a5d1461052757806395d89b411461053957806397ea45e514610541575f5ffd5b806370a0823114610473578063715018a61461049b57806379cc6790146104a35780637ecebe00146104b657806384b0196e146104c9575f5ffd5b806340c10f19116101ed578063587cde1e116101b2578063587cde1e146103d55780635c19a95c1461040057806361d027b31461041357806362c3db9b14610426578063665a11ca146104385780636fcfff451461044b575f5ffd5b806340c10f191461038257806342966c68146103955780634bf5d7e9146103a85780635706dfd2146103b0578063579494db146103c2575f5ffd5b806323b872dd1161023e57806323b872dd1461030d578063313ce5671461032057806332cb6b0c1461032f578063355274ea146103415780633644e515146103675780633a46b1a81461036f575f5ffd5b806306fdde031461027a578063095ea7b31461029857806314d140b0146102bb57806318160ddd146102e65780631d0ce0b4146102f8575b5f5ffd5b610282610675565b60405161028f9190612013565b60405180910390f35b6102ab6102a6366004612040565b610705565b604051901515815260200161028f565b600d546102ce906001600160a01b031681565b6040516001600160a01b03909116815260200161028f565b6002545b60405190815260200161028f565b61030b610306366004612068565b61071e565b005b6102ab61031b3660046120d8565b6109bd565b6040516012815260200161028f565b6102ea6a52b7d2dcc80cd2e400000081565b7f00000000000000000000000000000000000000000000000000000000000000006102ea565b6102ea6109e0565b6102ea61037d366004612040565b6109ee565b61030b610390366004612040565b610a28565b61030b6103a3366004612112565b610a3e565b610282610a4b565b6102ea6a084595161401484a00000081565b6010546102ce906001600160a01b031681565b6102ce6103e3366004612129565b6001600160a01b039081165f908152600860205260409020541690565b61030b61040e366004612129565b610ac3565b600e546102ce906001600160a01b031681565b6102ea6a0422ca8b0a00a42500000081565b600f546102ce906001600160a01b031681565b61045e610459366004612129565b610ace565b60405163ffffffff909116815260200161028f565b6102ea610481366004612129565b6001600160a01b03165f9081526020819052604090205490565b61030b610ad8565b61030b6104b1366004612040565b610aeb565b6102ea6104c4366004612129565b610b00565b6104d1610b0a565b60405161028f9796959493929190612142565b600b546001600160a01b03166102ce565b6102ea610503366004612112565b610b4c565b610510610b70565b60405165ffffffffffff909116815260200161028f565b6102ea6a108b2a2c2802909400000081565b610282610b79565b600c546102ce906001600160a01b031681565b6102ea6a18d0bf423c03d8de00000081565b6102ea610574366004612129565b610b88565b6102ab610587366004612040565b610ba8565b61030b61059a3660046121e8565b610bb5565b61030b6105ad36600461223c565b610c71565b6011546102ce906001600160a01b031681565b6102ea6105d33660046122a2565b6001600160a01b039182165f90815260016020908152604080832093909416825291909152205490565b61061061060b3660046122d3565b610da7565b60408051825165ffffffffffff1681526020928301516001600160d01b0316928101929092520161028f565b61030b61064a366004612129565b610dcb565b600b546102ab90600160a01b900460ff1681565b6102ea6a0c685fa11e01ec6f00000081565b60606003805461068490612310565b80601f01602080910402602001604051908101604052809291908181526020018280546106b090612310565b80156106fb5780601f106106d2576101008083540402835291602001916106fb565b820191905f5260205f20905b8154815290600101906020018083116106de57829003601f168201915b5050505050905090565b5f33610712818585610e05565b60019150505b92915050565b610726610e17565b600b54600160a01b900460ff16156107855760405162461bcd60e51b815260206004820152601860248201527f5352433a20616c7265616479206469737472696275746564000000000000000060448201526064015b60405180910390fd5b6001600160a01b0386166107ab5760405162461bcd60e51b815260040161077c90612348565b6001600160a01b0385166107d15760405162461bcd60e51b815260040161077c90612348565b6001600160a01b0384166107f75760405162461bcd60e51b815260040161077c90612348565b6001600160a01b03831661081d5760405162461bcd60e51b815260040161077c90612348565b6001600160a01b0382166108435760405162461bcd60e51b815260040161077c90612348565b6001600160a01b0381166108695760405162461bcd60e51b815260040161077c90612348565b600b805460ff60a01b1916600160a01b179055600c80546001600160a01b038089166001600160a01b031992831617909255600d8054888416908316179055600e8054878416908316179055600f80548684169083161790556010805485841690831617905560118054928416929091169190911790556108f5866a108b2a2c28029094000000610e44565b61090a856a18d0bf423c03d8de000000610e44565b61091f846a108b2a2c28029094000000610e44565b610934836a0c685fa11e01ec6f000000610e44565b610949826a084595161401484a000000610e44565b61095e816a0422ca8b0a00a425000000610e44565b836001600160a01b0316856001600160a01b0316876001600160a01b03167f0a978db972ddc55ce6713eae779905207705a2d684283bdf2162fdf60c6e8ccd426040516109ad91815260200190565b60405180910390a4505050505050565b5f336109ca858285610e78565b6109d5858585610ef4565b506001949350505050565b5f6109e9610f51565b905090565b5f610a186109fb8361107a565b6001600160a01b0385165f908152600960205260409020906110c8565b6001600160d01b03169392505050565b610a30610e17565b610a3a8282610e44565b5050565b610a483382611178565b50565b6060610a556111ac565b65ffffffffffff16610a65610b70565b65ffffffffffff1614610a8b576040516301bfc1c560e61b815260040160405180910390fd5b5060408051808201909152601d81527f6d6f64653d626c6f636b6e756d6265722666726f6d3d64656661756c74000000602082015290565b33610a3a81836111b6565b5f61071882611227565b610ae0610e17565b610ae95f611248565b565b610af6823383610e78565b610a3a8282611178565b5f61071882611299565b5f6060805f5f5f6060610b1b6112b6565b610b236112e3565b604080515f80825260208201909252600f60f81b9b939a50919850469750309650945092509050565b5f610b61610b598361107a565b600a906110c8565b6001600160d01b031692915050565b5f6109e96111ac565b60606004805461068490612310565b6001600160a01b0381165f908152600960205260408120610b6190611310565b5f33610712818585610ef4565b83421115610bd957604051632341d78760e11b81526004810185905260240161077c565b604080517fe48329057bfd03d55e49b547132e39cffd9c1820ad7b9d4c5307691425d15adf60208201526001600160a01b0388169181019190915260608101869052608081018590525f90610c5290610c4a9060a00160405160208183030381529060405280519060200120611347565b858585611373565b9050610c5e818761139f565b610c6881886111b6565b50505050505050565b83421115610c955760405163313c898160e11b81526004810185905260240161077c565b5f7f6e71edae12b1b97f4d1f60370fef10105fa2faae0126114a169c64845d6126c9888888610ce08c6001600160a01b03165f90815260076020526040902080546001810190915590565b6040805160208101969096526001600160a01b0394851690860152929091166060840152608083015260a082015260c0810186905260e0016040516020818303038152906040528051906020012090505f610d3a82611347565b90505f610d4982878787611373565b9050896001600160a01b0316816001600160a01b031614610d90576040516325c0072360e11b81526001600160a01b0380831660048301528b16602482015260440161077c565b610d9b8a8a8a610e05565b50505050505050505050565b604080518082019091525f8082526020820152610dc483836113f1565b9392505050565b610dd3610e17565b6001600160a01b038116610dfc57604051631e4fbdf760e01b81525f600482015260240161077c565b610a4881611248565b610e128383836001611425565b505050565b600b546001600160a01b03163314610ae95760405163118cdaa760e01b815233600482015260240161077c565b6001600160a01b038216610e6d5760405163ec442f0560e01b81525f600482015260240161077c565b610a3a5f83836114f7565b6001600160a01b038381165f908152600160209081526040808320938616835292905220545f19811015610eee5781811015610ee057604051637dc7a0d960e11b81526001600160a01b0384166004820152602481018290526044810183905260640161077c565b610eee84848484035f611425565b50505050565b6001600160a01b038316610f1d57604051634b637e8f60e11b81525f600482015260240161077c565b6001600160a01b038216610f465760405163ec442f0560e01b81525f600482015260240161077c565b610e128383836114f7565b5f306001600160a01b037f000000000000000000000000000000000000000000000000000000000000000016148015610fa957507f000000000000000000000000000000000000000000000000000000000000000046145b15610fd357507f000000000000000000000000000000000000000000000000000000000000000090565b6109e9604080517f8b73c3c69bb8fe3d512ecc4cf759cc79239f7b179b0ffacaa9a75d522b39400f60208201527f0000000000000000000000000000000000000000000000000000000000000000918101919091527f000000000000000000000000000000000000000000000000000000000000000060608201524660808201523060a08201525f9060c00160405160208183030381529060405280519060200120905090565b5f5f611084610b70565b90508065ffffffffffff1683106110bf57604051637669fc0f60e11b81526004810184905265ffffffffffff8216602482015260440161077c565b610dc483611502565b81545f9081816005811115611124575f6110e184611538565b6110eb9085612387565b5f8881526020902090915081015465ffffffffffff908116908716101561111457809150611122565b61111f81600161239a565b92505b505b5f61113187878585611690565b9050801561116b5761115587611148600184612387565b5f91825260209091200190565b54600160301b90046001600160d01b031661116d565b5f5b979650505050505050565b6001600160a01b0382166111a157604051634b637e8f60e11b81525f600482015260240161077c565b610a3a825f836114f7565b5f6109e943611502565b6001600160a01b038281165f8181526008602052604080822080548686166001600160a01b0319821681179092559151919094169392849290917f3134e8a2e6d97e929a7e54011ea5485d7d196dd5f0ba4d4ef95803e8e3fc257f9190a4610e128183611222866116e6565b611703565b6001600160a01b0381165f908152600960205260408120546107189061186c565b600b80546001600160a01b038381166001600160a01b0319831681179093556040519116919082907f8be0079c531659141344cd1fd0a4f28419497f9722a3daafe3b4186f6b6457e0905f90a35050565b6001600160a01b0381165f90815260076020526040812054610718565b60606109e97f0000000000000000000000000000000000000000000000000000000000000000600561189c565b60606109e97f0000000000000000000000000000000000000000000000000000000000000000600661189c565b80545f90801561133f5761132983611148600184612387565b54600160301b90046001600160d01b0316610dc4565b5f9392505050565b5f610718611353610f51565b8360405161190160f01b8152600281019290925260228201526042902090565b5f5f5f5f61138388888888611945565b9250925092506113938282611a0d565b50909695505050505050565b6001600160a01b0382165f908152600760205260409020805460018101909155818114610e12576040516301d4b62360e61b81526001600160a01b03841660048201526024810182905260440161077c565b604080518082019091525f80825260208201526001600160a01b0383165f908152600960205260409020610dc49083611ac5565b6001600160a01b03841661144e5760405163e602df0560e01b81525f600482015260240161077c565b6001600160a01b03831661147757604051634a1406b160e11b81525f600482015260240161077c565b6001600160a01b038085165f9081526001602090815260408083209387168352929052208290558015610eee57826001600160a01b0316846001600160a01b03167f8c5be1e5ebec7d5bd14f71427d1e84f3dd0314c0f7b2291e5b200ac8c7c3b925846040516114e991815260200190565b60405180910390a350505050565b610e12838383611b32565b5f65ffffffffffff821115611534576040516306dfcc6560e41b8152603060048201526024810183905260440161077c565b5090565b5f60018211611545575090565b816001600160801b821061155e5760809190911c9060401b5b6801000000000000000082106115795760409190911c9060201b5b64010000000082106115905760209190911c9060101b5b6201000082106115a55760109190911c9060081b5b61010082106115b95760089190911c9060041b5b601082106115cc5760049190911c9060021b5b600482106115d85760011b5b600302600190811c908185816115f0576115f06123ad565b048201901c90506001818581611608576116086123ad565b048201901c90506001818581611620576116206123ad565b048201901c90506001818581611638576116386123ad565b048201901c90506001818581611650576116506123ad565b048201901c90506001818581611668576116686123ad565b048201901c9050611687818581611681576116816123ad565b04821190565b90039392505050565b5f5b818310156116de575f85815260209020838316600285851804019081015465ffffffffffff868116911611156116ca578092506116d8565b6116d581600161239a565b93505b50611692565b509392505050565b6001600160a01b0381165f90815260208190526040812054610718565b816001600160a01b0316836001600160a01b03161415801561172457505f81115b15610e12576001600160a01b038316156117cb576001600160a01b0383165f908152600960205260408120819061176690611b9861176186611ba3565b611bd6565b6001600160d01b031691506001600160d01b03169150846001600160a01b03167fdec2bacdd2f05b59de34da9b523dff8be42e5e38e818c82fdb0bae774387a72483836040516117c0929190918252602082015260400190565b60405180910390a250505b6001600160a01b03821615610e12576001600160a01b0382165f908152600960205260408120819061180390611c0e61176186611ba3565b6001600160d01b031691506001600160d01b03169150836001600160a01b03167fdec2bacdd2f05b59de34da9b523dff8be42e5e38e818c82fdb0bae774387a724838360405161185d929190918252602082015260400190565b60405180910390a25050505050565b5f63ffffffff821115611534576040516306dfcc6560e41b8152602060048201526024810183905260440161077c565b606060ff83146118b6576118af83611c19565b9050610718565b8180546118c290612310565b80601f01602080910402602001604051908101604052809291908181526020018280546118ee90612310565b80156119395780601f1061191057610100808354040283529160200191611939565b820191905f5260205f20905b81548152906001019060200180831161191c57829003601f168201915b50505050509050610718565b5f80807f7fffffffffffffffffffffffffffffff5d576e7357a4501ddfe92f46681b20a084111561197e57505f91506003905082611a03565b604080515f808252602082018084528a905260ff891692820192909252606081018790526080810186905260019060a0016020604051602081039080840390855afa1580156119cf573d5f5f3e3d5ffd5b5050604051601f1901519150506001600160a01b0381166119fa57505f925060019150829050611a03565b92505f91508190505b9450945094915050565b5f826003811115611a2057611a206123c1565b03611a29575050565b6001826003811115611a3d57611a3d6123c1565b03611a5b5760405163f645eedf60e01b815260040160405180910390fd5b6002826003811115611a6f57611a6f6123c1565b03611a905760405163fce698f760e01b81526004810182905260240161077c565b6003826003811115611aa457611aa46123c1565b03610a3a576040516335e2f38360e21b81526004810182905260240161077c565b604080518082019091525f8082526020820152825f018263ffffffff1681548110611af257611af26123d5565b5f9182526020918290206040805180820190915291015465ffffffffffff81168252600160301b90046001600160d01b0316918101919091529392505050565b611b3d838383611c56565b6001600160a01b038316611b8d575f611b5560025490565b90506001600160d01b0380821115611b8a57604051630e58ae9360e11b8152600481018390526024810182905260440161077c565b50505b610e12838383611cc6565b5f610dc482846123e9565b5f6001600160d01b03821115611534576040516306dfcc6560e41b815260d060048201526024810183905260440161077c565b5f5f611c01611be3610b70565b611bf9611bef88611310565b868863ffffffff16565b879190611d3b565b915091505b935093915050565b5f610dc48284612408565b60605f611c2583611d48565b6040805160208082528183019092529192505f91906020820181803683375050509182525060208101929092525090565b611c61838383611d6f565b6001600160a01b038316610e12576002547f00000000000000000000000000000000000000000000000000000000000000009081811115611cbf5760405163279e7e1560e21b8152600481018290526024810183905260440161077c565b5050505050565b6001600160a01b038316611ce857611ce5600a611c0e61176184611ba3565b50505b6001600160a01b038216611d0a57611d07600a611b9861176184611ba3565b50505b6001600160a01b038381165f90815260086020526040808220548584168352912054610e1292918216911683611703565b5f80611c01858585611e95565b5f60ff8216601f81111561071857604051632cd44ac360e21b815260040160405180910390fd5b6001600160a01b038316611d99578060025f828254611d8e919061239a565b90915550611e099050565b6001600160a01b0383165f9081526020819052604090205481811015611deb5760405163391434e360e21b81526001600160a01b0385166004820152602481018290526044810183905260640161077c565b6001600160a01b0384165f9081526020819052604090209082900390555b6001600160a01b038216611e2557600280548290039055611e43565b6001600160a01b0382165f9081526020819052604090208054820190555b816001600160a01b0316836001600160a01b03167fddf252ad1be2c89b69c2b068fc378daa952ba7f163c4a11628f55a4df523b3ef83604051611e8891815260200190565b60405180910390a3505050565b82545f9081908015611f8b575f611eb187611148600185612387565b805490915065ffffffffffff80821691600160301b90046001600160d01b0316908816821115611ef457604051632520601d60e01b815260040160405180910390fd5b8765ffffffffffff168265ffffffffffff1603611f2d57825465ffffffffffff16600160301b6001600160d01b03891602178355611f7d565b6040805180820190915265ffffffffffff808a1682526001600160d01b03808a1660208085019182528d54600181018f555f8f81529190912094519151909216600160301b029216919091179101555b9450859350611c0692505050565b50506040805180820190915265ffffffffffff80851682526001600160d01b0380851660208085019182528854600181018a555f8a815291822095519251909316600160301b029190931617920191909155905081611c06565b5f81518084528060208401602086015e5f602082860101526020601f19601f83011685010191505092915050565b602081525f610dc46020830184611fe5565b80356001600160a01b038116811461203b575f5ffd5b919050565b5f5f60408385031215612051575f5ffd5b61205a83612025565b946020939093013593505050565b5f5f5f5f5f5f60c0878903121561207d575f5ffd5b61208687612025565b955061209460208801612025565b94506120a260408801612025565b93506120b060608801612025565b92506120be60808801612025565b91506120cc60a08801612025565b90509295509295509295565b5f5f5f606084860312156120ea575f5ffd5b6120f384612025565b925061210160208501612025565b929592945050506040919091013590565b5f60208284031215612122575f5ffd5b5035919050565b5f60208284031215612139575f5ffd5b610dc482612025565b60ff60f81b8816815260e060208201525f61216060e0830189611fe5565b82810360408401526121728189611fe5565b606084018890526001600160a01b038716608085015260a0840186905283810360c0850152845180825260208087019350909101905f5b818110156121c75783518352602093840193909201916001016121a9565b50909b9a5050505050505050505050565b803560ff8116811461203b575f5ffd5b5f5f5f5f5f5f60c087890312156121fd575f5ffd5b61220687612025565b95506020870135945060408701359350612222606088016121d8565b9598949750929560808101359460a0909101359350915050565b5f5f5f5f5f5f5f60e0888a031215612252575f5ffd5b61225b88612025565b965061226960208901612025565b95506040880135945060608801359350612285608089016121d8565b9699959850939692959460a0840135945060c09093013592915050565b5f5f604083850312156122b3575f5ffd5b6122bc83612025565b91506122ca60208401612025565b90509250929050565b5f5f604083850312156122e4575f5ffd5b6122ed83612025565b9150602083013563ffffffff81168114612305575f5ffd5b809150509250929050565b600181811c9082168061232457607f821691505b60208210810361234257634e487b7160e01b5f52602260045260245ffd5b50919050565b6020808252601190820152705352433a207a65726f206164647265737360781b604082015260600190565b634e487b7160e01b5f52601160045260245ffd5b8181038181111561071857610718612373565b8082018082111561071857610718612373565b634e487b7160e01b5f52601260045260245ffd5b634e487b7160e01b5f52602160045260245ffd5b634e487b7160e01b5f52603260045260245ffd5b6001600160d01b03828116828216039081111561071857610718612373565b6001600160d01b0381811683821601908111156107185761071861237356fea2646970667358221220c7b254734b5c2590c8eef2a87d1d80cd0b17149b855129801c9a57023538a7f164736f6c634300081c0033","linkReferences":{}},"methodIdentifiers":{"ADVISOR_ALLOCATION()":"5706dfd2","CLOCK_MODE()":"4bf5d7e9","COMMUNITY_ALLOCATION()":"993eb1c5","DOMAIN_SEPARATOR()":"3644e515","FOUNDER_ALLOCATION()":"94d32a5d","LIQUIDITY_ALLOCATION()":"f9428f38","MAX_SUPPLY()":"32cb6b0c","SECURITY_ALLOCATION()":"62c3db9b","TREASURY_ALLOCATION()":"bf1ad7e0","advisorVesting()":"579494db","allowance(address,address)":"dd62ed3e","approve(address,uint256)":"095ea7b3","balanceOf(address)":"70a08231","burn(uint256)":"42966c68","burnFrom(address,uint256)":"79cc6790","cap()":"355274ea","checkpoints(address,uint32)":"f1127ed8","clock()":"91ddadf4","communityPool()":"14d140b0","decimals()":"313ce567","delegate(address)":"5c19a95c","delegateBySig(address,uint256,uint256,uint8,bytes32,bytes32)":"c3cda520","delegates(address)":"587cde1e","distribute(address,address,address,address,address,address)":"1d0ce0b4","distributed()":"f84b903e","eip712Domain()":"84b0196e","founderVesting()":"97ea45e5","getPastTotalSupply(uint256)":"8e539e8c","getPastVotes(address,uint256)":"3a46b1a8","getVotes(address)":"9ab24eb0","liquidityPool()":"665a11ca","mint(address,uint256)":"40c10f19","name()":"06fdde03","nonces(address)":"7ecebe00","numCheckpoints(address)":"6fcfff45","owner()":"8da5cb5b","permit(address,address,uint256,uint256,uint8,bytes32,bytes32)":"d505accf","renounceOwnership()":"715018a6","securityFund()":"d5fa2e80","symbol()":"95d89b41","totalSupply()":"18160ddd","transfer(address,uint256)":"a9059cbb","transferFrom(address,address,uint256)":"23b872dd","transferOwnership(address)":"f2fde38b","treasury()":"61d027b3"},"id":65}