{"abi":[{"type":"constructor","inputs":[{"name":"_owner","type":"address","internalType":"address"},{"name":"_version","type":"string","internalType":"string"},{"name":"_usingProxy","type":"bool","internalType":"bool"}],"stateMutability":"nonpayable"},{"type":"function","name":"NAME","inputs":[],"outputs":[{"name":"","type":"string","internalType":"string"}],"stateMutability":"view"},{"type":"function","name":"contractCount","inputs":[],"outputs":[{"name":"","type":"uint256","internalType":"uint256"}],"stateMutability":"view"},{"type":"function","name":"contractNames","inputs":[{"name":"","type":"uint256","internalType":"uint256"}],"outputs":[{"name":"","type":"string","internalType":"string"}],"stateMutability":"view"},{"type":"function","name":"contracts","inputs":[{"name":"","type":"string","internalType":"string"}],"outputs":[{"name":"addr","type":"address","internalType":"address"},{"name":"version","type":"string","internalType":"string"},{"name":"active","type":"bool","internalType":"bool"},{"name":"registeredAt","type":"uint256","internalType":"uint256"},{"name":"updatedAt","type":"uint256","internalType":"uint256"}],"stateMutability":"view"},{"type":"function","name":"deactivateContract","inputs":[{"name":"name","type":"string","internalType":"string"}],"outputs":[],"stateMutability":"nonpayable"},{"type":"function","name":"getContract","inputs":[{"name":"name","type":"string","internalType":"string"}],"outputs":[{"name":"","type":"address","internalType":"address"}],"stateMutability":"view"},{"type":"function","name":"getContractInfo","inputs":[{"name":"name","type":"string","internalType":"string"}],"outputs":[{"name":"","type":"tuple","internalType":"struct W3BProtocol.ContractInfo","components":[{"name":"addr","type":"address","internalType":"address"},{"name":"version","type":"string","internalType":"string"},{"name":"active","type":"bool","internalType":"bool"},{"name":"registeredAt","type":"uint256","internalType":"uint256"},{"name":"updatedAt","type":"uint256","internalType":"uint256"}]}],"stateMutability":"view"},{"type":"function","name":"getContractNames","inputs":[],"outputs":[{"name":"","type":"string[]","internalType":"string[]"}],"stateMutability":"view"},{"type":"function","name":"initialize","inputs":[{"name":"_vault","type":"address","internalType":"address"},{"name":"_profitSplitter","type":"address","internalType":"address"},{"name":"_feeCollector","type":"address","internalType":"address"},{"name":"_insuranceFund","type":"address","internalType":"address"},{"name":"_proofOfReserve","type":"address","internalType":"address"}],"outputs":[],"stateMutability":"nonpayable"},{"type":"function","name":"initialized","inputs":[],"outputs":[{"name":"","type":"bool","internalType":"bool"}],"stateMutability":"view"},{"type":"function","name":"owner","inputs":[],"outputs":[{"name":"","type":"address","internalType":"address"}],"stateMutability":"view"},{"type":"function","name":"protocolStatus","inputs":[],"outputs":[{"name":"_name","type":"string","internalType":"string"},{"name":"_version","type":"string","internalType":"string"},{"name":"_contractCount","type":"uint256","internalType":"uint256"},{"name":"_initialized","type":"bool","internalType":"bool"},{"name":"_usingProxy","type":"bool","internalType":"bool"}],"stateMutability":"view"},{"type":"function","name":"protocolVersion","inputs":[],"outputs":[{"name":"","type":"string","internalType":"string"}],"stateMutability":"view"},{"type":"function","name":"registerContract","inputs":[{"name":"name","type":"string","internalType":"string"},{"name":"addr","type":"address","internalType":"address"},{"name":"version","type":"string","internalType":"string"}],"outputs":[],"stateMutability":"nonpayable"},{"type":"function","name":"renounceOwnership","inputs":[],"outputs":[],"stateMutability":"nonpayable"},{"type":"function","name":"setProtocolVersion","inputs":[{"name":"_version","type":"string","internalType":"string"}],"outputs":[],"stateMutability":"nonpayable"},{"type":"function","name":"setUsingProxy","inputs":[{"name":"_usingProxy","type":"bool","internalType":"bool"}],"outputs":[],"stateMutability":"nonpayable"},{"type":"function","name":"transferOwnership","inputs":[{"name":"newOwner","type":"address","internalType":"address"}],"outputs":[],"stateMutability":"nonpayable"},{"type":"function","name":"updateContract","inputs":[{"name":"name","type":"string","internalType":"string"},{"name":"newAddr","type":"address","internalType":"address"},{"name":"newVersion","type":"string","internalType":"string"}],"outputs":[],"stateMutability":"nonpayable"},{"type":"function","name":"usingProxy","inputs":[],"outputs":[{"name":"","type":"bool","internalType":"bool"}],"stateMutability":"view"},{"type":"event","name":"ContractDeactivated","inputs":[{"name":"name","type":"string","indexed":false,"internalType":"string"},{"name":"addr","type":"address","indexed":false,"internalType":"address"},{"name":"timestamp","type":"uint256","indexed":false,"internalType":"uint256"}],"anonymous":false},{"type":"event","name":"ContractRegistered","inputs":[{"name":"name","type":"string","indexed":false,"internalType":"string"},{"name":"addr","type":"address","indexed":false,"internalType":"address"},{"name":"version","type":"string","indexed":false,"internalType":"string"},{"name":"timestamp","type":"uint256","indexed":false,"internalType":"uint256"}],"anonymous":false},{"type":"event","name":"ContractUpdated","inputs":[{"name":"name","type":"string","indexed":false,"internalType":"string"},{"name":"oldAddr","type":"address","indexed":false,"internalType":"address"},{"name":"newAddr","type":"address","indexed":false,"internalType":"address"},{"name":"version","type":"string","indexed":false,"internalType":"string"},{"name":"timestamp","type":"uint256","indexed":false,"internalType":"uint256"}],"anonymous":false},{"type":"event","name":"OwnershipTransferred","inputs":[{"name":"previousOwner","type":"address","indexed":true,"internalType":"address"},{"name":"newOwner","type":"address","indexed":true,"internalType":"address"}],"anonymous":false},{"type":"event","name":"ProtocolInitialized","inputs":[{"name":"timestamp","type":"uint256","indexed":false,"internalType":"uint256"}],"anonymous":false},{"type":"event","name":"ProtocolVersionUpdated","inputs":[{"name":"oldVersion","type":"string","indexed":false,"internalType":"string"},{"name":"newVersion","type":"string","indexed":false,"internalType":"string"},{"name":"timestamp","type":"uint256","indexed":false,"internalType":"uint256"}],"anonymous":false},{"type":"error","name":"OwnableInvalidOwner","inputs":[{"name":"owner","type":"address","internalType":"address"}]},{"type":"error","name":"OwnableUnauthorizedAccount","inputs":[{"name":"account","type":"address","internalType":"address"}]}],"bytecode":{"object":"0x608060405234801561000f575f5ffd5b50604051611e12380380611e1283398101604081905261002e9161010a565b826001600160a01b03811661005c57604051631e4fbdf760e01b81525f600482015260240160405180910390fd5b61006581610093565b506001610072838261026c565b50600480549115156101000261ff0019909216919091179055506103269050565b5f80546001600160a01b038381166001600160a01b0319831681178455604051919092169283917f8be0079c531659141344cd1fd0a4f28419497f9722a3daafe3b4186f6b6457e09190a35050565b634e487b7160e01b5f52604160045260245ffd5b80518015158114610105575f5ffd5b919050565b5f5f5f6060848603121561011c575f5ffd5b83516001600160a01b0381168114610132575f5ffd5b60208501519093506001600160401b0381111561014d575f5ffd5b8401601f8101861361015d575f5ffd5b80516001600160401b03811115610176576101766100e2565b604051601f8201601f19908116603f011681016001600160401b03811182821017156101a4576101a46100e2565b6040528181528282016020018810156101bb575f5ffd5b8160208401602083015e5f602083830101528094505050506101df604085016100f6565b90509250925092565b600181811c908216806101fc57607f821691505b60208210810361021a57634e487b7160e01b5f52602260045260245ffd5b50919050565b601f82111561026757805f5260205f20601f840160051c810160208510156102455750805b601f840160051c820191505b81811015610264575f8155600101610251565b50505b505050565b81516001600160401b03811115610285576102856100e2565b6102998161029384546101e8565b84610220565b6020601f8211600181146102cb575f83156102b45750848201515b5f19600385901b1c1916600184901b178455610264565b5f84815260208120601f198516915b828110156102fa57878501518255602094850194600190920191016102da565b508482101561031757868401515f19600387901b60f8161c191681555b50505050600190811b01905550565b611adf806103335f395ff3fe608060405234801561000f575f5ffd5b5060043610610127575f3560e01c8063819f34b3116100a9578063a3f4df7e1161006e578063a3f4df7e14610289578063a738e975146102bd578063d09ea4d7146102d0578063d7c04a46146102e3578063f2fde38b146102f5575f5ffd5b8063819f34b3146102115780638736381a146102315780638c5b8385146102425780638da5cb5b14610266578063a13da61d14610276575f5ffd5b806337df1e9d116100ef57806337df1e9d146101bb5780633ca6bb92146101d057806344dab3eb146101e3578063715018a6146101f657806380fa48a2146101fe575f5ffd5b80631459457a1461012b578063158ef93e146101405780631ae562ae146101625780632ae9c6001461017b5780633581777314610190575b5f5ffd5b61013e610139366004611366565b610308565b005b60045461014d9060ff1681565b60405190151581526020015b60405180910390f35b61016a6106b6565b6040516101599594939291906113f5565b6101836107a2565b6040516101599190611439565b6101a361019e366004611497565b61082e565b6040516001600160a01b039091168152602001610159565b6101c3610939565b60405161015991906114d6565b6101836101de366004611539565b610a0d565b61013e6101f1366004611550565b610a34565b61013e610a56565b61013e61020c366004611497565b610a69565b61022461021f366004611497565b610b51565b604051610159919061156f565b600354604051908152602001610159565b6102556102503660046115dc565b610cf3565b60405161015995949392919061168f565b5f546001600160a01b03166101a3565b61013e610284366004611497565b610dc3565b6101836040518060400160405280601581526020017457334220536f7665726569676e205265736572766560581b81525081565b61013e6102cb3660046116cf565b610ede565b61013e6102de3660046116cf565b61102c565b60045461014d90610100900460ff1681565b61013e610303366004611750565b61116f565b6103106111ac565b60045460ff16156103685760405162461bcd60e51b815260206004820152601860248201527f5733423a20616c726561647920696e697469616c697a6564000000000000000060448201526064015b60405180910390fd5b6001600160a01b0385166103b05760405162461bcd60e51b815260206004820152600f60248201526e15ccd08e881e995c9bc81d985d5b1d608a1b604482015260640161035f565b6001600160a01b0384166103fb5760405162461bcd60e51b81526020600482015260126024820152712b99a11d103d32b9379039b83634ba3a32b960711b604482015260640161035f565b6001600160a01b0383166104515760405162461bcd60e51b815260206004820152601760248201527f5733423a207a65726f2066656520636f6c6c6563746f72000000000000000000604482015260640161035f565b6001600160a01b03821661049d5760405162461bcd60e51b81526020600482015260136024820152725733423a207a65726f20696e737572616e636560681b604482015260640161035f565b6001600160a01b0381166104e55760405162461bcd60e51b815260206004820152600f60248201526e2b99a11d103d32b93790383937b7b360891b604482015260640161035f565b6105336040518060400160405280600e81526020016d14dbdd995c995a59db95985d5b1d60921b81525086604051806040016040528060058152602001640312e302e360dc1b8152506111d8565b6105816040518060400160405280600e81526020016d283937b334ba29b83634ba3a32b960911b81525085604051806040016040528060058152602001640312e302e360dc1b8152506111d8565b6105cd6040518060400160405280600c81526020016b2332b2a1b7b63632b1ba37b960a11b81525084604051806040016040528060058152602001640312e302e360dc1b8152506111d8565b61061a6040518060400160405280600d81526020016c125b9cdd5c985b98d9519d5b99609a1b81525083604051806040016040528060058152602001640312e302e360dc1b8152506111d8565b6106686040518060400160405280600e81526020016d50726f6f664f665265736572766560901b81525082604051806040016040528060058152602001640312e302e360dc1b8152506111d8565b6004805460ff191660011790556040517f035e0498d5459e77c79b7399d73eca47495e7b13f9973b77129c6b02b093f7bd906106a79042815260200190565b60405180910390a15050505050565b60408051808201909152601581527457334220536f7665726569676e205265736572766560581b60208201526003546004546001805460609485945f948594859490929160ff808216926101009092041690849061071390611769565b80601f016020809104026020016040519081016040528092919081815260200182805461073f90611769565b801561078a5780601f106107615761010080835404028352916020019161078a565b820191905f5260205f20905b81548152906001019060200180831161076d57829003601f168201915b50505050509350945094509450945094509091929394565b600180546107af90611769565b80601f01602080910402602001604051908101604052809291908181526020018280546107db90611769565b80156108265780601f106107fd57610100808354040283529160200191610826565b820191905f5260205f20905b81548152906001019060200180831161080957829003601f168201915b505050505081565b5f5f6001600160a01b03166002848460405161084b9291906117a1565b908152604051908190036020019020546001600160a01b0316036108a25760405162461bcd60e51b815260206004820152600e60248201526d15ccd08e881b9bdd08199bdd5b9960921b604482015260640161035f565b600283836040516108b49291906117a1565b9081526040519081900360200190206002015460ff166109065760405162461bcd60e51b815260206004820152600d60248201526c5733423a20696e61637469766560981b604482015260640161035f565b600283836040516109189291906117a1565b908152604051908190036020019020546001600160a01b0316905092915050565b60606003805480602002602001604051908101604052809291908181526020015f905b82821015610a04578382905f5260205f2001805461097990611769565b80601f01602080910402602001604051908101604052809291908181526020018280546109a590611769565b80156109f05780601f106109c7576101008083540402835291602001916109f0565b820191905f5260205f20905b8154815290600101906020018083116109d357829003601f168201915b50505050508152602001906001019061095c565b50505050905090565b60038181548110610a1c575f80fd5b905f5260205f20015f9150905080546107af90611769565b610a3c6111ac565b600480549115156101000261ff0019909216919091179055565b610a5e6111ac565b610a675f6112fc565b565b610a716111ac565b5f60018054610a7f90611769565b80601f0160208091040260200160405190810160405280929190818152602001828054610aab90611769565b8015610af65780601f10610acd57610100808354040283529160200191610af6565b820191905f5260205f20905b815481529060010190602001808311610ad957829003601f168201915b50505050509050828260019182610b0e9291906117f9565b507f8e55d0b3b7e416f61180e97c37b91de6698e72784e640e7b4fdd619805acb3b681848442604051610b4494939291906118db565b60405180910390a1505050565b610b8a6040518060a001604052805f6001600160a01b03168152602001606081526020015f151581526020015f81526020015f81525090565b5f6001600160a01b031660028484604051610ba69291906117a1565b908152604051908190036020019020546001600160a01b031603610bfd5760405162461bcd60e51b815260206004820152600e60248201526d15ccd08e881b9bdd08199bdd5b9960921b604482015260640161035f565b60028383604051610c0f9291906117a1565b90815260408051918290036020908101832060a0840190925281546001600160a01b0316835260018201805491840191610c4890611769565b80601f0160208091040260200160405190810160405280929190818152602001828054610c7490611769565b8015610cbf5780601f10610c9657610100808354040283529160200191610cbf565b820191905f5260205f20905b815481529060010190602001808311610ca257829003601f168201915b5050509183525050600282015460ff1615156020820152600382015460408201526004909101546060909101529392505050565b8051602081830181018051600282529282019190930120915280546001820180546001600160a01b039092169291610d2a90611769565b80601f0160208091040260200160405190810160405280929190818152602001828054610d5690611769565b8015610da15780601f10610d7857610100808354040283529160200191610da1565b820191905f5260205f20905b815481529060010190602001808311610d8457829003601f168201915b5050505060028301546003840154600490940154929360ff9091169290915085565b610dcb6111ac565b5f60028383604051610dde9291906117a1565b90815260405190819003602001902080549091506001600160a01b0316610e3d5760405162461bcd60e51b815260206004820152601360248201527215ccd08e881b9bdd081c9959da5cdd195c9959606a1b604482015260640161035f565b600281015460ff16610e895760405162461bcd60e51b81526020600482015260156024820152745733423a20616c726561647920696e61637469766560581b604482015260640161035f565b60028101805460ff19169055426004820181905581546040517ff90b572c34b80fee338c1521ed135c9cc3ca32368f99e9fbf1c874ee431456f392610b4492879287926001600160a01b039092169190611912565b610ee66111ac565b6001600160a01b038316610f305760405162461bcd60e51b81526020600482015260116024820152705733423a207a65726f206164647265737360781b604482015260640161035f565b5f6001600160a01b031660028686604051610f4c9291906117a1565b908152604051908190036020019020546001600160a01b031614610fb25760405162461bcd60e51b815260206004820152601760248201527f5733423a20616c72656164792072656769737465726564000000000000000000604482015260640161035f565b61102585858080601f0160208091040260200160405190810160405280939291908181526020018383808284375f9201919091525050604080516020601f8801819004810282018101909252868152889350915086908690819084018382808284375f920191909152506111d892505050565b5050505050565b6110346111ac565b6001600160a01b03831661107e5760405162461bcd60e51b81526020600482015260116024820152705733423a207a65726f206164647265737360781b604482015260640161035f565b5f600286866040516110919291906117a1565b90815260405190819003602001902080549091506001600160a01b03166110f05760405162461bcd60e51b815260206004820152601360248201527215ccd08e881b9bdd081c9959da5cdd195c9959606a1b604482015260640161035f565b80546001600160a01b038581166001600160a01b03198316178355166001820161111b8486836117f9565b5042600483018190556040517fc8e402b6a84934d41bde25f1ab2dc0bbf101b1485e4a5934df18c76aa73764239161115e918a918a9186918b918b918b91611941565b60405180910390a150505050505050565b6111776111ac565b6001600160a01b0381166111a057604051631e4fbdf760e01b81525f600482015260240161035f565b6111a9816112fc565b50565b5f546001600160a01b03163314610a675760405163118cdaa760e01b815233600482015260240161035f565b6040518060a00160405280836001600160a01b031681526020018281526020016001151581526020014281526020014281525060028460405161121b9190611993565b90815260405160209181900382019020825181546001600160a01b0319166001600160a01b0390911617815590820151600182019061125a90826119a9565b50604082015160028201805460ff1916911515919091179055606082015160038083019190915560809092015160049091015580546001810182555f919091527fc2575a0e9e593c00f959f8c92f12db2869c3395a3b0502d05e2516446f71f85b016112c684826119a9565b507f50641c02aad9da990ac4a06341defb64759269eb40b0fc24eda6a73458138c0683838342604051610b449493929190611a64565b5f80546001600160a01b038381166001600160a01b0319831681178455604051919092169283917f8be0079c531659141344cd1fd0a4f28419497f9722a3daafe3b4186f6b6457e09190a35050565b80356001600160a01b0381168114611361575f5ffd5b919050565b5f5f5f5f5f60a0868803121561137a575f5ffd5b6113838661134b565b94506113916020870161134b565b935061139f6040870161134b565b92506113ad6060870161134b565b91506113bb6080870161134b565b90509295509295909350565b5f81518084528060208401602086015e5f602082860101526020601f19601f83011685010191505092915050565b60a081525f61140760a08301886113c7565b828103602084015261141981886113c7565b604084019690965250509115156060830152151560809091015292915050565b602081525f61144b60208301846113c7565b9392505050565b5f5f83601f840112611462575f5ffd5b50813567ffffffffffffffff811115611479575f5ffd5b602083019150836020828501011115611490575f5ffd5b9250929050565b5f5f602083850312156114a8575f5ffd5b823567ffffffffffffffff8111156114be575f5ffd5b6114ca85828601611452565b90969095509350505050565b5f602082016020835280845180835260408501915060408160051b8601019250602086015f5b8281101561152d57603f198786030184526115188583516113c7565b945060209384019391909101906001016114fc565b50929695505050505050565b5f60208284031215611549575f5ffd5b5035919050565b5f60208284031215611560575f5ffd5b8135801515811461144b575f5ffd5b602080825282516001600160a01b03168282015282015160a060408301525f9061159c60c08401826113c7565b905060408401511515606084015260608401516080840152608084015160a08401528091505092915050565b634e487b7160e01b5f52604160045260245ffd5b5f602082840312156115ec575f5ffd5b813567ffffffffffffffff811115611602575f5ffd5b8201601f81018413611612575f5ffd5b803567ffffffffffffffff81111561162c5761162c6115c8565b604051601f8201601f19908116603f0116810167ffffffffffffffff8111828210171561165b5761165b6115c8565b604052818152828201602001861015611672575f5ffd5b816020840160208301375f91810160200191909152949350505050565b6001600160a01b038616815260a0602082018190525f906116b2908301876113c7565b941515604083015250606081019290925260809091015292915050565b5f5f5f5f5f606086880312156116e3575f5ffd5b853567ffffffffffffffff8111156116f9575f5ffd5b61170588828901611452565b909650945061171890506020870161134b565b9250604086013567ffffffffffffffff811115611733575f5ffd5b61173f88828901611452565b969995985093965092949392505050565b5f60208284031215611760575f5ffd5b61144b8261134b565b600181811c9082168061177d57607f821691505b60208210810361179b57634e487b7160e01b5f52602260045260245ffd5b50919050565b818382375f9101908152919050565b601f8211156117f457805f5260205f20601f840160051c810160208510156117d55750805b601f840160051c820191505b81811015611025575f81556001016117e1565b505050565b67ffffffffffffffff831115611811576118116115c8565b6118258361181f8354611769565b836117b0565b5f601f841160018114611856575f851561183f5750838201355b5f19600387901b1c1916600186901b178355611025565b5f83815260208120601f198716915b828110156118855786850135825560209485019460019092019101611865565b50868210156118a1575f1960f88860031b161c19848701351681555b505060018560011b0183555050505050565b81835281816020850137505f828201602090810191909152601f909101601f19169091010190565b606081525f6118ed60608301876113c7565b82810360208401526119008186886118b3565b91505082604083015295945050505050565b606081525f6119256060830186886118b3565b6001600160a01b03949094166020830152506040015292915050565b60a081525f61195460a08301898b6118b3565b6001600160a01b03888116602085015287166040840152828103606084015261197e8186886118b3565b91505082608083015298975050505050505050565b5f82518060208501845e5f920191825250919050565b815167ffffffffffffffff8111156119c3576119c36115c8565b6119d7816119d18454611769565b846117b0565b6020601f821160018114611a09575f83156119f25750848201515b5f19600385901b1c1916600184901b178455611025565b5f84815260208120601f198516915b82811015611a385787850151825560209485019460019092019101611a18565b5084821015611a5557868401515f19600387901b60f8161c191681555b50505050600190811b01905550565b608081525f611a7660808301876113c7565b6001600160a01b03861660208401528281036040840152611a9781866113c7565b9150508260608301529594505050505056fea2646970667358221220f419f4ddba62711de9018d7024fab435680ef0f2971022e69852b0a2b5c4c38f64736f6c634300081c0033","linkReferences":{}},"methodIdentifiers":{"NAME()":"a3f4df7e","contractCount()":"8736381a","contractNames(uint256)":"3ca6bb92","contracts(string)":"8c5b8385","deactivateContract(string)":"a13da61d","getContract(string)":"35817773","getContractInfo(string)":"819f34b3","getContractNames()":"37df1e9d","initialize(address,address,address,address,address)":"1459457a","initialized()":"158ef93e","owner()":"8da5cb5b","protocolStatus()":"1ae562ae","protocolVersion()":"2ae9c600","registerContract(string,address,string)":"a738e975","renounceOwnership()":"715018a6","setProtocolVersion(string)":"80fa48a2","setUsingProxy(bool)":"44dab3eb","transferOwnership(address)":"f2fde38b","updateContract(string,address,string)":"d09ea4d7","usingProxy()":"d7c04a46"},"id":68}